{
	"contracts/LoveDropFactory.sol": {
		"LoveDropFactory": {
			"abi": [
				{
					"anonymous": false,
					"inputs": [
						{
							"indexed": true,
							"internalType": "address",
							"name": "deployerAddress",
							"type": "address"
						},
						{
							"indexed": false,
							"internalType": "address",
							"name": "dropAddress",
							"type": "address"
						}
					],
					"name": "CreateNewDrop",
					"type": "event"
				},
				{
					"inputs": [
						{
							"internalType": "address",
							"name": "_airdropTokenAddress",
							"type": "address"
						},
						{
							"internalType": "bytes32",
							"name": "_merkleRoot",
							"type": "bytes32"
						},
						{
							"internalType": "string",
							"name": "_claimDataIpfs",
							"type": "string"
						}
					],
					"name": "createNewDrop",
					"outputs": [],
					"stateMutability": "nonpayable",
					"type": "function"
				},
				{
					"inputs": [],
					"name": "implementation",
					"outputs": [
						{
							"internalType": "address",
							"name": "",
							"type": "address"
						}
					],
					"stateMutability": "view",
					"type": "function"
				}
			],
			"devdoc": {
				"kind": "dev",
				"methods": {},
				"version": 1
			},
			"evm": {
				"assembly": "    /* \"contracts/LoveDropFactory.sol\":221:701  contract LoveDropFactory is ILoveDropFactory {... */\n  mstore(0x40, 0x80)\n    /* \"contracts/LoveDropFactory.sol\":311:325  new LoveDrop() */\n  mload(0x40)\n  tag_1\n  swap1\n  tag_2\n  jump\t// in\ntag_1:\n  mload(0x40)\n  dup1\n  swap2\n  sub\n  swap1\n  0x00\n  create\n  dup1\n  iszero\n  dup1\n  iszero\n  tag_3\n  jumpi\n  returndatasize\n  0x00\n  dup1\n  returndatacopy\n  revert(0x00, returndatasize)\ntag_3:\n  pop\n    /* \"contracts/LoveDropFactory.sol\":271:326  address public implementation = address(new LoveDrop()) */\n  0x00\n  dup1\n  sload\n  not(sub(shl(0xa0, 0x01), 0x01))\n  and\n  sub(shl(0xa0, 0x01), 0x01)\n  swap3\n  swap1\n  swap3\n  and\n  swap2\n  swap1\n  swap2\n  or\n  swap1\n  sstore\n    /* \"contracts/LoveDropFactory.sol\":221:701  contract LoveDropFactory is ILoveDropFactory {... */\n  callvalue\n  dup1\n  iszero\n  tag_4\n  jumpi\n  0x00\n  dup1\n  revert\ntag_4:\n  pop\n  jump(tag_5)\ntag_2:\n  dataSize(sub_1)\n  dup1\n  dataOffset(sub_1)\n  dup4\n  codecopy\n  add\n  swap1\n  jump\t// out\ntag_5:\n  dataSize(sub_0)\n  dup1\n  dataOffset(sub_0)\n  0x00\n  codecopy\n  0x00\n  return\nstop\n\nsub_0: assembly {\n        /* \"contracts/LoveDropFactory.sol\":221:701  contract LoveDropFactory is ILoveDropFactory {... */\n      mstore(0x40, 0x80)\n      callvalue\n      dup1\n      iszero\n      tag_1\n      jumpi\n      0x00\n      dup1\n      revert\n    tag_1:\n      pop\n      jumpi(tag_2, lt(calldatasize, 0x04))\n      shr(0xe0, calldataload(0x00))\n      dup1\n      0x5c60da1b\n      eq\n      tag_3\n      jumpi\n      dup1\n      0xe8bead02\n      eq\n      tag_4\n      jumpi\n    tag_2:\n      0x00\n      dup1\n      revert\n        /* \"contracts/LoveDropFactory.sol\":271:326  address public implementation = address(new LoveDrop()) */\n    tag_3:\n      sload(0x00)\n      tag_5\n      swap1\n      sub(shl(0xa0, 0x01), 0x01)\n      and\n      dup2\n      jump\n    tag_5:\n      mload(0x40)\n      sub(shl(0xa0, 0x01), 0x01)\n        /* \"#utility.yul\":178:210   */\n      swap1\n      swap2\n      and\n        /* \"#utility.yul\":160:211   */\n      dup2\n      mstore\n        /* \"#utility.yul\":148:150   */\n      0x20\n        /* \"#utility.yul\":133:151   */\n      add\n        /* \"contracts/LoveDropFactory.sol\":271:326  address public implementation = address(new LoveDrop()) */\n      mload(0x40)\n      dup1\n      swap2\n      sub\n      swap1\n      return\n        /* \"contracts/LoveDropFactory.sol\":332:699  function createNewDrop(address _airdropTokenAddress, bytes32 _merkleRoot, string memory _claimDataIpfs) override public {... */\n    tag_4:\n      tag_9\n      tag_10\n      calldatasize\n      0x04\n      tag_11\n      jump\t// in\n    tag_10:\n      tag_12\n      jump\t// in\n    tag_9:\n      stop\n    tag_12:\n        /* \"contracts/LoveDropFactory.sol\":460:483  address deployerAddress */\n      0x00\n        /* \"contracts/LoveDropFactory.sol\":537:551  implementation */\n      dup1\n      sload\n        /* \"contracts/LoveDropFactory.sol\":486:496  msg.sender */\n      caller\n      swap2\n        /* \"contracts/LoveDropFactory.sol\":460:483  address deployerAddress */\n      swap1\n        /* \"contracts/LoveDropFactory.sol\":524:552  Clones.clone(implementation) */\n      tag_14\n      swap1\n      sub(shl(0xa0, 0x01), 0x01)\n        /* \"contracts/LoveDropFactory.sol\":537:551  implementation */\n      and\n        /* \"contracts/LoveDropFactory.sol\":524:536  Clones.clone */\n      tag_15\n        /* \"contracts/LoveDropFactory.sol\":524:552  Clones.clone(implementation) */\n      jump\t// in\n    tag_14:\n        /* \"contracts/LoveDropFactory.sol\":560:640  LoveDrop(instance).initialize(_airdropTokenAddress, _merkleRoot, _claimDataIpfs) */\n      mload(0x40)\n      shl(0xe2, 0x3c38c859)\n      dup2\n      mstore\n        /* \"contracts/LoveDropFactory.sol\":505:552  address instance = Clones.clone(implementation) */\n      swap1\n      swap2\n      pop\n      sub(shl(0xa0, 0x01), 0x01)\n        /* \"contracts/LoveDropFactory.sol\":560:589  LoveDrop(instance).initialize */\n      dup3\n      and\n      swap1\n      0xf0e32164\n      swap1\n        /* \"contracts/LoveDropFactory.sol\":560:640  LoveDrop(instance).initialize(_airdropTokenAddress, _merkleRoot, _claimDataIpfs) */\n      tag_16\n      swap1\n        /* \"contracts/LoveDropFactory.sol\":590:610  _airdropTokenAddress */\n      dup9\n      swap1\n        /* \"contracts/LoveDropFactory.sol\":612:623  _merkleRoot */\n      dup9\n      swap1\n        /* \"contracts/LoveDropFactory.sol\":625:639  _claimDataIpfs */\n      dup9\n      swap1\n        /* \"contracts/LoveDropFactory.sol\":560:640  LoveDrop(instance).initialize(_airdropTokenAddress, _merkleRoot, _claimDataIpfs) */\n      0x04\n      add\n      tag_17\n      jump\t// in\n    tag_16:\n      0x00\n      mload(0x40)\n      dup1\n      dup4\n      sub\n      dup2\n      0x00\n      dup8\n      dup1\n      extcodesize\n      iszero\n      dup1\n      iszero\n      tag_18\n      jumpi\n      0x00\n      dup1\n      revert\n    tag_18:\n      pop\n      gas\n      call\n      iszero\n      dup1\n      iszero\n      tag_20\n      jumpi\n      returndatasize\n      0x00\n      dup1\n      returndatacopy\n      revert(0x00, returndatasize)\n    tag_20:\n      pop\n      pop\n        /* \"contracts/LoveDropFactory.sol\":653:693  CreateNewDrop(deployerAddress, instance) */\n      mload(0x40)\n      sub(shl(0xa0, 0x01), 0x01)\n        /* \"#utility.yul\":178:210   */\n      dup5\n      dup2\n      and\n        /* \"#utility.yul\":160:211   */\n      dup3\n      mstore\n        /* \"contracts/LoveDropFactory.sol\":653:693  CreateNewDrop(deployerAddress, instance) */\n      dup6\n      and\n      swap3\n      pop\n      0x1e4d1ffdcddd8a1f895904c7d3e195a597210396f9b3e1717cb53bb9c29cc3ea\n      swap2\n      pop\n        /* \"#utility.yul\":148:150   */\n      0x20\n        /* \"#utility.yul\":133:151   */\n      add\n        /* \"contracts/LoveDropFactory.sol\":653:693  CreateNewDrop(deployerAddress, instance) */\n      mload(0x40)\n      dup1\n      swap2\n      sub\n      swap1\n      log2\n        /* \"contracts/LoveDropFactory.sol\":452:699  {... */\n      pop\n      pop\n        /* \"contracts/LoveDropFactory.sol\":332:699  function createNewDrop(address _airdropTokenAddress, bytes32 _merkleRoot, string memory _claimDataIpfs) override public {... */\n      pop\n      pop\n      pop\n      jump\t// out\n        /* \"@openzeppelin/contracts/proxy/Clones.sol\":973:1732  function clone(address implementation) internal returns (address instance) {... */\n    tag_15:\n        /* \"@openzeppelin/contracts/proxy/Clones.sol\":1030:1046  address instance */\n      0x00\n        /* \"@openzeppelin/contracts/proxy/Clones.sol\":1362:1410  0x3d602d80600a3d3981f3363d3d373d3d3d363d73000000 */\n      0x3d602d80600a3d3981f3363d3d373d3d3d363d73000000\n        /* \"@openzeppelin/contracts/proxy/Clones.sol\":1344:1358  implementation */\n      dup3\n        /* \"@openzeppelin/contracts/proxy/Clones.sol\":1338:1342  0x60 */\n      0x60\n        /* \"@openzeppelin/contracts/proxy/Clones.sol\":1334:1359  shl(0x60, implementation) */\n      shl\n        /* \"@openzeppelin/contracts/proxy/Clones.sol\":1328:1332  0xe8 */\n      0xe8\n        /* \"@openzeppelin/contracts/proxy/Clones.sol\":1324:1360  shr(0xe8, shl(0x60, implementation)) */\n      shr\n        /* \"@openzeppelin/contracts/proxy/Clones.sol\":1321:1411  or(shr(0xe8, shl(0x60, implementation)), 0x3d602d80600a3d3981f3363d3d373d3d3d363d73000000) */\n      or\n        /* \"@openzeppelin/contracts/proxy/Clones.sol\":1315:1319  0x00 */\n      0x00\n        /* \"@openzeppelin/contracts/proxy/Clones.sol\":1308:1412  mstore(0x00, or(shr(0xe8, shl(0x60, implementation)), 0x3d602d80600a3d3981f3363d3d373d3d3d363d73000000)) */\n      mstore\n        /* \"@openzeppelin/contracts/proxy/Clones.sol\":1569:1601  0x5af43d82803e903d91602b57fd5bf3 */\n      0x5af43d82803e903d91602b57fd5bf3\n        /* \"@openzeppelin/contracts/proxy/Clones.sol\":1552:1566  implementation */\n      dup3\n        /* \"@openzeppelin/contracts/proxy/Clones.sol\":1546:1550  0x78 */\n      0x78\n        /* \"@openzeppelin/contracts/proxy/Clones.sol\":1542:1567  shl(0x78, implementation) */\n      shl\n        /* \"@openzeppelin/contracts/proxy/Clones.sol\":1539:1602  or(shl(0x78, implementation), 0x5af43d82803e903d91602b57fd5bf3) */\n      or\n        /* \"@openzeppelin/contracts/proxy/Clones.sol\":1533:1537  0x20 */\n      0x20\n        /* \"@openzeppelin/contracts/proxy/Clones.sol\":1526:1603  mstore(0x20, or(shl(0x78, implementation), 0x5af43d82803e903d91602b57fd5bf3)) */\n      mstore\n        /* \"@openzeppelin/contracts/proxy/Clones.sol\":1644:1648  0x37 */\n      0x37\n        /* \"@openzeppelin/contracts/proxy/Clones.sol\":1638:1642  0x09 */\n      0x09\n        /* \"@openzeppelin/contracts/proxy/Clones.sol\":1635:1636  0 */\n      0x00\n        /* \"@openzeppelin/contracts/proxy/Clones.sol\":1628:1649  create(0, 0x09, 0x37) */\n      create\n        /* \"@openzeppelin/contracts/proxy/Clones.sol\":1616:1649  instance := create(0, 0x09, 0x37) */\n      swap1\n      pop\n      sub(shl(0xa0, 0x01), 0x01)\n        /* \"@openzeppelin/contracts/proxy/Clones.sol\":1676:1698  instance != address(0) */\n      dup2\n      and\n        /* \"@openzeppelin/contracts/proxy/Clones.sol\":1668:1725  require(instance != address(0), \"ERC1167: create failed\") */\n      tag_23\n      jumpi\n      mload(0x40)\n      shl(0xe5, 0x461bcd)\n      dup2\n      mstore\n        /* \"#utility.yul\":2449:2451   */\n      0x20\n        /* \"@openzeppelin/contracts/proxy/Clones.sol\":1668:1725  require(instance != address(0), \"ERC1167: create failed\") */\n      0x04\n      dup3\n      add\n        /* \"#utility.yul\":2431:2452   */\n      mstore\n        /* \"#utility.yul\":2488:2490   */\n      0x16\n        /* \"#utility.yul\":2468:2486   */\n      0x24\n      dup3\n      add\n        /* \"#utility.yul\":2461:2491   */\n      mstore\n      shl(0x52, 0x115490cc4c4d8dce8818dc99585d194819985a5b1959)\n        /* \"#utility.yul\":2507:2525   */\n      0x44\n      dup3\n      add\n        /* \"#utility.yul\":2500:2552   */\n      mstore\n        /* \"#utility.yul\":2569:2587   */\n      0x64\n      add\n        /* \"@openzeppelin/contracts/proxy/Clones.sol\":1668:1725  require(instance != address(0), \"ERC1167: create failed\") */\n      mload(0x40)\n      dup1\n      swap2\n      sub\n      swap1\n      revert\n    tag_23:\n        /* \"@openzeppelin/contracts/proxy/Clones.sol\":973:1732  function clone(address implementation) internal returns (address instance) {... */\n      swap2\n      swap1\n      pop\n      jump\t// out\n        /* \"#utility.yul\":222:349   */\n    tag_26:\n        /* \"#utility.yul\":283:293   */\n      0x4e487b71\n        /* \"#utility.yul\":278:281   */\n      0xe0\n        /* \"#utility.yul\":274:294   */\n      shl\n        /* \"#utility.yul\":271:272   */\n      0x00\n        /* \"#utility.yul\":264:295   */\n      mstore\n        /* \"#utility.yul\":314:318   */\n      0x41\n        /* \"#utility.yul\":311:312   */\n      0x04\n        /* \"#utility.yul\":304:319   */\n      mstore\n        /* \"#utility.yul\":338:342   */\n      0x24\n        /* \"#utility.yul\":335:336   */\n      0x00\n        /* \"#utility.yul\":328:343   */\n      revert\n        /* \"#utility.yul\":354:1518   */\n    tag_11:\n        /* \"#utility.yul\":441:447   */\n      0x00\n        /* \"#utility.yul\":449:455   */\n      dup1\n        /* \"#utility.yul\":457:463   */\n      0x00\n        /* \"#utility.yul\":510:512   */\n      0x60\n        /* \"#utility.yul\":498:507   */\n      dup5\n        /* \"#utility.yul\":489:496   */\n      dup7\n        /* \"#utility.yul\":485:508   */\n      sub\n        /* \"#utility.yul\":481:513   */\n      slt\n        /* \"#utility.yul\":478:530   */\n      iszero\n      tag_31\n      jumpi\n        /* \"#utility.yul\":526:527   */\n      0x00\n        /* \"#utility.yul\":523:524   */\n      dup1\n        /* \"#utility.yul\":516:528   */\n      revert\n        /* \"#utility.yul\":478:530   */\n    tag_31:\n        /* \"#utility.yul\":552:575   */\n      dup4\n      calldataload\n      sub(shl(0xa0, 0x01), 0x01)\n        /* \"#utility.yul\":604:635   */\n      dup2\n      and\n        /* \"#utility.yul\":594:636   */\n      dup2\n      eq\n        /* \"#utility.yul\":584:654   */\n      tag_32\n      jumpi\n        /* \"#utility.yul\":650:651   */\n      0x00\n        /* \"#utility.yul\":647:648   */\n      dup1\n        /* \"#utility.yul\":640:652   */\n      revert\n        /* \"#utility.yul\":584:654   */\n    tag_32:\n        /* \"#utility.yul\":673:678   */\n      swap3\n      pop\n        /* \"#utility.yul\":725:727   */\n      0x20\n        /* \"#utility.yul\":710:728   */\n      dup5\n      add\n        /* \"#utility.yul\":697:729   */\n      calldataload\n      swap2\n      pop\n        /* \"#utility.yul\":780:782   */\n      0x40\n        /* \"#utility.yul\":765:783   */\n      dup5\n      add\n        /* \"#utility.yul\":752:784   */\n      calldataload\n        /* \"#utility.yul\":803:821   */\n      0xffffffffffffffff\n        /* \"#utility.yul\":833:847   */\n      dup1\n      dup3\n      gt\n        /* \"#utility.yul\":830:864   */\n      iszero\n      tag_33\n      jumpi\n        /* \"#utility.yul\":860:861   */\n      0x00\n        /* \"#utility.yul\":857:858   */\n      dup1\n        /* \"#utility.yul\":850:862   */\n      revert\n        /* \"#utility.yul\":830:864   */\n    tag_33:\n        /* \"#utility.yul\":898:904   */\n      dup2\n        /* \"#utility.yul\":887:896   */\n      dup7\n        /* \"#utility.yul\":883:905   */\n      add\n        /* \"#utility.yul\":873:905   */\n      swap2\n      pop\n        /* \"#utility.yul\":943:950   */\n      dup7\n        /* \"#utility.yul\":936:940   */\n      0x1f\n        /* \"#utility.yul\":932:934   */\n      dup4\n        /* \"#utility.yul\":928:941   */\n      add\n        /* \"#utility.yul\":924:951   */\n      slt\n        /* \"#utility.yul\":914:969   */\n      tag_34\n      jumpi\n        /* \"#utility.yul\":965:966   */\n      0x00\n        /* \"#utility.yul\":962:963   */\n      dup1\n        /* \"#utility.yul\":955:967   */\n      revert\n        /* \"#utility.yul\":914:969   */\n    tag_34:\n        /* \"#utility.yul\":1001:1003   */\n      dup2\n        /* \"#utility.yul\":988:1004   */\n      calldataload\n        /* \"#utility.yul\":1023:1025   */\n      dup2\n        /* \"#utility.yul\":1019:1021   */\n      dup2\n        /* \"#utility.yul\":1016:1026   */\n      gt\n        /* \"#utility.yul\":1013:1049   */\n      iszero\n      tag_36\n      jumpi\n        /* \"#utility.yul\":1029:1047   */\n      tag_36\n      tag_26\n      jump\t// in\n    tag_36:\n        /* \"#utility.yul\":1104:1106   */\n      0x40\n        /* \"#utility.yul\":1098:1107   */\n      mload\n        /* \"#utility.yul\":1072:1074   */\n      0x1f\n        /* \"#utility.yul\":1158:1171   */\n      dup3\n      add\n      not(0x1f)\n        /* \"#utility.yul\":1154:1176   */\n      swap1\n      dup2\n      and\n        /* \"#utility.yul\":1178:1180   */\n      0x3f\n        /* \"#utility.yul\":1150:1181   */\n      add\n        /* \"#utility.yul\":1146:1186   */\n      and\n        /* \"#utility.yul\":1134:1187   */\n      dup2\n      add\n      swap1\n        /* \"#utility.yul\":1202:1220   */\n      dup4\n      dup3\n      gt\n        /* \"#utility.yul\":1222:1244   */\n      dup2\n      dup4\n      lt\n        /* \"#utility.yul\":1199:1245   */\n      or\n        /* \"#utility.yul\":1196:1268   */\n      iszero\n      tag_38\n      jumpi\n        /* \"#utility.yul\":1248:1266   */\n      tag_38\n      tag_26\n      jump\t// in\n    tag_38:\n        /* \"#utility.yul\":1288:1298   */\n      dup2\n        /* \"#utility.yul\":1284:1286   */\n      0x40\n        /* \"#utility.yul\":1277:1299   */\n      mstore\n        /* \"#utility.yul\":1323:1325   */\n      dup3\n        /* \"#utility.yul\":1315:1321   */\n      dup2\n        /* \"#utility.yul\":1308:1326   */\n      mstore\n        /* \"#utility.yul\":1363:1370   */\n      dup10\n        /* \"#utility.yul\":1358:1360   */\n      0x20\n        /* \"#utility.yul\":1353:1355   */\n      dup5\n        /* \"#utility.yul\":1349:1351   */\n      dup8\n        /* \"#utility.yul\":1345:1356   */\n      add\n        /* \"#utility.yul\":1341:1361   */\n      add\n        /* \"#utility.yul\":1338:1371   */\n      gt\n        /* \"#utility.yul\":1335:1388   */\n      iszero\n      tag_39\n      jumpi\n        /* \"#utility.yul\":1384:1385   */\n      0x00\n        /* \"#utility.yul\":1381:1382   */\n      dup1\n        /* \"#utility.yul\":1374:1386   */\n      revert\n        /* \"#utility.yul\":1335:1388   */\n    tag_39:\n        /* \"#utility.yul\":1440:1442   */\n      dup3\n        /* \"#utility.yul\":1435:1437   */\n      0x20\n        /* \"#utility.yul\":1431:1433   */\n      dup7\n        /* \"#utility.yul\":1427:1438   */\n      add\n        /* \"#utility.yul\":1422:1424   */\n      0x20\n        /* \"#utility.yul\":1414:1420   */\n      dup4\n        /* \"#utility.yul\":1410:1425   */\n      add\n        /* \"#utility.yul\":1397:1443   */\n      calldatacopy\n        /* \"#utility.yul\":1485:1486   */\n      0x00\n        /* \"#utility.yul\":1480:1482   */\n      0x20\n        /* \"#utility.yul\":1475:1477   */\n      dup5\n        /* \"#utility.yul\":1467:1473   */\n      dup4\n        /* \"#utility.yul\":1463:1478   */\n      add\n        /* \"#utility.yul\":1459:1483   */\n      add\n        /* \"#utility.yul\":1452:1487   */\n      mstore\n        /* \"#utility.yul\":1506:1512   */\n      dup1\n        /* \"#utility.yul\":1496:1512   */\n      swap6\n      pop\n      pop\n      pop\n      pop\n      pop\n      pop\n        /* \"#utility.yul\":354:1518   */\n      swap3\n      pop\n      swap3\n      pop\n      swap3\n      jump\t// out\n        /* \"#utility.yul\":1523:2242   */\n    tag_17:\n        /* \"#utility.yul\":1757:1758   */\n      0x01\n        /* \"#utility.yul\":1753:1754   */\n      dup1\n        /* \"#utility.yul\":1748:1751   */\n      0xa0\n        /* \"#utility.yul\":1744:1755   */\n      shl\n        /* \"#utility.yul\":1740:1759   */\n      sub\n        /* \"#utility.yul\":1732:1738   */\n      dup5\n        /* \"#utility.yul\":1728:1760   */\n      and\n        /* \"#utility.yul\":1717:1726   */\n      dup2\n        /* \"#utility.yul\":1710:1761   */\n      mstore\n        /* \"#utility.yul\":1691:1695   */\n      0x00\n        /* \"#utility.yul\":1780:1782   */\n      0x20\n        /* \"#utility.yul\":1818:1824   */\n      dup5\n        /* \"#utility.yul\":1813:1815   */\n      dup2\n        /* \"#utility.yul\":1802:1811   */\n      dup5\n        /* \"#utility.yul\":1798:1816   */\n      add\n        /* \"#utility.yul\":1791:1825   */\n      mstore\n        /* \"#utility.yul\":1861:1863   */\n      0x60\n        /* \"#utility.yul\":1856:1858   */\n      0x40\n        /* \"#utility.yul\":1845:1854   */\n      dup5\n        /* \"#utility.yul\":1841:1859   */\n      add\n        /* \"#utility.yul\":1834:1864   */\n      mstore\n        /* \"#utility.yul\":1893:1899   */\n      dup4\n        /* \"#utility.yul\":1887:1900   */\n      mload\n        /* \"#utility.yul\":1936:1942   */\n      dup1\n        /* \"#utility.yul\":1931:1933   */\n      0x60\n        /* \"#utility.yul\":1920:1929   */\n      dup6\n        /* \"#utility.yul\":1916:1934   */\n      add\n        /* \"#utility.yul\":1909:1943   */\n      mstore\n        /* \"#utility.yul\":1961:1962   */\n      0x00\n        /* \"#utility.yul\":1971:2112   */\n    tag_41:\n        /* \"#utility.yul\":1985:1991   */\n      dup2\n        /* \"#utility.yul\":1982:1983   */\n      dup2\n        /* \"#utility.yul\":1979:1992   */\n      lt\n        /* \"#utility.yul\":1971:2112   */\n      iszero\n      tag_43\n      jumpi\n        /* \"#utility.yul\":2081:2095   */\n      dup6\n      dup2\n      add\n        /* \"#utility.yul\":2077:2100   */\n      dup4\n      add\n        /* \"#utility.yul\":2071:2101   */\n      mload\n        /* \"#utility.yul\":2046:2063   */\n      dup6\n      dup3\n      add\n        /* \"#utility.yul\":2065:2068   */\n      0x80\n        /* \"#utility.yul\":2042:2069   */\n      add\n        /* \"#utility.yul\":2035:2102   */\n      mstore\n        /* \"#utility.yul\":2000:2010   */\n      dup3\n      add\n        /* \"#utility.yul\":1971:2112   */\n      jump(tag_41)\n    tag_43:\n        /* \"#utility.yul\":1975:1978   */\n      pop\n        /* \"#utility.yul\":2162:2163   */\n      0x00\n        /* \"#utility.yul\":2156:2159   */\n      0x80\n        /* \"#utility.yul\":2147:2153   */\n      dup3\n        /* \"#utility.yul\":2136:2145   */\n      dup7\n        /* \"#utility.yul\":2132:2154   */\n      add\n        /* \"#utility.yul\":2128:2160   */\n      add\n        /* \"#utility.yul\":2121:2164   */\n      mstore\n        /* \"#utility.yul\":2232:2235   */\n      0x80\n        /* \"#utility.yul\":2225:2227   */\n      0x1f\n        /* \"#utility.yul\":2221:2228   */\n      not\n        /* \"#utility.yul\":2216:2218   */\n      0x1f\n        /* \"#utility.yul\":2208:2214   */\n      dup4\n        /* \"#utility.yul\":2204:2219   */\n      add\n        /* \"#utility.yul\":2200:2229   */\n      and\n        /* \"#utility.yul\":2189:2198   */\n      dup6\n        /* \"#utility.yul\":2185:2230   */\n      add\n        /* \"#utility.yul\":2181:2236   */\n      add\n        /* \"#utility.yul\":2173:2236   */\n      swap3\n      pop\n      pop\n      pop\n        /* \"#utility.yul\":1523:2242   */\n      swap5\n      swap4\n      pop\n      pop\n      pop\n      pop\n      jump\t// out\n\n    auxdata: 0xa26469706673582212206e04f30cfb3e0ff742fadc76488a6f4a9e820907d3d9195f0d814368a66a4b8c64736f6c63430008150033\n}\n\nsub_1: assembly {\n        /* \"contracts/LoveDrop.sol\":462:4929  contract LoveDrop is ILoveDrop,Initializable {... */\n      mstore(0x40, 0x80)\n      callvalue\n      dup1\n      iszero\n      tag_1\n      jumpi\n      0x00\n      dup1\n      revert\n    tag_1:\n      pop\n      dataSize(sub_0)\n      dup1\n      dataOffset(sub_0)\n      0x00\n      codecopy\n      0x00\n      return\n    stop\n\n    sub_0: assembly {\n            /* \"contracts/LoveDrop.sol\":462:4929  contract LoveDrop is ILoveDrop,Initializable {... */\n          mstore(0x40, 0x80)\n          callvalue\n          dup1\n          iszero\n          tag_1\n          jumpi\n          0x00\n          dup1\n          revert\n        tag_1:\n          pop\n          jumpi(tag_2, lt(calldatasize, 0x04))\n          shr(0xe0, calldataload(0x00))\n          dup1\n          0x562beba8\n          gt\n          tag_10\n          jumpi\n          dup1\n          0x562beba8\n          eq\n          tag_6\n          jumpi\n          dup1\n          0x8d0be996\n          eq\n          tag_7\n          jumpi\n          dup1\n          0xb73e0e8b\n          eq\n          tag_8\n          jumpi\n          dup1\n          0xf0e32164\n          eq\n          tag_9\n          jumpi\n          0x00\n          dup1\n          revert\n        tag_10:\n          dup1\n          0x2ade842f\n          eq\n          tag_3\n          jumpi\n          dup1\n          0x2eb4a7ab\n          eq\n          tag_4\n          jumpi\n          dup1\n          0x467ff8ed\n          eq\n          tag_5\n          jumpi\n        tag_2:\n          0x00\n          dup1\n          revert\n            /* \"contracts/LoveDrop.sol\":4205:4927  function claimMultiple(... */\n        tag_3:\n          tag_11\n          tag_12\n          calldatasize\n          0x04\n          tag_13\n          jump\t// in\n        tag_12:\n          tag_14\n          jump\t// in\n        tag_11:\n          stop\n            /* \"contracts/LoveDrop.sol\":638:672  bytes32 public override merkleRoot */\n        tag_4:\n          tag_15\n          sload(0x03)\n          dup2\n          jump\n        tag_15:\n          mload(0x40)\n            /* \"#utility.yul\":2254:2279   */\n          swap1\n          dup2\n          mstore\n            /* \"#utility.yul\":2242:2244   */\n          0x20\n            /* \"#utility.yul\":2227:2245   */\n          add\n            /* \"contracts/LoveDrop.sol\":638:672  bytes32 public override merkleRoot */\n        tag_17:\n          mload(0x40)\n          dup1\n          swap2\n          sub\n          swap1\n          return\n            /* \"contracts/LoveDrop.sol\":2417:2845  function claim(... */\n        tag_5:\n          tag_11\n          tag_20\n          calldatasize\n          0x04\n          tag_21\n          jump\t// in\n        tag_20:\n          tag_22\n          jump\t// in\n            /* \"contracts/LoveDrop.sol\":1427:1808  function isClaimed(... */\n        tag_6:\n          tag_23\n          tag_24\n          calldatasize\n          0x04\n          tag_25\n          jump\t// in\n        tag_24:\n          tag_26\n          jump\t// in\n        tag_23:\n          mload(0x40)\n            /* \"#utility.yul\":3625:3639   */\n          swap1\n          iszero\n            /* \"#utility.yul\":3618:3640   */\n          iszero\n            /* \"#utility.yul\":3600:3641   */\n          dup2\n          mstore\n            /* \"#utility.yul\":3588:3590   */\n          0x20\n            /* \"#utility.yul\":3573:3591   */\n          add\n            /* \"contracts/LoveDrop.sol\":1427:1808  function isClaimed(... */\n          tag_17\n            /* \"#utility.yul\":3460:3647   */\n          jump\n            /* \"contracts/LoveDrop.sol\":546:582  string public override claimDataIpfs */\n        tag_7:\n          tag_29\n          tag_30\n          jump\t// in\n        tag_29:\n          mload(0x40)\n          tag_17\n          swap2\n          swap1\n          tag_32\n          jump\t// in\n            /* \"contracts/LoveDrop.sol\":589:632  address public override airdropTokenAddress */\n        tag_8:\n          sload(0x02)\n          tag_33\n          swap1\n          sub(shl(0xa0, 0x01), 0x01)\n          and\n          dup2\n          jump\n        tag_33:\n          mload(0x40)\n          sub(shl(0xa0, 0x01), 0x01)\n            /* \"#utility.yul\":4369:4401   */\n          swap1\n          swap2\n          and\n            /* \"#utility.yul\":4351:4402   */\n          dup2\n          mstore\n            /* \"#utility.yul\":4339:4341   */\n          0x20\n            /* \"#utility.yul\":4324:4342   */\n          add\n            /* \"contracts/LoveDrop.sol\":589:632  address public override airdropTokenAddress */\n          tag_17\n            /* \"#utility.yul\":4205:4408   */\n          jump\n            /* \"contracts/LoveDrop.sol\":835:1088  function initialize(address _airdropTokenAddress, bytes32 _merkleRoot, string memory _claimDataIpfs) public initializer {... */\n        tag_9:\n          tag_11\n          tag_38\n          calldatasize\n          0x04\n          tag_39\n          jump\t// in\n        tag_38:\n          tag_40\n          jump\t// in\n            /* \"contracts/LoveDrop.sol\":4205:4927  function claimMultiple(... */\n        tag_14:\n            /* \"contracts/LoveDrop.sol\":4446:4469  bytes32[] memory leaves */\n          0x00\n            /* \"contracts/LoveDrop.sol\":4483:4502  uint256 totalAmount */\n          dup1\n            /* \"contracts/LoveDrop.sol\":4515:4569  _buildLeavesAndTotalAmount(ids, amounts, nftAddresses) */\n          tag_42\n            /* \"contracts/LoveDrop.sol\":4542:4545  ids */\n          dup9\n          dup9\n            /* \"contracts/LoveDrop.sol\":4547:4554  amounts */\n          dup9\n          dup9\n            /* \"contracts/LoveDrop.sol\":4556:4568  nftAddresses */\n          dup9\n          dup9\n            /* \"contracts/LoveDrop.sol\":4515:4541  _buildLeavesAndTotalAmount */\n          tag_43\n            /* \"contracts/LoveDrop.sol\":4515:4569  _buildLeavesAndTotalAmount(ids, amounts, nftAddresses) */\n          jump\t// in\n        tag_42:\n            /* \"contracts/LoveDrop.sol\":4432:4569  (... */\n          swap2\n          pop\n          swap2\n          pop\n            /* \"contracts/LoveDrop.sol\":4597:4752  MerkleProof.multiProofVerifyCalldata(... */\n          tag_44\n            /* \"contracts/LoveDrop.sol\":4651:4657  _proof */\n          dup13\n          dup13\n            /* \"contracts/LoveDrop.sol\":4675:4686  _proofFlags */\n          dup13\n          dup13\n            /* \"contracts/LoveDrop.sol\":4704:4714  merkleRoot */\n          sload(0x03)\n            /* \"contracts/LoveDrop.sol\":4732:4738  leaves */\n          dup8\n            /* \"contracts/LoveDrop.sol\":4597:4633  MerkleProof.multiProofVerifyCalldata */\n          tag_45\n            /* \"contracts/LoveDrop.sol\":4597:4752  MerkleProof.multiProofVerifyCalldata(... */\n          jump\t// in\n        tag_44:\n            /* \"contracts/LoveDrop.sol\":4579:4784  if (... */\n          tag_46\n          jumpi\n            /* \"contracts/LoveDrop.sol\":4770:4784  InvalidProof() */\n          mload(0x40)\n          shl(0xe0, 0x09bde339)\n          dup2\n          mstore\n          0x04\n          add\n          mload(0x40)\n          dup1\n          swap2\n          sub\n          swap1\n          revert\n            /* \"contracts/LoveDrop.sol\":4579:4784  if (... */\n        tag_46:\n            /* \"contracts/LoveDrop.sol\":4802:4821  airdropTokenAddress */\n          sload(0x02)\n            /* \"contracts/LoveDrop.sol\":4795:4865  IERC20(airdropTokenAddress).transfer(address(msg.sender), totalAmount) */\n          mload(0x40)\n          shl(0xe0, 0xa9059cbb)\n          dup2\n          mstore\n            /* \"contracts/LoveDrop.sol\":4840:4850  msg.sender */\n          caller\n            /* \"contracts/LoveDrop.sol\":4795:4865  IERC20(airdropTokenAddress).transfer(address(msg.sender), totalAmount) */\n          0x04\n          dup3\n          add\n            /* \"#utility.yul\":5849:5900   */\n          mstore\n            /* \"#utility.yul\":5916:5934   */\n          0x24\n          dup2\n          add\n            /* \"#utility.yul\":5909:5943   */\n          dup4\n          swap1\n          mstore\n          sub(shl(0xa0, 0x01), 0x01)\n            /* \"contracts/LoveDrop.sol\":4802:4821  airdropTokenAddress */\n          swap1\n          swap2\n          and\n          swap1\n            /* \"contracts/LoveDrop.sol\":4795:4831  IERC20(airdropTokenAddress).transfer */\n          0xa9059cbb\n          swap1\n            /* \"#utility.yul\":5822:5840   */\n          0x44\n          add\n            /* \"contracts/LoveDrop.sol\":4795:4865  IERC20(airdropTokenAddress).transfer(address(msg.sender), totalAmount) */\n          0x20\n          mload(0x40)\n          dup1\n          dup4\n          sub\n          dup2\n          0x00\n          dup8\n          gas\n          call\n          iszero\n          dup1\n          iszero\n          tag_50\n          jumpi\n          returndatasize\n          0x00\n          dup1\n          returndatacopy\n          revert(0x00, returndatasize)\n        tag_50:\n          pop\n          pop\n          pop\n          pop\n          mload(0x40)\n          returndatasize\n          not(0x1f)\n          0x1f\n          dup3\n          add\n          and\n          dup3\n          add\n          dup1\n          0x40\n          mstore\n          pop\n          dup2\n          add\n          swap1\n          tag_51\n          swap2\n          swap1\n          tag_52\n          jump\t// in\n        tag_51:\n          pop\n            /* \"contracts/LoveDrop.sol\":4880:4920  ClaimedMulti(ids, amounts, nftAddresses) */\n          0x823ba58ceffeeaa30fa8e38650dcb17b37601bdc5937d29da4be31a665c818d2\n            /* \"contracts/LoveDrop.sol\":4893:4896  ids */\n          dup9\n          dup9\n            /* \"contracts/LoveDrop.sol\":4898:4905  amounts */\n          dup9\n          dup9\n            /* \"contracts/LoveDrop.sol\":4907:4919  nftAddresses */\n          dup9\n          dup9\n            /* \"contracts/LoveDrop.sol\":4880:4920  ClaimedMulti(ids, amounts, nftAddresses) */\n          mload(0x40)\n          tag_53\n          swap7\n          swap6\n          swap5\n          swap4\n          swap3\n          swap2\n          swap1\n          tag_54\n          jump\t// in\n        tag_53:\n          mload(0x40)\n          dup1\n          swap2\n          sub\n          swap1\n          log1\n            /* \"contracts/LoveDrop.sol\":4422:4927  {... */\n          pop\n          pop\n            /* \"contracts/LoveDrop.sol\":4205:4927  function claimMultiple(... */\n          pop\n          pop\n          pop\n          pop\n          pop\n          pop\n          pop\n          pop\n          pop\n          pop\n          jump\t// out\n            /* \"contracts/LoveDrop.sol\":2417:2845  function claim(... */\n        tag_22:\n            /* \"contracts/LoveDrop.sol\":2584:2632  verifyClaim(nftAddress, id, amount, merkleProof) */\n          tag_56\n            /* \"contracts/LoveDrop.sol\":2596:2606  nftAddress */\n          dup2\n            /* \"contracts/LoveDrop.sol\":2608:2610  id */\n          dup5\n            /* \"contracts/LoveDrop.sol\":2612:2618  amount */\n          dup5\n            /* \"contracts/LoveDrop.sol\":2620:2631  merkleProof */\n          dup9\n          dup9\n            /* \"contracts/LoveDrop.sol\":2584:2595  verifyClaim */\n          tag_57\n            /* \"contracts/LoveDrop.sol\":2584:2632  verifyClaim(nftAddress, id, amount, merkleProof) */\n          jump\t// in\n        tag_56:\n            /* \"contracts/LoveDrop.sol\":2690:2717  _setClaimed(nftAddress, id) */\n          tag_58\n            /* \"contracts/LoveDrop.sol\":2702:2712  nftAddress */\n          dup2\n            /* \"contracts/LoveDrop.sol\":2714:2716  id */\n          dup5\n            /* \"contracts/LoveDrop.sol\":2690:2701  _setClaimed */\n          tag_59\n            /* \"contracts/LoveDrop.sol\":2690:2717  _setClaimed(nftAddress, id) */\n          jump\t// in\n        tag_58:\n            /* \"contracts/LoveDrop.sol\":2734:2753  airdropTokenAddress */\n          sload(0x02)\n            /* \"contracts/LoveDrop.sol\":2727:2792  IERC20(airdropTokenAddress).transfer(address(msg.sender), amount) */\n          mload(0x40)\n          shl(0xe0, 0xa9059cbb)\n          dup2\n          mstore\n            /* \"contracts/LoveDrop.sol\":2772:2782  msg.sender */\n          caller\n            /* \"contracts/LoveDrop.sol\":2727:2792  IERC20(airdropTokenAddress).transfer(address(msg.sender), amount) */\n          0x04\n          dup3\n          add\n            /* \"#utility.yul\":5849:5900   */\n          mstore\n            /* \"#utility.yul\":5916:5934   */\n          0x24\n          dup2\n          add\n            /* \"#utility.yul\":5909:5943   */\n          dup5\n          swap1\n          mstore\n          sub(shl(0xa0, 0x01), 0x01)\n            /* \"contracts/LoveDrop.sol\":2734:2753  airdropTokenAddress */\n          swap1\n          swap2\n          and\n          swap1\n            /* \"contracts/LoveDrop.sol\":2727:2763  IERC20(airdropTokenAddress).transfer */\n          0xa9059cbb\n          swap1\n            /* \"#utility.yul\":5822:5840   */\n          0x44\n          add\n            /* \"contracts/LoveDrop.sol\":2727:2792  IERC20(airdropTokenAddress).transfer(address(msg.sender), amount) */\n          0x20\n          mload(0x40)\n          dup1\n          dup4\n          sub\n          dup2\n          0x00\n          dup8\n          gas\n          call\n          iszero\n          dup1\n          iszero\n          tag_62\n          jumpi\n          returndatasize\n          0x00\n          dup1\n          returndatacopy\n          revert(0x00, returndatasize)\n        tag_62:\n          pop\n          pop\n          pop\n          pop\n          mload(0x40)\n          returndatasize\n          not(0x1f)\n          0x1f\n          dup3\n          add\n          and\n          dup3\n          add\n          dup1\n          0x40\n          mstore\n          pop\n          dup2\n          add\n          swap1\n          tag_63\n          swap2\n          swap1\n          tag_52\n          jump\t// in\n        tag_63:\n          pop\n            /* \"contracts/LoveDrop.sol\":2807:2838  Claimed(id, amount, nftAddress) */\n          0x40\n          dup1\n          mload\n            /* \"#utility.yul\":7985:8010   */\n          dup5\n          dup2\n          mstore\n            /* \"#utility.yul\":8041:8043   */\n          0x20\n            /* \"#utility.yul\":8026:8044   */\n          dup2\n          add\n            /* \"#utility.yul\":8019:8053   */\n          dup5\n          swap1\n          mstore\n          sub(shl(0xa0, 0x01), 0x01)\n            /* \"#utility.yul\":8089:8121   */\n          dup4\n          and\n            /* \"#utility.yul\":8069:8087   */\n          dup2\n          dup4\n          add\n            /* \"#utility.yul\":8062:8122   */\n          mstore\n            /* \"contracts/LoveDrop.sol\":2807:2838  Claimed(id, amount, nftAddress) */\n          swap1\n          mload\n          0xc09f7b3c1c5b70bf6d30e485a4525d625d4723aed5d319376825446ef135c7ca\n          swap2\n          dup2\n          swap1\n          sub\n            /* \"#utility.yul\":7973:7975   */\n          0x60\n            /* \"contracts/LoveDrop.sol\":2807:2838  Claimed(id, amount, nftAddress) */\n          add\n          swap1\n          log1\n            /* \"contracts/LoveDrop.sol\":2417:2845  function claim(... */\n          pop\n          pop\n          pop\n          pop\n          pop\n          jump\t// out\n            /* \"contracts/LoveDrop.sol\":1427:1808  function isClaimed(... */\n        tag_26:\n            /* \"contracts/LoveDrop.sol\":1530:1534  bool */\n          0x00\n          dup1\n            /* \"contracts/LoveDrop.sol\":1573:1581  id / 256 */\n          tag_67\n            /* \"contracts/LoveDrop.sol\":1578:1581  256 */\n          0x0100\n            /* \"contracts/LoveDrop.sol\":1573:1575  id */\n          dup5\n            /* \"contracts/LoveDrop.sol\":1573:1581  id / 256 */\n          tag_68\n          jump\t// in\n        tag_67:\n            /* \"contracts/LoveDrop.sol\":1546:1581  uint256 claimedWordIndex = id / 256 */\n          swap1\n          pop\n            /* \"contracts/LoveDrop.sol\":1591:1614  uint256 claimedBitIndex */\n          0x00\n            /* \"contracts/LoveDrop.sol\":1617:1625  id % 256 */\n          tag_69\n            /* \"contracts/LoveDrop.sol\":1622:1625  256 */\n          0x0100\n            /* \"contracts/LoveDrop.sol\":1617:1619  id */\n          dup6\n            /* \"contracts/LoveDrop.sol\":1617:1625  id % 256 */\n          tag_70\n          jump\t// in\n        tag_69:\n          sub(shl(0xa0, 0x01), 0x01)\n            /* \"contracts/LoveDrop.sol\":1657:1693  claimedBitMapPerNftIndex[nftAddress] */\n          dup7\n          and\n            /* \"contracts/LoveDrop.sol\":1635:1654  uint256 claimedWord */\n          0x00\n            /* \"contracts/LoveDrop.sol\":1657:1693  claimedBitMapPerNftIndex[nftAddress] */\n          swap1\n          dup2\n          mstore\n            /* \"contracts/LoveDrop.sol\":1657:1681  claimedBitMapPerNftIndex */\n          0x04\n            /* \"contracts/LoveDrop.sol\":1657:1693  claimedBitMapPerNftIndex[nftAddress] */\n          0x20\n          swap1\n          dup2\n          mstore\n          0x40\n          dup1\n          dup4\n          keccak256\n            /* \"contracts/LoveDrop.sol\":1657:1711  claimedBitMapPerNftIndex[nftAddress][claimedWordIndex] */\n          swap6\n          dup4\n          mstore\n          swap5\n          swap1\n          mstore\n          swap3\n          swap1\n          swap3\n          keccak256\n          sload\n            /* \"contracts/LoveDrop.sol\":1737:1738  1 */\n          0x01\n            /* \"contracts/LoveDrop.sol\":1737:1757  1 << claimedBitIndex */\n          swap1\n          swap3\n          shl\n            /* \"contracts/LoveDrop.sol\":1775:1793  claimedWord & mask */\n          swap2\n          dup3\n          and\n            /* \"contracts/LoveDrop.sol\":1775:1801  claimedWord & mask == mask */\n          swap1\n          swap2\n          eq\n          swap2\n          pop\n          pop\n            /* \"contracts/LoveDrop.sol\":1427:1808  function isClaimed(... */\n        tag_66:\n          swap3\n          swap2\n          pop\n          pop\n          jump\t// out\n            /* \"contracts/LoveDrop.sol\":546:582  string public override claimDataIpfs */\n        tag_30:\n          0x01\n          dup1\n          sload\n          tag_71\n          swap1\n          tag_72\n          jump\t// in\n        tag_71:\n          dup1\n          0x1f\n          add\n          0x20\n          dup1\n          swap2\n          div\n          mul\n          0x20\n          add\n          mload(0x40)\n          swap1\n          dup2\n          add\n          0x40\n          mstore\n          dup1\n          swap3\n          swap2\n          swap1\n          dup2\n          dup2\n          mstore\n          0x20\n          add\n          dup3\n          dup1\n          sload\n          tag_73\n          swap1\n          tag_72\n          jump\t// in\n        tag_73:\n          dup1\n          iszero\n          tag_74\n          jumpi\n          dup1\n          0x1f\n          lt\n          tag_75\n          jumpi\n          0x0100\n          dup1\n          dup4\n          sload\n          div\n          mul\n          dup4\n          mstore\n          swap2\n          0x20\n          add\n          swap2\n          jump(tag_74)\n        tag_75:\n          dup3\n          add\n          swap2\n          swap1\n          0x00\n          mstore\n          keccak256(0x00, 0x20)\n          swap1\n        tag_76:\n          dup2\n          sload\n          dup2\n          mstore\n          swap1\n          0x01\n          add\n          swap1\n          0x20\n          add\n          dup1\n          dup4\n          gt\n          tag_76\n          jumpi\n          dup3\n          swap1\n          sub\n          0x1f\n          and\n          dup3\n          add\n          swap2\n        tag_74:\n          pop\n          pop\n          pop\n          pop\n          pop\n          dup2\n          jump\t// out\n            /* \"contracts/LoveDrop.sol\":835:1088  function initialize(address _airdropTokenAddress, bytes32 _merkleRoot, string memory _claimDataIpfs) public initializer {... */\n        tag_40:\n            /* \"@openzeppelin/contracts/proxy/utils/Initializable.sol\":3268:3287  bool isTopLevelCall */\n          0x00\n            /* \"@openzeppelin/contracts/proxy/utils/Initializable.sol\":3291:3304  _initializing */\n          sload\n          0x0100\n          swap1\n          div\n          0xff\n          and\n            /* \"@openzeppelin/contracts/proxy/utils/Initializable.sol\":3290:3304  !_initializing */\n          iszero\n          dup1\n            /* \"@openzeppelin/contracts/proxy/utils/Initializable.sol\":3336:3370  isTopLevelCall && _initialized < 1 */\n          dup1\n          iszero\n          tag_78\n          jumpi\n          pop\n            /* \"@openzeppelin/contracts/proxy/utils/Initializable.sol\":3354:3366  _initialized */\n          sload(0x00)\n            /* \"@openzeppelin/contracts/proxy/utils/Initializable.sol\":3369:3370  1 */\n          0x01\n            /* \"@openzeppelin/contracts/proxy/utils/Initializable.sol\":3354:3366  _initialized */\n          0xff\n          swap1\n          swap2\n          and\n            /* \"@openzeppelin/contracts/proxy/utils/Initializable.sol\":3354:3370  _initialized < 1 */\n          lt\n            /* \"@openzeppelin/contracts/proxy/utils/Initializable.sol\":3336:3370  isTopLevelCall && _initialized < 1 */\n        tag_78:\n            /* \"@openzeppelin/contracts/proxy/utils/Initializable.sol\":3335:3432  (isTopLevelCall && _initialized < 1) || (!Address.isContract(address(this)) && _initialized == 1) */\n          dup1\n          tag_82\n          jumpi\n          pop\n            /* \"@openzeppelin/contracts/proxy/utils/Initializable.sol\":3404:3408  this */\n          address\n            /* \"@openzeppelin/contracts/utils/Address.sol\":1702:1721  account.code.length */\n          extcodesize\n            /* \"@openzeppelin/contracts/utils/Address.sol\":1702:1725  account.code.length > 0 */\n          iszero\n          dup1\n          iszero\n            /* \"@openzeppelin/contracts/proxy/utils/Initializable.sol\":3376:3431  !Address.isContract(address(this)) && _initialized == 1 */\n          tag_82\n          jumpi\n          pop\n            /* \"@openzeppelin/contracts/proxy/utils/Initializable.sol\":3414:3426  _initialized */\n          and(0xff, sload(0x00))\n          0x01\n            /* \"@openzeppelin/contracts/proxy/utils/Initializable.sol\":3414:3431  _initialized == 1 */\n          eq\n            /* \"@openzeppelin/contracts/proxy/utils/Initializable.sol\":3376:3431  !Address.isContract(address(this)) && _initialized == 1 */\n        tag_82:\n            /* \"@openzeppelin/contracts/proxy/utils/Initializable.sol\":3314:3504  require(... */\n          tag_83\n          jumpi\n          mload(0x40)\n          shl(0xe5, 0x461bcd)\n          dup2\n          mstore\n            /* \"#utility.yul\":9226:9228   */\n          0x20\n            /* \"@openzeppelin/contracts/proxy/utils/Initializable.sol\":3314:3504  require(... */\n          0x04\n          dup3\n          add\n            /* \"#utility.yul\":9208:9229   */\n          mstore\n            /* \"#utility.yul\":9265:9267   */\n          0x2e\n            /* \"#utility.yul\":9245:9263   */\n          0x24\n          dup3\n          add\n            /* \"#utility.yul\":9238:9268   */\n          mstore\n            /* \"#utility.yul\":9304:9338   */\n          0x496e697469616c697a61626c653a20636f6e747261637420697320616c726561\n            /* \"#utility.yul\":9284:9302   */\n          0x44\n          dup3\n          add\n            /* \"#utility.yul\":9277:9339   */\n          mstore\n          shl(0x92, 0x191e481a5b9a5d1a585b1a5e9959)\n            /* \"#utility.yul\":9355:9373   */\n          0x64\n          dup3\n          add\n            /* \"#utility.yul\":9348:9392   */\n          mstore\n            /* \"#utility.yul\":9409:9428   */\n          0x84\n          add\n            /* \"@openzeppelin/contracts/proxy/utils/Initializable.sol\":3314:3504  require(... */\n        tag_84:\n          mload(0x40)\n          dup1\n          swap2\n          sub\n          swap1\n          revert\n        tag_83:\n            /* \"@openzeppelin/contracts/proxy/utils/Initializable.sol\":3514:3526  _initialized */\n          0x00\n            /* \"@openzeppelin/contracts/proxy/utils/Initializable.sol\":3514:3530  _initialized = 1 */\n          dup1\n          sload\n          not(0xff)\n          and\n            /* \"@openzeppelin/contracts/proxy/utils/Initializable.sol\":3529:3530  1 */\n          0x01\n            /* \"@openzeppelin/contracts/proxy/utils/Initializable.sol\":3514:3530  _initialized = 1 */\n          or\n          swap1\n          sstore\n            /* \"@openzeppelin/contracts/proxy/utils/Initializable.sol\":3540:3605  if (isTopLevelCall) {... */\n          dup1\n          iszero\n          tag_86\n          jumpi\n            /* \"@openzeppelin/contracts/proxy/utils/Initializable.sol\":3574:3587  _initializing */\n          0x00\n            /* \"@openzeppelin/contracts/proxy/utils/Initializable.sol\":3574:3594  _initializing = true */\n          dup1\n          sload\n          not(0xff00)\n          and\n          0x0100\n          or\n          swap1\n          sstore\n            /* \"@openzeppelin/contracts/proxy/utils/Initializable.sol\":3540:3605  if (isTopLevelCall) {... */\n        tag_86:\n            /* \"contracts/LoveDrop.sol\":965:984  airdropTokenAddress */\n          0x02\n            /* \"contracts/LoveDrop.sol\":965:1007  airdropTokenAddress = _airdropTokenAddress */\n          dup1\n          sload\n          not(sub(shl(0xa0, 0x01), 0x01))\n          and\n          sub(shl(0xa0, 0x01), 0x01)\n          dup7\n          and\n          or\n          swap1\n          sstore\n            /* \"contracts/LoveDrop.sol\":1017:1027  merkleRoot */\n          0x03\n            /* \"contracts/LoveDrop.sol\":1017:1041  merkleRoot = _merkleRoot */\n          dup4\n          swap1\n          sstore\n          0x01\n            /* \"contracts/LoveDrop.sol\":1051:1081  claimDataIpfs = _claimDataIpfs */\n          tag_88\n            /* \"contracts/LoveDrop.sol\":1067:1081  _claimDataIpfs */\n          dup4\n          dup3\n            /* \"contracts/LoveDrop.sol\":1051:1081  claimDataIpfs = _claimDataIpfs */\n          tag_89\n          jump\t// in\n        tag_88:\n          pop\n            /* \"@openzeppelin/contracts/proxy/utils/Initializable.sol\":3629:3643  isTopLevelCall */\n          dup1\n            /* \"@openzeppelin/contracts/proxy/utils/Initializable.sol\":3625:3724  if (isTopLevelCall) {... */\n          iszero\n          tag_90\n          jumpi\n            /* \"@openzeppelin/contracts/proxy/utils/Initializable.sol\":3675:3680  false */\n          0x00\n            /* \"@openzeppelin/contracts/proxy/utils/Initializable.sol\":3659:3680  _initializing = false */\n          dup1\n          sload\n          not(0xff00)\n          and\n          swap1\n          sstore\n            /* \"@openzeppelin/contracts/proxy/utils/Initializable.sol\":3699:3713  Initialized(1) */\n          mload(0x40)\n          0x01\n            /* \"#utility.yul\":11795:11831   */\n          dup2\n          mstore\n            /* \"@openzeppelin/contracts/proxy/utils/Initializable.sol\":3699:3713  Initialized(1) */\n          0x7f26b83ff96e1f2b6a682f133852f6798a09c465da95921460cefb3847402498\n          swap1\n            /* \"#utility.yul\":11783:11785   */\n          0x20\n            /* \"#utility.yul\":11768:11786   */\n          add\n            /* \"@openzeppelin/contracts/proxy/utils/Initializable.sol\":3699:3713  Initialized(1) */\n          mload(0x40)\n          dup1\n          swap2\n          sub\n          swap1\n          log1\n            /* \"@openzeppelin/contracts/proxy/utils/Initializable.sol\":3625:3724  if (isTopLevelCall) {... */\n        tag_90:\n            /* \"@openzeppelin/contracts/proxy/utils/Initializable.sol\":3258:3730  {... */\n          pop\n            /* \"contracts/LoveDrop.sol\":835:1088  function initialize(address _airdropTokenAddress, bytes32 _merkleRoot, string memory _claimDataIpfs) public initializer {... */\n          pop\n          pop\n          pop\n          jump\t// out\n            /* \"contracts/LoveDrop.sol\":2851:4199  function _buildLeavesAndTotalAmount(... */\n        tag_43:\n            /* \"contracts/LoveDrop.sol\":3019:3035  bytes32[] memory */\n          0x60\n            /* \"contracts/LoveDrop.sol\":3037:3044  uint256 */\n          0x00\n            /* \"contracts/LoveDrop.sol\":3076:3079  ids */\n          dup7\n            /* \"contracts/LoveDrop.sol\":3288:3315  idsLenght == amounts.length */\n          dup6\n          dup2\n          eq\n            /* \"contracts/LoveDrop.sol\":3267:3388  require(... */\n          tag_94\n          jumpi\n          mload(0x40)\n          shl(0xe5, 0x461bcd)\n          dup2\n          mstore\n            /* \"#utility.yul\":12044:12046   */\n          0x20\n            /* \"contracts/LoveDrop.sol\":3267:3388  require(... */\n          0x04\n          dup3\n          add\n            /* \"#utility.yul\":12026:12047   */\n          mstore\n            /* \"#utility.yul\":12083:12085   */\n          0x2f\n            /* \"#utility.yul\":12063:12081   */\n          0x24\n          dup3\n          add\n            /* \"#utility.yul\":12056:12086   */\n          mstore\n            /* \"#utility.yul\":12122:12156   */\n          0x6c656e677468206f662069647320616e6420616d6f756e747320617272617920\n            /* \"#utility.yul\":12102:12120   */\n          0x44\n          dup3\n          add\n            /* \"#utility.yul\":12095:12157   */\n          mstore\n          shl(0x88, 0x6973206e6f74207468652073616d65)\n            /* \"#utility.yul\":12173:12191   */\n          0x64\n          dup3\n          add\n            /* \"#utility.yul\":12166:12211   */\n          mstore\n            /* \"#utility.yul\":12228:12247   */\n          0x84\n          add\n            /* \"contracts/LoveDrop.sol\":3267:3388  require(... */\n          tag_84\n            /* \"#utility.yul\":11842:12253   */\n          jump\n            /* \"contracts/LoveDrop.sol\":3267:3388  require(... */\n        tag_94:\n            /* \"contracts/LoveDrop.sol\":3398:3417  uint256 totalAmount */\n          0x00\n            /* \"contracts/LoveDrop.sol\":3431:3454  bytes32[] memory leaves */\n          dup1\n            /* \"contracts/LoveDrop.sol\":3471:3480  idsLenght */\n          dup3\n            /* \"contracts/LoveDrop.sol\":3457:3481  new bytes32[](idsLenght) */\n          0xffffffffffffffff\n          dup2\n          gt\n          iszero\n          tag_98\n          jumpi\n          tag_98\n          tag_99\n          jump\t// in\n        tag_98:\n          mload(0x40)\n          swap1\n          dup1\n          dup3\n          mstore\n          dup1\n          0x20\n          mul\n          0x20\n          add\n          dup3\n          add\n          0x40\n          mstore\n          dup1\n          iszero\n          tag_100\n          jumpi\n          dup2\n          0x20\n          add\n          0x20\n          dup3\n          mul\n          dup1\n          calldatasize\n          dup4\n          calldatacopy\n          add\n          swap1\n          pop\n        tag_100:\n          pop\n            /* \"contracts/LoveDrop.sol\":3431:3481  bytes32[] memory leaves = new bytes32[](idsLenght) */\n          swap1\n          pop\n            /* \"contracts/LoveDrop.sol\":3497:3510  uint256 index */\n          0x00\n            /* \"contracts/LoveDrop.sol\":3492:4154  for (uint256 index = 0; index < idsLenght; index++) {... */\n        tag_101:\n            /* \"contracts/LoveDrop.sol\":3524:3533  idsLenght */\n          dup4\n            /* \"contracts/LoveDrop.sol\":3516:3521  index */\n          dup2\n            /* \"contracts/LoveDrop.sol\":3516:3533  index < idsLenght */\n          lt\n            /* \"contracts/LoveDrop.sol\":3492:4154  for (uint256 index = 0; index < idsLenght; index++) {... */\n          iszero\n          tag_102\n          jumpi\n            /* \"contracts/LoveDrop.sol\":3558:3572  uint256 amount */\n          0x00\n            /* \"contracts/LoveDrop.sol\":3575:3582  amounts */\n          dup11\n          dup11\n            /* \"contracts/LoveDrop.sol\":3583:3588  index */\n          dup4\n            /* \"contracts/LoveDrop.sol\":3575:3589  amounts[index] */\n          dup2\n          dup2\n          lt\n          tag_105\n          jumpi\n          tag_105\n          tag_106\n          jump\t// in\n        tag_105:\n          swap1\n          pop\n          0x20\n          mul\n          add\n          calldataload\n            /* \"contracts/LoveDrop.sol\":3558:3589  uint256 amount = amounts[index] */\n          swap1\n          pop\n            /* \"contracts/LoveDrop.sol\":3603:3613  uint256 id */\n          0x00\n            /* \"contracts/LoveDrop.sol\":3616:3619  ids */\n          dup14\n          dup14\n            /* \"contracts/LoveDrop.sol\":3620:3625  index */\n          dup5\n            /* \"contracts/LoveDrop.sol\":3616:3626  ids[index] */\n          dup2\n          dup2\n          lt\n          tag_108\n          jumpi\n          tag_108\n          tag_106\n          jump\t// in\n        tag_108:\n          swap1\n          pop\n          0x20\n          mul\n          add\n          calldataload\n            /* \"contracts/LoveDrop.sol\":3603:3626  uint256 id = ids[index] */\n          swap1\n          pop\n            /* \"contracts/LoveDrop.sol\":3640:3658  address nftAddress */\n          0x00\n            /* \"contracts/LoveDrop.sol\":3661:3673  nftAddresses */\n          dup11\n          dup11\n            /* \"contracts/LoveDrop.sol\":3674:3679  index */\n          dup6\n            /* \"contracts/LoveDrop.sol\":3661:3680  nftAddresses[index] */\n          dup2\n          dup2\n          lt\n          tag_110\n          jumpi\n          tag_110\n          tag_106\n          jump\t// in\n        tag_110:\n          swap1\n          pop\n          0x20\n          mul\n          add\n          0x20\n          dup2\n          add\n          swap1\n          tag_111\n          swap2\n          swap1\n          tag_112\n          jump\t// in\n        tag_111:\n            /* \"contracts/LoveDrop.sol\":3640:3680  address nftAddress = nftAddresses[index] */\n          swap1\n          pop\n            /* \"contracts/LoveDrop.sol\":3698:3723  isClaimed(nftAddress, id) */\n          tag_113\n            /* \"contracts/LoveDrop.sol\":3708:3718  nftAddress */\n          dup2\n            /* \"contracts/LoveDrop.sol\":3720:3722  id */\n          dup4\n            /* \"contracts/LoveDrop.sol\":3698:3707  isClaimed */\n          tag_26\n            /* \"contracts/LoveDrop.sol\":3698:3723  isClaimed(nftAddress, id) */\n          jump\t// in\n        tag_113:\n            /* \"contracts/LoveDrop.sol\":3694:3748  if (isClaimed(nftAddress, id)) revert AlreadyClaimed() */\n          iszero\n          tag_114\n          jumpi\n            /* \"contracts/LoveDrop.sol\":3732:3748  AlreadyClaimed() */\n          mload(0x40)\n          shl(0xe3, 0x0c8d9eab)\n          dup2\n          mstore\n          0x04\n          add\n          mload(0x40)\n          dup1\n          swap2\n          sub\n          swap1\n          revert\n            /* \"contracts/LoveDrop.sol\":3694:3748  if (isClaimed(nftAddress, id)) revert AlreadyClaimed() */\n        tag_114:\n            /* \"contracts/LoveDrop.sol\":3788:3819  IERC721(nftAddress).ownerOf(id) */\n          mload(0x40)\n          shl(0xe1, 0x31a9108f)\n          dup2\n          mstore\n          0x04\n          dup2\n          add\n            /* \"#utility.yul\":2254:2279   */\n          dup4\n          swap1\n          mstore\n            /* \"contracts/LoveDrop.sol\":3843:3853  msg.sender */\n          caller\n          swap1\n          sub(shl(0xa0, 0x01), 0x01)\n            /* \"contracts/LoveDrop.sol\":3788:3815  IERC721(nftAddress).ownerOf */\n          dup4\n          and\n          swap1\n          0x6352211e\n          swap1\n            /* \"#utility.yul\":2227:2245   */\n          0x24\n          add\n            /* \"contracts/LoveDrop.sol\":3788:3819  IERC721(nftAddress).ownerOf(id) */\n          0x20\n          mload(0x40)\n          dup1\n          dup4\n          sub\n          dup2\n          dup7\n          gas\n          staticcall\n          iszero\n          dup1\n          iszero\n          tag_118\n          jumpi\n          returndatasize\n          0x00\n          dup1\n          returndatacopy\n          revert(0x00, returndatasize)\n        tag_118:\n          pop\n          pop\n          pop\n          pop\n          mload(0x40)\n          returndatasize\n          not(0x1f)\n          0x1f\n          dup3\n          add\n          and\n          dup3\n          add\n          dup1\n          0x40\n          mstore\n          pop\n          dup2\n          add\n          swap1\n          tag_119\n          swap2\n          swap1\n          tag_120\n          jump\t// in\n        tag_119:\n          sub(shl(0xa0, 0x01), 0x01)\n            /* \"contracts/LoveDrop.sol\":3788:3853  IERC721(nftAddress).ownerOf(id) ==... */\n          and\n          eq\n            /* \"contracts/LoveDrop.sol\":3763:3935  require(... */\n          tag_121\n          jumpi\n          mload(0x40)\n          shl(0xe5, 0x461bcd)\n          dup2\n          mstore\n            /* \"#utility.yul\":13282:13284   */\n          0x20\n            /* \"contracts/LoveDrop.sol\":3763:3935  require(... */\n          0x04\n          dup3\n          add\n            /* \"#utility.yul\":13264:13285   */\n          mstore\n            /* \"#utility.yul\":13321:13323   */\n          0x30\n            /* \"#utility.yul\":13301:13319   */\n          0x24\n          dup3\n          add\n            /* \"#utility.yul\":13294:13324   */\n          mstore\n            /* \"#utility.yul\":13360:13394   */\n          0x6f6e65206f72206d6f7265206f66207468657365206e6674732069736e74206f\n            /* \"#utility.yul\":13340:13358   */\n          0x44\n          dup3\n          add\n            /* \"#utility.yul\":13333:13395   */\n          mstore\n          shl(0x82, 0x1ddb995908189e4818db185a5b585b9d)\n            /* \"#utility.yul\":13411:13429   */\n          0x64\n          dup3\n          add\n            /* \"#utility.yul\":13404:13450   */\n          mstore\n            /* \"#utility.yul\":13467:13486   */\n          0x84\n          add\n            /* \"contracts/LoveDrop.sol\":3763:3935  require(... */\n          tag_84\n            /* \"#utility.yul\":13080:13492   */\n          jump\n            /* \"contracts/LoveDrop.sol\":3763:3935  require(... */\n        tag_121:\n            /* \"contracts/LoveDrop.sol\":3950:3977  _setClaimed(nftAddress, id) */\n          tag_124\n            /* \"contracts/LoveDrop.sol\":3962:3972  nftAddress */\n          dup2\n            /* \"contracts/LoveDrop.sol\":3974:3976  id */\n          dup4\n            /* \"contracts/LoveDrop.sol\":3950:3961  _setClaimed */\n          tag_59\n            /* \"contracts/LoveDrop.sol\":3950:3977  _setClaimed(nftAddress, id) */\n          jump\t// in\n        tag_124:\n            /* \"contracts/LoveDrop.sol\":4058:4092  abi.encode(nftAddress, id, amount) */\n          0x40\n          dup1\n          mload\n          sub(shl(0xa0, 0x01), 0x01)\n            /* \"#utility.yul\":13717:13749   */\n          dup4\n          and\n            /* \"contracts/LoveDrop.sol\":4058:4092  abi.encode(nftAddress, id, amount) */\n          0x20\n          dup3\n          add\n            /* \"#utility.yul\":13699:13750   */\n          mstore\n            /* \"#utility.yul\":13766:13784   */\n          swap1\n          dup2\n          add\n            /* \"#utility.yul\":13759:13793   */\n          dup4\n          swap1\n          mstore\n            /* \"#utility.yul\":13809:13827   */\n          0x60\n          dup2\n          add\n            /* \"#utility.yul\":13802:13836   */\n          dup5\n          swap1\n          mstore\n            /* \"#utility.yul\":13672:13690   */\n          0x80\n          add\n            /* \"contracts/LoveDrop.sol\":4058:4092  abi.encode(nftAddress, id, amount) */\n          0x40\n          dup1\n          mload\n          not(0x1f)\n          dup2\n          dup5\n          sub\n          add\n          dup2\n          mstore\n          dup3\n          dup3\n          mstore\n            /* \"contracts/LoveDrop.sol\":4048:4093  keccak256(abi.encode(nftAddress, id, amount)) */\n          dup1\n          mload\n            /* \"contracts/LoveDrop.sol\":4058:4092  abi.encode(nftAddress, id, amount) */\n          0x20\n            /* \"contracts/LoveDrop.sol\":4048:4093  keccak256(abi.encode(nftAddress, id, amount)) */\n          swap2\n          dup3\n          add\n          keccak256\n            /* \"contracts/LoveDrop.sol\":4035:4094  bytes.concat(keccak256(abi.encode(nftAddress, id, amount))) */\n          swap1\n          dup4\n          add\n            /* \"#utility.yul\":13976:13995   */\n          mstore\n            /* \"#utility.yul\":14011:14023   */\n          add\n            /* \"contracts/LoveDrop.sol\":4035:4094  bytes.concat(keccak256(abi.encode(nftAddress, id, amount))) */\n          mload(0x40)\n          0x20\n          dup2\n          dup4\n          sub\n          sub\n          dup2\n          mstore\n          swap1\n          0x40\n          mstore\n            /* \"contracts/LoveDrop.sol\":4008:4108  keccak256(... */\n          dup1\n          mload\n          swap1\n          0x20\n          add\n          keccak256\n            /* \"contracts/LoveDrop.sol\":3992:3998  leaves */\n          dup6\n            /* \"contracts/LoveDrop.sol\":3999:4004  index */\n          dup6\n            /* \"contracts/LoveDrop.sol\":3992:4005  leaves[index] */\n          dup2\n          mload\n          dup2\n          lt\n          tag_130\n          jumpi\n          tag_130\n          tag_106\n          jump\t// in\n        tag_130:\n          0x20\n          swap1\n          dup2\n          mul\n          swap2\n          swap1\n          swap2\n          add\n          add\n            /* \"contracts/LoveDrop.sol\":3992:4108  leaves[index] = keccak256(... */\n          mstore\n            /* \"contracts/LoveDrop.sol\":4122:4143  totalAmount += amount */\n          tag_131\n            /* \"contracts/LoveDrop.sol\":4137:4143  amount */\n          dup4\n            /* \"contracts/LoveDrop.sol\":4122:4143  totalAmount += amount */\n          dup8\n          tag_132\n          jump\t// in\n        tag_131:\n          swap6\n          pop\n            /* \"contracts/LoveDrop.sol\":3544:4154  {... */\n          pop\n          pop\n          pop\n            /* \"contracts/LoveDrop.sol\":3535:3542  index++ */\n          dup1\n          dup1\n          tag_133\n          swap1\n          tag_134\n          jump\t// in\n        tag_133:\n          swap2\n          pop\n          pop\n            /* \"contracts/LoveDrop.sol\":3492:4154  for (uint256 index = 0; index < idsLenght; index++) {... */\n          jump(tag_101)\n        tag_102:\n          pop\n            /* \"contracts/LoveDrop.sol\":4172:4178  leaves */\n          swap11\n            /* \"contracts/LoveDrop.sol\":4180:4191  totalAmount */\n          swap1\n          swap10\n          pop\n            /* \"contracts/LoveDrop.sol\":2851:4199  function _buildLeavesAndTotalAmount(... */\n          swap8\n          pop\n          pop\n          pop\n          pop\n          pop\n          pop\n          pop\n          pop\n          jump\t// out\n            /* \"@openzeppelin/contracts/utils/cryptography/MerkleProof.sol\":3461:3739  function multiProofVerifyCalldata(... */\n        tag_45:\n            /* \"@openzeppelin/contracts/utils/cryptography/MerkleProof.sol\":3649:3653  bool */\n          0x00\n            /* \"@openzeppelin/contracts/utils/cryptography/MerkleProof.sol\":3728:3732  root */\n          dup3\n            /* \"@openzeppelin/contracts/utils/cryptography/MerkleProof.sol\":3672:3724  processMultiProofCalldata(proof, proofFlags, leaves) */\n          tag_136\n            /* \"@openzeppelin/contracts/utils/cryptography/MerkleProof.sol\":3698:3703  proof */\n          dup9\n          dup9\n            /* \"@openzeppelin/contracts/utils/cryptography/MerkleProof.sol\":3705:3715  proofFlags */\n          dup9\n          dup9\n            /* \"@openzeppelin/contracts/utils/cryptography/MerkleProof.sol\":3717:3723  leaves */\n          dup8\n            /* \"@openzeppelin/contracts/utils/cryptography/MerkleProof.sol\":3672:3697  processMultiProofCalldata */\n          tag_137\n            /* \"@openzeppelin/contracts/utils/cryptography/MerkleProof.sol\":3672:3724  processMultiProofCalldata(proof, proofFlags, leaves) */\n          jump\t// in\n        tag_136:\n            /* \"@openzeppelin/contracts/utils/cryptography/MerkleProof.sol\":3672:3732  processMultiProofCalldata(proof, proofFlags, leaves) == root */\n          eq\n          swap8\n            /* \"@openzeppelin/contracts/utils/cryptography/MerkleProof.sol\":3461:3739  function multiProofVerifyCalldata(... */\n          swap7\n          pop\n          pop\n          pop\n          pop\n          pop\n          pop\n          pop\n          jump\t// out\n            /* \"contracts/LoveDrop.sol\":1814:2411  function verifyClaim(... */\n        tag_57:\n            /* \"contracts/LoveDrop.sol\":1980:2005  isClaimed(nftAddress, id) */\n          tag_139\n            /* \"contracts/LoveDrop.sol\":1990:2000  nftAddress */\n          dup6\n            /* \"contracts/LoveDrop.sol\":2002:2004  id */\n          dup6\n            /* \"contracts/LoveDrop.sol\":1980:1989  isClaimed */\n          tag_26\n            /* \"contracts/LoveDrop.sol\":1980:2005  isClaimed(nftAddress, id) */\n          jump\t// in\n        tag_139:\n            /* \"contracts/LoveDrop.sol\":1976:2030  if (isClaimed(nftAddress, id)) revert AlreadyClaimed() */\n          iszero\n          tag_140\n          jumpi\n            /* \"contracts/LoveDrop.sol\":2014:2030  AlreadyClaimed() */\n          mload(0x40)\n          shl(0xe3, 0x0c8d9eab)\n          dup2\n          mstore\n          0x04\n          add\n          mload(0x40)\n          dup1\n          swap2\n          sub\n          swap1\n          revert\n            /* \"contracts/LoveDrop.sol\":1976:2030  if (isClaimed(nftAddress, id)) revert AlreadyClaimed() */\n        tag_140:\n            /* \"contracts/LoveDrop.sol\":2061:2092  IERC721(nftAddress).ownerOf(id) */\n          mload(0x40)\n          shl(0xe1, 0x31a9108f)\n          dup2\n          mstore\n          0x04\n          dup2\n          add\n            /* \"#utility.yul\":2254:2279   */\n          dup6\n          swap1\n          mstore\n            /* \"contracts/LoveDrop.sol\":2096:2106  msg.sender */\n          caller\n          swap1\n          sub(shl(0xa0, 0x01), 0x01)\n            /* \"contracts/LoveDrop.sol\":2061:2088  IERC721(nftAddress).ownerOf */\n          dup8\n          and\n          swap1\n          0x6352211e\n          swap1\n            /* \"#utility.yul\":2227:2245   */\n          0x24\n          add\n            /* \"contracts/LoveDrop.sol\":2061:2092  IERC721(nftAddress).ownerOf(id) */\n          0x20\n          mload(0x40)\n          dup1\n          dup4\n          sub\n          dup2\n          dup7\n          gas\n          staticcall\n          iszero\n          dup1\n          iszero\n          tag_143\n          jumpi\n          returndatasize\n          0x00\n          dup1\n          returndatacopy\n          revert(0x00, returndatasize)\n        tag_143:\n          pop\n          pop\n          pop\n          pop\n          mload(0x40)\n          returndatasize\n          not(0x1f)\n          0x1f\n          dup3\n          add\n          and\n          dup3\n          add\n          dup1\n          0x40\n          mstore\n          pop\n          dup2\n          add\n          swap1\n          tag_144\n          swap2\n          swap1\n          tag_120\n          jump\t// in\n        tag_144:\n          sub(shl(0xa0, 0x01), 0x01)\n            /* \"contracts/LoveDrop.sol\":2061:2106  IERC721(nftAddress).ownerOf(id) == msg.sender */\n          and\n          eq\n            /* \"contracts/LoveDrop.sol\":2040:2158  require(... */\n          tag_145\n          jumpi\n          mload(0x40)\n          shl(0xe5, 0x461bcd)\n          dup2\n          mstore\n            /* \"#utility.yul\":14506:14508   */\n          0x20\n            /* \"contracts/LoveDrop.sol\":2040:2158  require(... */\n          0x04\n          dup3\n          add\n            /* \"#utility.yul\":14488:14509   */\n          mstore\n            /* \"#utility.yul\":14545:14547   */\n          0x1a\n            /* \"#utility.yul\":14525:14543   */\n          0x24\n          dup3\n          add\n            /* \"#utility.yul\":14518:14548   */\n          mstore\n            /* \"#utility.yul\":14584:14612   */\n          0x6e66742069736e74206f776e656420627920636c61696d616e74000000000000\n            /* \"#utility.yul\":14564:14582   */\n          0x44\n          dup3\n          add\n            /* \"#utility.yul\":14557:14613   */\n          mstore\n            /* \"#utility.yul\":14630:14648   */\n          0x64\n          add\n            /* \"contracts/LoveDrop.sol\":2040:2158  require(... */\n          tag_84\n            /* \"#utility.yul\":14304:14654   */\n          jump\n            /* \"contracts/LoveDrop.sol\":2040:2158  require(... */\n        tag_145:\n            /* \"contracts/LoveDrop.sol\":2231:2265  abi.encode(nftAddress, id, amount) */\n          0x40\n          dup1\n          mload\n          sub(shl(0xa0, 0x01), 0x01)\n            /* \"#utility.yul\":13717:13749   */\n          dup8\n          and\n            /* \"contracts/LoveDrop.sol\":2231:2265  abi.encode(nftAddress, id, amount) */\n          0x20\n          dup3\n          add\n            /* \"#utility.yul\":13699:13750   */\n          mstore\n            /* \"#utility.yul\":13766:13784   */\n          swap1\n          dup2\n          add\n            /* \"#utility.yul\":13759:13793   */\n          dup6\n          swap1\n          mstore\n            /* \"#utility.yul\":13809:13827   */\n          0x60\n          dup2\n          add\n            /* \"#utility.yul\":13802:13836   */\n          dup5\n          swap1\n          mstore\n            /* \"contracts/LoveDrop.sol\":2170:2182  bytes32 leaf */\n          0x00\n          swap1\n            /* \"#utility.yul\":13672:13690   */\n          0x80\n          add\n            /* \"contracts/LoveDrop.sol\":2231:2265  abi.encode(nftAddress, id, amount) */\n          0x40\n          dup1\n          mload\n          not(0x1f)\n          dup2\n          dup5\n          sub\n          add\n          dup2\n          mstore\n          dup3\n          dup3\n          mstore\n            /* \"contracts/LoveDrop.sol\":2221:2266  keccak256(abi.encode(nftAddress, id, amount)) */\n          dup1\n          mload\n            /* \"contracts/LoveDrop.sol\":2231:2265  abi.encode(nftAddress, id, amount) */\n          0x20\n            /* \"contracts/LoveDrop.sol\":2221:2266  keccak256(abi.encode(nftAddress, id, amount)) */\n          swap2\n          dup3\n          add\n          keccak256\n            /* \"contracts/LoveDrop.sol\":2208:2267  bytes.concat(keccak256(abi.encode(nftAddress, id, amount))) */\n          swap1\n          dup4\n          add\n            /* \"#utility.yul\":13976:13995   */\n          mstore\n            /* \"#utility.yul\":14011:14023   */\n          add\n            /* \"contracts/LoveDrop.sol\":2208:2267  bytes.concat(keccak256(abi.encode(nftAddress, id, amount))) */\n          mload(0x40)\n          0x20\n          dup2\n          dup4\n          sub\n          sub\n          dup2\n          mstore\n          swap1\n          0x40\n          mstore\n            /* \"contracts/LoveDrop.sol\":2185:2277  keccak256(... */\n          dup1\n          mload\n          swap1\n          0x20\n          add\n          keccak256\n            /* \"contracts/LoveDrop.sol\":2170:2277  bytes32 leaf = keccak256(... */\n          swap1\n          pop\n            /* \"contracts/LoveDrop.sol\":2308:2365  MerkleProof.verifyCalldata(merkleProof, merkleRoot, leaf) */\n          tag_150\n            /* \"contracts/LoveDrop.sol\":2335:2346  merkleProof */\n          dup4\n          dup4\n            /* \"contracts/LoveDrop.sol\":2348:2358  merkleRoot */\n          sload(0x03)\n            /* \"contracts/LoveDrop.sol\":2360:2364  leaf */\n          dup5\n            /* \"contracts/LoveDrop.sol\":2308:2334  MerkleProof.verifyCalldata */\n          tag_151\n            /* \"contracts/LoveDrop.sol\":2308:2365  MerkleProof.verifyCalldata(merkleProof, merkleRoot, leaf) */\n          jump\t// in\n        tag_150:\n            /* \"contracts/LoveDrop.sol\":2287:2404  require(... */\n          tag_152\n          jumpi\n          mload(0x40)\n          shl(0xe5, 0x461bcd)\n          dup2\n          mstore\n            /* \"#utility.yul\":14861:14863   */\n          0x20\n            /* \"contracts/LoveDrop.sol\":2287:2404  require(... */\n          0x04\n          dup3\n          add\n            /* \"#utility.yul\":14843:14864   */\n          mstore\n            /* \"#utility.yul\":14900:14902   */\n          0x0d\n            /* \"#utility.yul\":14880:14898   */\n          0x24\n          dup3\n          add\n            /* \"#utility.yul\":14873:14903   */\n          mstore\n          shl(0x99, 0x24b73b30b634b210383937b7b3)\n            /* \"#utility.yul\":14919:14937   */\n          0x44\n          dup3\n          add\n            /* \"#utility.yul\":14912:14955   */\n          mstore\n            /* \"#utility.yul\":14972:14990   */\n          0x64\n          add\n            /* \"contracts/LoveDrop.sol\":2287:2404  require(... */\n          tag_84\n            /* \"#utility.yul\":14659:14996   */\n          jump\n            /* \"contracts/LoveDrop.sol\":2287:2404  require(... */\n        tag_152:\n            /* \"contracts/LoveDrop.sol\":1966:2411  {... */\n          pop\n            /* \"contracts/LoveDrop.sol\":1814:2411  function verifyClaim(... */\n          pop\n          pop\n          pop\n          pop\n          pop\n          jump\t// out\n            /* \"contracts/LoveDrop.sol\":1094:1421  function _setClaimed(address nftAddress, uint256 id) private {... */\n        tag_59:\n            /* \"contracts/LoveDrop.sol\":1165:1189  uint256 claimedWordIndex */\n          0x00\n            /* \"contracts/LoveDrop.sol\":1192:1200  id / 256 */\n          tag_156\n            /* \"contracts/LoveDrop.sol\":1197:1200  256 */\n          0x0100\n            /* \"contracts/LoveDrop.sol\":1192:1194  id */\n          dup4\n            /* \"contracts/LoveDrop.sol\":1192:1200  id / 256 */\n          tag_68\n          jump\t// in\n        tag_156:\n            /* \"contracts/LoveDrop.sol\":1165:1200  uint256 claimedWordIndex = id / 256 */\n          swap1\n          pop\n            /* \"contracts/LoveDrop.sol\":1210:1233  uint256 claimedBitIndex */\n          0x00\n            /* \"contracts/LoveDrop.sol\":1236:1244  id % 256 */\n          tag_157\n            /* \"contracts/LoveDrop.sol\":1241:1244  256 */\n          0x0100\n            /* \"contracts/LoveDrop.sol\":1236:1238  id */\n          dup5\n            /* \"contracts/LoveDrop.sol\":1236:1244  id % 256 */\n          tag_70\n          jump\t// in\n        tag_157:\n          sub(shl(0xa0, 0x01), 0x01)\n            /* \"contracts/LoveDrop.sol\":1323:1359  claimedBitMapPerNftIndex[nftAddress] */\n          swap5\n          swap1\n          swap5\n          and\n          0x00\n          swap1\n          dup2\n          mstore\n            /* \"contracts/LoveDrop.sol\":1323:1347  claimedBitMapPerNftIndex */\n          0x04\n            /* \"contracts/LoveDrop.sol\":1323:1359  claimedBitMapPerNftIndex[nftAddress] */\n          0x20\n          swap1\n          dup2\n          mstore\n          0x40\n          dup1\n          dup4\n          keccak256\n            /* \"contracts/LoveDrop.sol\":1323:1377  claimedBitMapPerNftIndex[nftAddress][claimedWordIndex] */\n          swap5\n          dup4\n          mstore\n          swap4\n          swap1\n          mstore\n          swap2\n          swap1\n          swap2\n          keccak256\n          dup1\n          sload\n            /* \"contracts/LoveDrop.sol\":1393:1394  1 */\n          0x01\n            /* \"contracts/LoveDrop.sol\":1393:1413  1 << claimedBitIndex */\n          swap1\n          swap5\n          shl\n            /* \"contracts/LoveDrop.sol\":1323:1414  claimedBitMapPerNftIndex[nftAddress][claimedWordIndex] |... */\n          swap1\n          swap4\n          or\n            /* \"contracts/LoveDrop.sol\":1254:1414  claimedBitMapPerNftIndex[nftAddress][claimedWordIndex] =... */\n          swap1\n          swap3\n          sstore\n          pop\n          pop\n            /* \"contracts/LoveDrop.sol\":1094:1421  function _setClaimed(address nftAddress, uint256 id) private {... */\n          jump\t// out\n            /* \"@openzeppelin/contracts/utils/cryptography/MerkleProof.sol\":6959:9199  function processMultiProofCalldata(... */\n        tag_137:\n            /* \"@openzeppelin/contracts/utils/cryptography/MerkleProof.sol\":7550:7563  leaves.length */\n          dup1\n          mload\n            /* \"@openzeppelin/contracts/utils/cryptography/MerkleProof.sol\":7126:7144  bytes32 merkleRoot */\n          0x00\n          swap1\n            /* \"@openzeppelin/contracts/utils/cryptography/MerkleProof.sol\":7592:7597  proof */\n          dup6\n            /* \"@openzeppelin/contracts/utils/cryptography/MerkleProof.sol\":7636:7646  proofFlags */\n          dup5\n          dup1\n            /* \"@openzeppelin/contracts/utils/cryptography/MerkleProof.sol\":7728:7729  1 */\n          0x01\n            /* \"@openzeppelin/contracts/utils/cryptography/MerkleProof.sol\":7705:7725  leavesLen + proofLen */\n          tag_160\n            /* \"@openzeppelin/contracts/utils/cryptography/MerkleProof.sol\":7592:7597  proof */\n          dup5\n            /* \"@openzeppelin/contracts/utils/cryptography/MerkleProof.sol\":7550:7563  leaves.length */\n          dup7\n            /* \"@openzeppelin/contracts/utils/cryptography/MerkleProof.sol\":7705:7725  leavesLen + proofLen */\n          tag_132\n          jump\t// in\n        tag_160:\n            /* \"@openzeppelin/contracts/utils/cryptography/MerkleProof.sol\":7705:7729  leavesLen + proofLen - 1 */\n          tag_161\n          swap2\n          swap1\n          tag_162\n          jump\t// in\n        tag_161:\n            /* \"@openzeppelin/contracts/utils/cryptography/MerkleProof.sol\":7705:7744  leavesLen + proofLen - 1 == totalHashes */\n          eq\n            /* \"@openzeppelin/contracts/utils/cryptography/MerkleProof.sol\":7697:7780  require(leavesLen + proofLen - 1 == totalHashes, \"MerkleProof: invalid multiproof\") */\n          tag_163\n          jumpi\n          mload(0x40)\n          shl(0xe5, 0x461bcd)\n          dup2\n          mstore\n            /* \"#utility.yul\":15336:15338   */\n          0x20\n            /* \"@openzeppelin/contracts/utils/cryptography/MerkleProof.sol\":7697:7780  require(leavesLen + proofLen - 1 == totalHashes, \"MerkleProof: invalid multiproof\") */\n          0x04\n          dup3\n          add\n            /* \"#utility.yul\":15318:15339   */\n          mstore\n            /* \"#utility.yul\":15375:15377   */\n          0x1f\n            /* \"#utility.yul\":15355:15373   */\n          0x24\n          dup3\n          add\n            /* \"#utility.yul\":15348:15378   */\n          mstore\n            /* \"#utility.yul\":15414:15447   */\n          0x4d65726b6c6550726f6f663a20696e76616c6964206d756c746970726f6f6600\n            /* \"#utility.yul\":15394:15412   */\n          0x44\n          dup3\n          add\n            /* \"#utility.yul\":15387:15448   */\n          mstore\n            /* \"#utility.yul\":15465:15483   */\n          0x64\n          add\n            /* \"@openzeppelin/contracts/utils/cryptography/MerkleProof.sol\":7697:7780  require(leavesLen + proofLen - 1 == totalHashes, \"MerkleProof: invalid multiproof\") */\n          tag_84\n            /* \"#utility.yul\":15134:15489   */\n          jump\n            /* \"@openzeppelin/contracts/utils/cryptography/MerkleProof.sol\":7697:7780  require(leavesLen + proofLen - 1 == totalHashes, \"MerkleProof: invalid multiproof\") */\n        tag_163:\n            /* \"@openzeppelin/contracts/utils/cryptography/MerkleProof.sol\":8025:8048  bytes32[] memory hashes */\n          0x00\n            /* \"@openzeppelin/contracts/utils/cryptography/MerkleProof.sol\":8065:8076  totalHashes */\n          dup2\n            /* \"@openzeppelin/contracts/utils/cryptography/MerkleProof.sol\":8051:8077  new bytes32[](totalHashes) */\n          0xffffffffffffffff\n          dup2\n          gt\n          iszero\n          tag_167\n          jumpi\n          tag_167\n          tag_99\n          jump\t// in\n        tag_167:\n          mload(0x40)\n          swap1\n          dup1\n          dup3\n          mstore\n          dup1\n          0x20\n          mul\n          0x20\n          add\n          dup3\n          add\n          0x40\n          mstore\n          dup1\n          iszero\n          tag_168\n          jumpi\n          dup2\n          0x20\n          add\n          0x20\n          dup3\n          mul\n          dup1\n          calldatasize\n          dup4\n          calldatacopy\n          add\n          swap1\n          pop\n        tag_168:\n          pop\n            /* \"@openzeppelin/contracts/utils/cryptography/MerkleProof.sol\":8025:8077  bytes32[] memory hashes = new bytes32[](totalHashes) */\n          swap1\n          pop\n            /* \"@openzeppelin/contracts/utils/cryptography/MerkleProof.sol\":8087:8102  uint256 leafPos */\n          0x00\n            /* \"@openzeppelin/contracts/utils/cryptography/MerkleProof.sol\":8116:8131  uint256 hashPos */\n          dup1\n            /* \"@openzeppelin/contracts/utils/cryptography/MerkleProof.sol\":8145:8161  uint256 proofPos */\n          0x00\n            /* \"@openzeppelin/contracts/utils/cryptography/MerkleProof.sol\":8546:8555  uint256 i */\n          dup1\n            /* \"@openzeppelin/contracts/utils/cryptography/MerkleProof.sol\":8541:8875  for (uint256 i = 0; i < totalHashes; i++) {... */\n        tag_169:\n            /* \"@openzeppelin/contracts/utils/cryptography/MerkleProof.sol\":8565:8576  totalHashes */\n          dup6\n            /* \"@openzeppelin/contracts/utils/cryptography/MerkleProof.sol\":8561:8562  i */\n          dup2\n            /* \"@openzeppelin/contracts/utils/cryptography/MerkleProof.sol\":8561:8576  i < totalHashes */\n          lt\n            /* \"@openzeppelin/contracts/utils/cryptography/MerkleProof.sol\":8541:8875  for (uint256 i = 0; i < totalHashes; i++) {... */\n          iszero\n          tag_170\n          jumpi\n            /* \"@openzeppelin/contracts/utils/cryptography/MerkleProof.sol\":8597:8606  bytes32 a */\n          0x00\n            /* \"@openzeppelin/contracts/utils/cryptography/MerkleProof.sol\":8619:8628  leavesLen */\n          dup9\n            /* \"@openzeppelin/contracts/utils/cryptography/MerkleProof.sol\":8609:8616  leafPos */\n          dup6\n            /* \"@openzeppelin/contracts/utils/cryptography/MerkleProof.sol\":8609:8628  leafPos < leavesLen */\n          lt\n            /* \"@openzeppelin/contracts/utils/cryptography/MerkleProof.sol\":8609:8668  leafPos < leavesLen ? leaves[leafPos++] : hashes[hashPos++] */\n          tag_172\n          jumpi\n            /* \"@openzeppelin/contracts/utils/cryptography/MerkleProof.sol\":8651:8657  hashes */\n          dup6\n            /* \"@openzeppelin/contracts/utils/cryptography/MerkleProof.sol\":8658:8667  hashPos++ */\n          dup5\n          tag_173\n          dup2\n          tag_134\n          jump\t// in\n        tag_173:\n          swap6\n          pop\n            /* \"@openzeppelin/contracts/utils/cryptography/MerkleProof.sol\":8651:8668  hashes[hashPos++] */\n          dup2\n          mload\n          dup2\n          lt\n          tag_175\n          jumpi\n          tag_175\n          tag_106\n          jump\t// in\n        tag_175:\n          0x20\n          mul\n          0x20\n          add\n          add\n          mload\n            /* \"@openzeppelin/contracts/utils/cryptography/MerkleProof.sol\":8609:8668  leafPos < leavesLen ? leaves[leafPos++] : hashes[hashPos++] */\n          jump(tag_176)\n        tag_172:\n            /* \"@openzeppelin/contracts/utils/cryptography/MerkleProof.sol\":8631:8637  leaves */\n          dup11\n            /* \"@openzeppelin/contracts/utils/cryptography/MerkleProof.sol\":8638:8647  leafPos++ */\n          dup6\n          tag_177\n          dup2\n          tag_134\n          jump\t// in\n        tag_177:\n          swap7\n          pop\n            /* \"@openzeppelin/contracts/utils/cryptography/MerkleProof.sol\":8631:8648  leaves[leafPos++] */\n          dup2\n          mload\n          dup2\n          lt\n          tag_179\n          jumpi\n          tag_179\n          tag_106\n          jump\t// in\n        tag_179:\n          0x20\n          mul\n          0x20\n          add\n          add\n          mload\n            /* \"@openzeppelin/contracts/utils/cryptography/MerkleProof.sol\":8609:8668  leafPos < leavesLen ? leaves[leafPos++] : hashes[hashPos++] */\n        tag_176:\n            /* \"@openzeppelin/contracts/utils/cryptography/MerkleProof.sol\":8597:8668  bytes32 a = leafPos < leavesLen ? leaves[leafPos++] : hashes[hashPos++] */\n          swap1\n          pop\n            /* \"@openzeppelin/contracts/utils/cryptography/MerkleProof.sol\":8682:8691  bytes32 b */\n          0x00\n            /* \"@openzeppelin/contracts/utils/cryptography/MerkleProof.sol\":8694:8704  proofFlags */\n          dup14\n          dup14\n            /* \"@openzeppelin/contracts/utils/cryptography/MerkleProof.sol\":8705:8706  i */\n          dup5\n            /* \"@openzeppelin/contracts/utils/cryptography/MerkleProof.sol\":8694:8707  proofFlags[i] */\n          dup2\n          dup2\n          lt\n          tag_181\n          jumpi\n          tag_181\n          tag_106\n          jump\t// in\n        tag_181:\n          swap1\n          pop\n          0x20\n          mul\n          add\n          0x20\n          dup2\n          add\n          swap1\n          tag_182\n          swap2\n          swap1\n          tag_183\n          jump\t// in\n        tag_182:\n            /* \"@openzeppelin/contracts/utils/cryptography/MerkleProof.sol\":8694:8823  proofFlags[i]... */\n          tag_184\n          jumpi\n            /* \"@openzeppelin/contracts/utils/cryptography/MerkleProof.sol\":8806:8811  proof */\n          dup16\n          dup16\n            /* \"@openzeppelin/contracts/utils/cryptography/MerkleProof.sol\":8812:8822  proofPos++ */\n          dup6\n          tag_185\n          dup2\n          tag_134\n          jump\t// in\n        tag_185:\n          swap7\n          pop\n            /* \"@openzeppelin/contracts/utils/cryptography/MerkleProof.sol\":8806:8823  proof[proofPos++] */\n          dup2\n          dup2\n          lt\n          tag_187\n          jumpi\n          tag_187\n          tag_106\n          jump\t// in\n        tag_187:\n          swap1\n          pop\n          0x20\n          mul\n          add\n          calldataload\n            /* \"@openzeppelin/contracts/utils/cryptography/MerkleProof.sol\":8694:8823  proofFlags[i]... */\n          jump(tag_193)\n        tag_184:\n            /* \"@openzeppelin/contracts/utils/cryptography/MerkleProof.sol\":8737:8746  leavesLen */\n          dup10\n            /* \"@openzeppelin/contracts/utils/cryptography/MerkleProof.sol\":8727:8734  leafPos */\n          dup7\n            /* \"@openzeppelin/contracts/utils/cryptography/MerkleProof.sol\":8727:8746  leafPos < leavesLen */\n          lt\n            /* \"@openzeppelin/contracts/utils/cryptography/MerkleProof.sol\":8727:8786  leafPos < leavesLen ? leaves[leafPos++] : hashes[hashPos++] */\n          tag_189\n          jumpi\n            /* \"@openzeppelin/contracts/utils/cryptography/MerkleProof.sol\":8769:8775  hashes */\n          dup7\n            /* \"@openzeppelin/contracts/utils/cryptography/MerkleProof.sol\":8776:8785  hashPos++ */\n          dup6\n          tag_190\n          dup2\n          tag_134\n          jump\t// in\n        tag_190:\n          swap7\n          pop\n            /* \"@openzeppelin/contracts/utils/cryptography/MerkleProof.sol\":8769:8786  hashes[hashPos++] */\n          dup2\n          mload\n          dup2\n          lt\n          tag_192\n          jumpi\n          tag_192\n          tag_106\n          jump\t// in\n        tag_192:\n          0x20\n          mul\n          0x20\n          add\n          add\n          mload\n            /* \"@openzeppelin/contracts/utils/cryptography/MerkleProof.sol\":8727:8786  leafPos < leavesLen ? leaves[leafPos++] : hashes[hashPos++] */\n          jump(tag_193)\n        tag_189:\n            /* \"@openzeppelin/contracts/utils/cryptography/MerkleProof.sol\":8749:8755  leaves */\n          dup12\n            /* \"@openzeppelin/contracts/utils/cryptography/MerkleProof.sol\":8756:8765  leafPos++ */\n          dup7\n          tag_194\n          dup2\n          tag_134\n          jump\t// in\n        tag_194:\n          swap8\n          pop\n            /* \"@openzeppelin/contracts/utils/cryptography/MerkleProof.sol\":8749:8766  leaves[leafPos++] */\n          dup2\n          mload\n          dup2\n          lt\n          tag_196\n          jumpi\n          tag_196\n          tag_106\n          jump\t// in\n        tag_196:\n          0x20\n          mul\n          0x20\n          add\n          add\n          mload\n            /* \"@openzeppelin/contracts/utils/cryptography/MerkleProof.sol\":8727:8786  leafPos < leavesLen ? leaves[leafPos++] : hashes[hashPos++] */\n        tag_193:\n            /* \"@openzeppelin/contracts/utils/cryptography/MerkleProof.sol\":8682:8823  bytes32 b = proofFlags[i]... */\n          swap1\n          pop\n            /* \"@openzeppelin/contracts/utils/cryptography/MerkleProof.sol\":8849:8864  _hashPair(a, b) */\n          tag_197\n            /* \"@openzeppelin/contracts/utils/cryptography/MerkleProof.sol\":8859:8860  a */\n          dup3\n            /* \"@openzeppelin/contracts/utils/cryptography/MerkleProof.sol\":8862:8863  b */\n          dup3\n            /* \"@openzeppelin/contracts/utils/cryptography/MerkleProof.sol\":8849:8858  _hashPair */\n          tag_198\n            /* \"@openzeppelin/contracts/utils/cryptography/MerkleProof.sol\":8849:8864  _hashPair(a, b) */\n          jump\t// in\n        tag_197:\n            /* \"@openzeppelin/contracts/utils/cryptography/MerkleProof.sol\":8837:8843  hashes */\n          dup8\n            /* \"@openzeppelin/contracts/utils/cryptography/MerkleProof.sol\":8844:8845  i */\n          dup5\n            /* \"@openzeppelin/contracts/utils/cryptography/MerkleProof.sol\":8837:8846  hashes[i] */\n          dup2\n          mload\n          dup2\n          lt\n          tag_200\n          jumpi\n          tag_200\n          tag_106\n          jump\t// in\n        tag_200:\n          0x20\n          mul\n          0x20\n          add\n          add\n            /* \"@openzeppelin/contracts/utils/cryptography/MerkleProof.sol\":8837:8864  hashes[i] = _hashPair(a, b) */\n          dup2\n          dup2\n          mstore\n          pop\n          pop\n            /* \"@openzeppelin/contracts/utils/cryptography/MerkleProof.sol\":8583:8875  {... */\n          pop\n          pop\n            /* \"@openzeppelin/contracts/utils/cryptography/MerkleProof.sol\":8578:8581  i++ */\n          dup1\n          dup1\n          tag_201\n          swap1\n          tag_134\n          jump\t// in\n        tag_201:\n          swap2\n          pop\n          pop\n            /* \"@openzeppelin/contracts/utils/cryptography/MerkleProof.sol\":8541:8875  for (uint256 i = 0; i < totalHashes; i++) {... */\n          jump(tag_169)\n        tag_170:\n          pop\n            /* \"@openzeppelin/contracts/utils/cryptography/MerkleProof.sol\":8889:8904  totalHashes > 0 */\n          dup5\n          iszero\n            /* \"@openzeppelin/contracts/utils/cryptography/MerkleProof.sol\":8885:9193  if (totalHashes > 0) {... */\n          tag_202\n          jumpi\n            /* \"@openzeppelin/contracts/utils/cryptography/MerkleProof.sol\":8940:8948  proofLen */\n          dup6\n            /* \"@openzeppelin/contracts/utils/cryptography/MerkleProof.sol\":8928:8936  proofPos */\n          dup2\n            /* \"@openzeppelin/contracts/utils/cryptography/MerkleProof.sol\":8928:8948  proofPos == proofLen */\n          eq\n            /* \"@openzeppelin/contracts/utils/cryptography/MerkleProof.sol\":8920:8984  require(proofPos == proofLen, \"MerkleProof: invalid multiproof\") */\n          tag_203\n          jumpi\n          mload(0x40)\n          shl(0xe5, 0x461bcd)\n          dup2\n          mstore\n            /* \"#utility.yul\":15336:15338   */\n          0x20\n            /* \"@openzeppelin/contracts/utils/cryptography/MerkleProof.sol\":8920:8984  require(proofPos == proofLen, \"MerkleProof: invalid multiproof\") */\n          0x04\n          dup3\n          add\n            /* \"#utility.yul\":15318:15339   */\n          mstore\n            /* \"#utility.yul\":15375:15377   */\n          0x1f\n            /* \"#utility.yul\":15355:15373   */\n          0x24\n          dup3\n          add\n            /* \"#utility.yul\":15348:15378   */\n          mstore\n            /* \"#utility.yul\":15414:15447   */\n          0x4d65726b6c6550726f6f663a20696e76616c6964206d756c746970726f6f6600\n            /* \"#utility.yul\":15394:15412   */\n          0x44\n          dup3\n          add\n            /* \"#utility.yul\":15387:15448   */\n          mstore\n            /* \"#utility.yul\":15465:15483   */\n          0x64\n          add\n            /* \"@openzeppelin/contracts/utils/cryptography/MerkleProof.sol\":8920:8984  require(proofPos == proofLen, \"MerkleProof: invalid multiproof\") */\n          tag_84\n            /* \"#utility.yul\":15134:15489   */\n          jump\n            /* \"@openzeppelin/contracts/utils/cryptography/MerkleProof.sol\":8920:8984  require(proofPos == proofLen, \"MerkleProof: invalid multiproof\") */\n        tag_203:\n            /* \"@openzeppelin/contracts/utils/cryptography/MerkleProof.sol\":9033:9039  hashes */\n          dup4\n            /* \"@openzeppelin/contracts/utils/cryptography/MerkleProof.sol\":9054:9055  1 */\n          0x01\n            /* \"@openzeppelin/contracts/utils/cryptography/MerkleProof.sol\":9040:9051  totalHashes */\n          dup7\n            /* \"@openzeppelin/contracts/utils/cryptography/MerkleProof.sol\":9040:9055  totalHashes - 1 */\n          sub\n            /* \"@openzeppelin/contracts/utils/cryptography/MerkleProof.sol\":9033:9056  hashes[totalHashes - 1] */\n          dup2\n          mload\n          dup2\n          lt\n          tag_206\n          jumpi\n          tag_206\n          tag_106\n          jump\t// in\n        tag_206:\n          0x20\n          mul\n          0x20\n          add\n          add\n          mload\n            /* \"@openzeppelin/contracts/utils/cryptography/MerkleProof.sol\":9026:9056  return hashes[totalHashes - 1] */\n          swap8\n          pop\n          pop\n          pop\n          pop\n          pop\n          pop\n          pop\n          pop\n          jump(tag_159)\n            /* \"@openzeppelin/contracts/utils/cryptography/MerkleProof.sol\":8885:9193  if (totalHashes > 0) {... */\n        tag_202:\n            /* \"@openzeppelin/contracts/utils/cryptography/MerkleProof.sol\":9091:9104  leavesLen > 0 */\n          dup7\n          iszero\n            /* \"@openzeppelin/contracts/utils/cryptography/MerkleProof.sol\":9087:9193  if (leavesLen > 0) {... */\n          tag_208\n          jumpi\n            /* \"@openzeppelin/contracts/utils/cryptography/MerkleProof.sol\":9127:9133  leaves */\n          dup9\n            /* \"@openzeppelin/contracts/utils/cryptography/MerkleProof.sol\":9134:9135  0 */\n          0x00\n            /* \"@openzeppelin/contracts/utils/cryptography/MerkleProof.sol\":9127:9136  leaves[0] */\n          dup2\n          mload\n          dup2\n          lt\n          tag_206\n          jumpi\n          tag_206\n          tag_106\n          jump\t// in\n            /* \"@openzeppelin/contracts/utils/cryptography/MerkleProof.sol\":9087:9193  if (leavesLen > 0) {... */\n        tag_208:\n            /* \"@openzeppelin/contracts/utils/cryptography/MerkleProof.sol\":9174:9179  proof */\n          dup13\n          dup13\n            /* \"@openzeppelin/contracts/utils/cryptography/MerkleProof.sol\":9180:9181  0 */\n          0x00\n            /* \"@openzeppelin/contracts/utils/cryptography/MerkleProof.sol\":9174:9182  proof[0] */\n          dup2\n          dup2\n          lt\n          tag_213\n          jumpi\n          tag_213\n          tag_106\n          jump\t// in\n        tag_213:\n          swap1\n          pop\n          0x20\n          mul\n          add\n          calldataload\n            /* \"@openzeppelin/contracts/utils/cryptography/MerkleProof.sol\":9167:9182  return proof[0] */\n          swap8\n          pop\n          pop\n          pop\n          pop\n          pop\n          pop\n          pop\n          pop\n            /* \"@openzeppelin/contracts/utils/cryptography/MerkleProof.sol\":6959:9199  function processMultiProofCalldata(... */\n        tag_159:\n          swap6\n          swap5\n          pop\n          pop\n          pop\n          pop\n          pop\n          jump\t// out\n            /* \"@openzeppelin/contracts/utils/cryptography/MerkleProof.sol\":1411:1583  function verifyCalldata(bytes32[] calldata proof, bytes32 root, bytes32 leaf) internal pure returns (bool) {... */\n        tag_151:\n            /* \"@openzeppelin/contracts/utils/cryptography/MerkleProof.sol\":1512:1516  bool */\n          0x00\n            /* \"@openzeppelin/contracts/utils/cryptography/MerkleProof.sol\":1572:1576  root */\n          dup3\n            /* \"@openzeppelin/contracts/utils/cryptography/MerkleProof.sol\":1535:1568  processProofCalldata(proof, leaf) */\n          tag_215\n            /* \"@openzeppelin/contracts/utils/cryptography/MerkleProof.sol\":1556:1561  proof */\n          dup7\n          dup7\n            /* \"@openzeppelin/contracts/utils/cryptography/MerkleProof.sol\":1563:1567  leaf */\n          dup6\n            /* \"@openzeppelin/contracts/utils/cryptography/MerkleProof.sol\":1535:1555  processProofCalldata */\n          tag_216\n            /* \"@openzeppelin/contracts/utils/cryptography/MerkleProof.sol\":1535:1568  processProofCalldata(proof, leaf) */\n          jump\t// in\n        tag_215:\n            /* \"@openzeppelin/contracts/utils/cryptography/MerkleProof.sol\":1535:1576  processProofCalldata(proof, leaf) == root */\n          eq\n          swap6\n            /* \"@openzeppelin/contracts/utils/cryptography/MerkleProof.sol\":1411:1583  function verifyCalldata(bytes32[] calldata proof, bytes32 root, bytes32 leaf) internal pure returns (bool) {... */\n          swap5\n          pop\n          pop\n          pop\n          pop\n          pop\n          jump\t// out\n            /* \"@openzeppelin/contracts/utils/cryptography/MerkleProof.sol\":9205:9352  function _hashPair(bytes32 a, bytes32 b) private pure returns (bytes32) {... */\n        tag_198:\n            /* \"@openzeppelin/contracts/utils/cryptography/MerkleProof.sol\":9268:9275  bytes32 */\n          0x00\n            /* \"@openzeppelin/contracts/utils/cryptography/MerkleProof.sol\":9298:9299  b */\n          dup2\n            /* \"@openzeppelin/contracts/utils/cryptography/MerkleProof.sol\":9294:9295  a */\n          dup4\n            /* \"@openzeppelin/contracts/utils/cryptography/MerkleProof.sol\":9294:9299  a < b */\n          lt\n            /* \"@openzeppelin/contracts/utils/cryptography/MerkleProof.sol\":9294:9345  a < b ? _efficientHash(a, b) : _efficientHash(b, a) */\n          tag_218\n          jumpi\n            /* \"@openzeppelin/contracts/utils/cryptography/MerkleProof.sol\":9426:9439  bytes32 value */\n          0x00\n            /* \"@openzeppelin/contracts/utils/cryptography/MerkleProof.sol\":9517:9532  mstore(0x00, a) */\n          dup3\n          dup2\n          mstore\n            /* \"@openzeppelin/contracts/utils/cryptography/MerkleProof.sol\":9552:9556  0x20 */\n          0x20\n            /* \"@openzeppelin/contracts/utils/cryptography/MerkleProof.sol\":9545:9560  mstore(0x20, b) */\n          dup5\n          swap1\n          mstore\n            /* \"@openzeppelin/contracts/utils/cryptography/MerkleProof.sol\":9598:9602  0x40 */\n          0x40\n            /* \"@openzeppelin/contracts/utils/cryptography/MerkleProof.sol\":9582:9603  keccak256(0x00, 0x40) */\n          swap1\n          keccak256\n            /* \"@openzeppelin/contracts/utils/cryptography/MerkleProof.sol\":9294:9345  a < b ? _efficientHash(a, b) : _efficientHash(b, a) */\n          jump(tag_222)\n        tag_218:\n            /* \"@openzeppelin/contracts/utils/cryptography/MerkleProof.sol\":9426:9439  bytes32 value */\n          0x00\n            /* \"@openzeppelin/contracts/utils/cryptography/MerkleProof.sol\":9517:9532  mstore(0x00, a) */\n          dup4\n          dup2\n          mstore\n            /* \"@openzeppelin/contracts/utils/cryptography/MerkleProof.sol\":9552:9556  0x20 */\n          0x20\n            /* \"@openzeppelin/contracts/utils/cryptography/MerkleProof.sol\":9545:9560  mstore(0x20, b) */\n          dup4\n          swap1\n          mstore\n            /* \"@openzeppelin/contracts/utils/cryptography/MerkleProof.sol\":9598:9602  0x40 */\n          0x40\n            /* \"@openzeppelin/contracts/utils/cryptography/MerkleProof.sol\":9582:9603  keccak256(0x00, 0x40) */\n          swap1\n          keccak256\n            /* \"@openzeppelin/contracts/utils/cryptography/MerkleProof.sol\":9302:9322  _efficientHash(a, b) */\n        tag_222:\n            /* \"@openzeppelin/contracts/utils/cryptography/MerkleProof.sol\":9287:9345  return a < b ? _efficientHash(a, b) : _efficientHash(b, a) */\n          swap4\n            /* \"@openzeppelin/contracts/utils/cryptography/MerkleProof.sol\":9205:9352  function _hashPair(bytes32 a, bytes32 b) private pure returns (bytes32) {... */\n          swap3\n          pop\n          pop\n          pop\n          jump\t// out\n            /* \"@openzeppelin/contracts/utils/cryptography/MerkleProof.sol\":2331:2631  function processProofCalldata(bytes32[] calldata proof, bytes32 leaf) internal pure returns (bytes32) {... */\n        tag_216:\n            /* \"@openzeppelin/contracts/utils/cryptography/MerkleProof.sol\":2424:2431  bytes32 */\n          0x00\n            /* \"@openzeppelin/contracts/utils/cryptography/MerkleProof.sol\":2466:2470  leaf */\n          dup2\n            /* \"@openzeppelin/contracts/utils/cryptography/MerkleProof.sol\":2424:2431  bytes32 */\n          dup2\n            /* \"@openzeppelin/contracts/utils/cryptography/MerkleProof.sol\":2480:2596  for (uint256 i = 0; i < proof.length; i++) {... */\n        tag_224:\n            /* \"@openzeppelin/contracts/utils/cryptography/MerkleProof.sol\":2500:2516  i < proof.length */\n          dup5\n          dup2\n          lt\n            /* \"@openzeppelin/contracts/utils/cryptography/MerkleProof.sol\":2480:2596  for (uint256 i = 0; i < proof.length; i++) {... */\n          iszero\n          tag_225\n          jumpi\n            /* \"@openzeppelin/contracts/utils/cryptography/MerkleProof.sol\":2552:2585  _hashPair(computedHash, proof[i]) */\n          tag_227\n            /* \"@openzeppelin/contracts/utils/cryptography/MerkleProof.sol\":2562:2574  computedHash */\n          dup3\n            /* \"@openzeppelin/contracts/utils/cryptography/MerkleProof.sol\":2576:2581  proof */\n          dup8\n          dup8\n            /* \"@openzeppelin/contracts/utils/cryptography/MerkleProof.sol\":2582:2583  i */\n          dup5\n            /* \"@openzeppelin/contracts/utils/cryptography/MerkleProof.sol\":2576:2584  proof[i] */\n          dup2\n          dup2\n          lt\n          tag_229\n          jumpi\n          tag_229\n          tag_106\n          jump\t// in\n        tag_229:\n          swap1\n          pop\n          0x20\n          mul\n          add\n          calldataload\n            /* \"@openzeppelin/contracts/utils/cryptography/MerkleProof.sol\":2552:2561  _hashPair */\n          tag_198\n            /* \"@openzeppelin/contracts/utils/cryptography/MerkleProof.sol\":2552:2585  _hashPair(computedHash, proof[i]) */\n          jump\t// in\n        tag_227:\n            /* \"@openzeppelin/contracts/utils/cryptography/MerkleProof.sol\":2537:2585  computedHash = _hashPair(computedHash, proof[i]) */\n          swap2\n          pop\n            /* \"@openzeppelin/contracts/utils/cryptography/MerkleProof.sol\":2518:2521  i++ */\n          dup1\n          tag_230\n          dup2\n          tag_134\n          jump\t// in\n        tag_230:\n          swap2\n          pop\n          pop\n            /* \"@openzeppelin/contracts/utils/cryptography/MerkleProof.sol\":2480:2596  for (uint256 i = 0; i < proof.length; i++) {... */\n          jump(tag_224)\n        tag_225:\n          pop\n            /* \"@openzeppelin/contracts/utils/cryptography/MerkleProof.sol\":2612:2624  computedHash */\n          swap5\n            /* \"@openzeppelin/contracts/utils/cryptography/MerkleProof.sol\":2331:2631  function processProofCalldata(bytes32[] calldata proof, bytes32 leaf) internal pure returns (bytes32) {... */\n          swap4\n          pop\n          pop\n          pop\n          pop\n          jump\t// out\n            /* \"#utility.yul\":14:381   */\n        tag_232:\n            /* \"#utility.yul\":77:85   */\n          0x00\n            /* \"#utility.yul\":87:93   */\n          dup1\n            /* \"#utility.yul\":141:144   */\n          dup4\n            /* \"#utility.yul\":134:138   */\n          0x1f\n            /* \"#utility.yul\":126:132   */\n          dup5\n            /* \"#utility.yul\":122:139   */\n          add\n            /* \"#utility.yul\":118:145   */\n          slt\n            /* \"#utility.yul\":108:163   */\n          tag_243\n          jumpi\n            /* \"#utility.yul\":159:160   */\n          0x00\n            /* \"#utility.yul\":156:157   */\n          dup1\n            /* \"#utility.yul\":149:161   */\n          revert\n            /* \"#utility.yul\":108:163   */\n        tag_243:\n          pop\n            /* \"#utility.yul\":182:202   */\n          dup2\n          calldataload\n            /* \"#utility.yul\":225:243   */\n          0xffffffffffffffff\n            /* \"#utility.yul\":214:244   */\n          dup2\n          gt\n            /* \"#utility.yul\":211:261   */\n          iszero\n          tag_244\n          jumpi\n            /* \"#utility.yul\":257:258   */\n          0x00\n            /* \"#utility.yul\":254:255   */\n          dup1\n            /* \"#utility.yul\":247:259   */\n          revert\n            /* \"#utility.yul\":211:261   */\n        tag_244:\n            /* \"#utility.yul\":294:298   */\n          0x20\n            /* \"#utility.yul\":286:292   */\n          dup4\n            /* \"#utility.yul\":282:299   */\n          add\n            /* \"#utility.yul\":270:299   */\n          swap2\n          pop\n            /* \"#utility.yul\":354:357   */\n          dup4\n            /* \"#utility.yul\":347:351   */\n          0x20\n            /* \"#utility.yul\":337:343   */\n          dup3\n            /* \"#utility.yul\":334:335   */\n          0x05\n            /* \"#utility.yul\":330:344   */\n          shl\n            /* \"#utility.yul\":322:328   */\n          dup6\n            /* \"#utility.yul\":318:345   */\n          add\n            /* \"#utility.yul\":314:352   */\n          add\n            /* \"#utility.yul\":311:358   */\n          gt\n            /* \"#utility.yul\":308:375   */\n          iszero\n          tag_245\n          jumpi\n            /* \"#utility.yul\":371:372   */\n          0x00\n            /* \"#utility.yul\":368:369   */\n          dup1\n            /* \"#utility.yul\":361:373   */\n          revert\n            /* \"#utility.yul\":308:375   */\n        tag_245:\n            /* \"#utility.yul\":14:381   */\n          swap3\n          pop\n          swap3\n          swap1\n          pop\n          jump\t// out\n            /* \"#utility.yul\":386:2103   */\n        tag_13:\n            /* \"#utility.yul\":613:619   */\n          0x00\n            /* \"#utility.yul\":621:627   */\n          dup1\n            /* \"#utility.yul\":629:635   */\n          0x00\n            /* \"#utility.yul\":637:643   */\n          dup1\n            /* \"#utility.yul\":645:651   */\n          0x00\n            /* \"#utility.yul\":653:659   */\n          dup1\n            /* \"#utility.yul\":661:667   */\n          0x00\n            /* \"#utility.yul\":669:675   */\n          dup1\n            /* \"#utility.yul\":677:683   */\n          0x00\n            /* \"#utility.yul\":685:691   */\n          dup1\n            /* \"#utility.yul\":738:741   */\n          0xa0\n            /* \"#utility.yul\":726:735   */\n          dup12\n            /* \"#utility.yul\":717:724   */\n          dup14\n            /* \"#utility.yul\":713:736   */\n          sub\n            /* \"#utility.yul\":709:742   */\n          slt\n            /* \"#utility.yul\":706:759   */\n          iszero\n          tag_247\n          jumpi\n            /* \"#utility.yul\":755:756   */\n          0x00\n            /* \"#utility.yul\":752:753   */\n          dup1\n            /* \"#utility.yul\":745:757   */\n          revert\n            /* \"#utility.yul\":706:759   */\n        tag_247:\n            /* \"#utility.yul\":795:804   */\n          dup11\n            /* \"#utility.yul\":782:805   */\n          calldataload\n            /* \"#utility.yul\":824:842   */\n          0xffffffffffffffff\n            /* \"#utility.yul\":865:867   */\n          dup1\n            /* \"#utility.yul\":857:863   */\n          dup3\n            /* \"#utility.yul\":854:868   */\n          gt\n            /* \"#utility.yul\":851:885   */\n          iszero\n          tag_248\n          jumpi\n            /* \"#utility.yul\":881:882   */\n          0x00\n            /* \"#utility.yul\":878:879   */\n          dup1\n            /* \"#utility.yul\":871:883   */\n          revert\n            /* \"#utility.yul\":851:885   */\n        tag_248:\n            /* \"#utility.yul\":920:990   */\n          tag_249\n            /* \"#utility.yul\":982:989   */\n          dup15\n            /* \"#utility.yul\":973:979   */\n          dup4\n            /* \"#utility.yul\":962:971   */\n          dup16\n            /* \"#utility.yul\":958:980   */\n          add\n            /* \"#utility.yul\":920:990   */\n          tag_232\n          jump\t// in\n        tag_249:\n            /* \"#utility.yul\":1009:1017   */\n          swap1\n          swap13\n          pop\n            /* \"#utility.yul\":894:990   */\n          swap11\n          pop\n            /* \"#utility.yul\":1097:1099   */\n          0x20\n            /* \"#utility.yul\":1082:1100   */\n          dup14\n          add\n            /* \"#utility.yul\":1069:1101   */\n          calldataload\n          swap2\n          pop\n            /* \"#utility.yul\":1113:1129   */\n          dup1\n          dup3\n          gt\n            /* \"#utility.yul\":1110:1146   */\n          iszero\n          tag_250\n          jumpi\n            /* \"#utility.yul\":1142:1143   */\n          0x00\n            /* \"#utility.yul\":1139:1140   */\n          dup1\n            /* \"#utility.yul\":1132:1144   */\n          revert\n            /* \"#utility.yul\":1110:1146   */\n        tag_250:\n            /* \"#utility.yul\":1181:1253   */\n          tag_251\n            /* \"#utility.yul\":1245:1252   */\n          dup15\n            /* \"#utility.yul\":1234:1242   */\n          dup4\n            /* \"#utility.yul\":1223:1232   */\n          dup16\n            /* \"#utility.yul\":1219:1243   */\n          add\n            /* \"#utility.yul\":1181:1253   */\n          tag_232\n          jump\t// in\n        tag_251:\n            /* \"#utility.yul\":1272:1280   */\n          swap1\n          swap11\n          pop\n            /* \"#utility.yul\":1155:1253   */\n          swap9\n          pop\n            /* \"#utility.yul\":1360:1362   */\n          0x40\n            /* \"#utility.yul\":1345:1363   */\n          dup14\n          add\n            /* \"#utility.yul\":1332:1364   */\n          calldataload\n          swap2\n          pop\n            /* \"#utility.yul\":1376:1392   */\n          dup1\n          dup3\n          gt\n            /* \"#utility.yul\":1373:1409   */\n          iszero\n          tag_252\n          jumpi\n            /* \"#utility.yul\":1405:1406   */\n          0x00\n            /* \"#utility.yul\":1402:1403   */\n          dup1\n            /* \"#utility.yul\":1395:1407   */\n          revert\n            /* \"#utility.yul\":1373:1409   */\n        tag_252:\n            /* \"#utility.yul\":1444:1516   */\n          tag_253\n            /* \"#utility.yul\":1508:1515   */\n          dup15\n            /* \"#utility.yul\":1497:1505   */\n          dup4\n            /* \"#utility.yul\":1486:1495   */\n          dup16\n            /* \"#utility.yul\":1482:1506   */\n          add\n            /* \"#utility.yul\":1444:1516   */\n          tag_232\n          jump\t// in\n        tag_253:\n            /* \"#utility.yul\":1535:1543   */\n          swap1\n          swap9\n          pop\n            /* \"#utility.yul\":1418:1516   */\n          swap7\n          pop\n            /* \"#utility.yul\":1623:1625   */\n          0x60\n            /* \"#utility.yul\":1608:1626   */\n          dup14\n          add\n            /* \"#utility.yul\":1595:1627   */\n          calldataload\n          swap2\n          pop\n            /* \"#utility.yul\":1639:1655   */\n          dup1\n          dup3\n          gt\n            /* \"#utility.yul\":1636:1672   */\n          iszero\n          tag_254\n          jumpi\n            /* \"#utility.yul\":1668:1669   */\n          0x00\n            /* \"#utility.yul\":1665:1666   */\n          dup1\n            /* \"#utility.yul\":1658:1670   */\n          revert\n            /* \"#utility.yul\":1636:1672   */\n        tag_254:\n            /* \"#utility.yul\":1707:1779   */\n          tag_255\n            /* \"#utility.yul\":1771:1778   */\n          dup15\n            /* \"#utility.yul\":1760:1768   */\n          dup4\n            /* \"#utility.yul\":1749:1758   */\n          dup16\n            /* \"#utility.yul\":1745:1769   */\n          add\n            /* \"#utility.yul\":1707:1779   */\n          tag_232\n          jump\t// in\n        tag_255:\n            /* \"#utility.yul\":1798:1806   */\n          swap1\n          swap7\n          pop\n            /* \"#utility.yul\":1681:1779   */\n          swap5\n          pop\n            /* \"#utility.yul\":1886:1889   */\n          0x80\n            /* \"#utility.yul\":1871:1890   */\n          dup14\n          add\n            /* \"#utility.yul\":1858:1891   */\n          calldataload\n          swap2\n          pop\n            /* \"#utility.yul\":1903:1919   */\n          dup1\n          dup3\n          gt\n            /* \"#utility.yul\":1900:1936   */\n          iszero\n          tag_256\n          jumpi\n            /* \"#utility.yul\":1932:1933   */\n          0x00\n            /* \"#utility.yul\":1929:1930   */\n          dup1\n            /* \"#utility.yul\":1922:1934   */\n          revert\n            /* \"#utility.yul\":1900:1936   */\n        tag_256:\n          pop\n            /* \"#utility.yul\":1971:2043   */\n          tag_257\n            /* \"#utility.yul\":2035:2042   */\n          dup14\n            /* \"#utility.yul\":2024:2032   */\n          dup3\n            /* \"#utility.yul\":2013:2022   */\n          dup15\n            /* \"#utility.yul\":2009:2033   */\n          add\n            /* \"#utility.yul\":1971:2043   */\n          tag_232\n          jump\t// in\n        tag_257:\n            /* \"#utility.yul\":1945:2043   */\n          swap2\n          pop\n            /* \"#utility.yul\":2062:2070   */\n          dup1\n            /* \"#utility.yul\":2052:2070   */\n          swap4\n          pop\n          pop\n            /* \"#utility.yul\":2089:2097   */\n          dup1\n            /* \"#utility.yul\":2079:2097   */\n          swap2\n          pop\n          pop\n            /* \"#utility.yul\":386:2103   */\n          swap3\n          swap6\n          swap9\n          swap12\n          swap2\n          swap5\n          swap8\n          swap11\n          pop\n          swap3\n          swap6\n          swap9\n          pop\n          jump\t// out\n            /* \"#utility.yul\":2290:2421   */\n        tag_233:\n          sub(shl(0xa0, 0x01), 0x01)\n            /* \"#utility.yul\":2365:2396   */\n          dup2\n          and\n            /* \"#utility.yul\":2355:2397   */\n          dup2\n          eq\n            /* \"#utility.yul\":2345:2415   */\n          tag_260\n          jumpi\n            /* \"#utility.yul\":2411:2412   */\n          0x00\n            /* \"#utility.yul\":2408:2409   */\n          dup1\n            /* \"#utility.yul\":2401:2413   */\n          revert\n            /* \"#utility.yul\":2345:2415   */\n        tag_260:\n            /* \"#utility.yul\":2290:2421   */\n          pop\n          jump\t// out\n            /* \"#utility.yul\":2426:3135   */\n        tag_21:\n            /* \"#utility.yul\":2539:2545   */\n          0x00\n            /* \"#utility.yul\":2547:2553   */\n          dup1\n            /* \"#utility.yul\":2555:2561   */\n          0x00\n            /* \"#utility.yul\":2563:2569   */\n          dup1\n            /* \"#utility.yul\":2571:2577   */\n          0x00\n            /* \"#utility.yul\":2624:2627   */\n          0x80\n            /* \"#utility.yul\":2612:2621   */\n          dup7\n            /* \"#utility.yul\":2603:2610   */\n          dup9\n            /* \"#utility.yul\":2599:2622   */\n          sub\n            /* \"#utility.yul\":2595:2628   */\n          slt\n            /* \"#utility.yul\":2592:2645   */\n          iszero\n          tag_262\n          jumpi\n            /* \"#utility.yul\":2641:2642   */\n          0x00\n            /* \"#utility.yul\":2638:2639   */\n          dup1\n            /* \"#utility.yul\":2631:2643   */\n          revert\n            /* \"#utility.yul\":2592:2645   */\n        tag_262:\n            /* \"#utility.yul\":2681:2690   */\n          dup6\n            /* \"#utility.yul\":2668:2691   */\n          calldataload\n            /* \"#utility.yul\":2714:2732   */\n          0xffffffffffffffff\n            /* \"#utility.yul\":2706:2712   */\n          dup2\n            /* \"#utility.yul\":2703:2733   */\n          gt\n            /* \"#utility.yul\":2700:2750   */\n          iszero\n          tag_263\n          jumpi\n            /* \"#utility.yul\":2746:2747   */\n          0x00\n            /* \"#utility.yul\":2743:2744   */\n          dup1\n            /* \"#utility.yul\":2736:2748   */\n          revert\n            /* \"#utility.yul\":2700:2750   */\n        tag_263:\n            /* \"#utility.yul\":2785:2855   */\n          tag_264\n            /* \"#utility.yul\":2847:2854   */\n          dup9\n            /* \"#utility.yul\":2838:2844   */\n          dup3\n            /* \"#utility.yul\":2827:2836   */\n          dup10\n            /* \"#utility.yul\":2823:2845   */\n          add\n            /* \"#utility.yul\":2785:2855   */\n          tag_232\n          jump\t// in\n        tag_264:\n            /* \"#utility.yul\":2874:2882   */\n          swap1\n          swap7\n          pop\n            /* \"#utility.yul\":2759:2855   */\n          swap5\n          pop\n          pop\n            /* \"#utility.yul\":2956:2958   */\n          0x20\n            /* \"#utility.yul\":2941:2959   */\n          dup7\n          add\n            /* \"#utility.yul\":2928:2960   */\n          calldataload\n          swap3\n          pop\n            /* \"#utility.yul\":3007:3009   */\n          0x40\n            /* \"#utility.yul\":2992:3010   */\n          dup7\n          add\n            /* \"#utility.yul\":2979:3011   */\n          calldataload\n          swap2\n          pop\n            /* \"#utility.yul\":3061:3063   */\n          0x60\n            /* \"#utility.yul\":3046:3064   */\n          dup7\n          add\n            /* \"#utility.yul\":3033:3065   */\n          calldataload\n            /* \"#utility.yul\":3074:3105   */\n          tag_265\n            /* \"#utility.yul\":3033:3065   */\n          dup2\n            /* \"#utility.yul\":3074:3105   */\n          tag_233\n          jump\t// in\n        tag_265:\n            /* \"#utility.yul\":3124:3129   */\n          dup1\n            /* \"#utility.yul\":3114:3129   */\n          swap2\n          pop\n          pop\n            /* \"#utility.yul\":2426:3135   */\n          swap3\n          swap6\n          pop\n          swap3\n          swap6\n          swap1\n          swap4\n          pop\n          jump\t// out\n            /* \"#utility.yul\":3140:3455   */\n        tag_25:\n            /* \"#utility.yul\":3208:3214   */\n          0x00\n            /* \"#utility.yul\":3216:3222   */\n          dup1\n            /* \"#utility.yul\":3269:3271   */\n          0x40\n            /* \"#utility.yul\":3257:3266   */\n          dup4\n            /* \"#utility.yul\":3248:3255   */\n          dup6\n            /* \"#utility.yul\":3244:3267   */\n          sub\n            /* \"#utility.yul\":3240:3272   */\n          slt\n            /* \"#utility.yul\":3237:3289   */\n          iszero\n          tag_267\n          jumpi\n            /* \"#utility.yul\":3285:3286   */\n          0x00\n            /* \"#utility.yul\":3282:3283   */\n          dup1\n            /* \"#utility.yul\":3275:3287   */\n          revert\n            /* \"#utility.yul\":3237:3289   */\n        tag_267:\n            /* \"#utility.yul\":3324:3333   */\n          dup3\n            /* \"#utility.yul\":3311:3334   */\n          calldataload\n            /* \"#utility.yul\":3343:3374   */\n          tag_268\n            /* \"#utility.yul\":3368:3373   */\n          dup2\n            /* \"#utility.yul\":3343:3374   */\n          tag_233\n          jump\t// in\n        tag_268:\n            /* \"#utility.yul\":3393:3398   */\n          swap5\n            /* \"#utility.yul\":3445:3447   */\n          0x20\n            /* \"#utility.yul\":3430:3448   */\n          swap4\n          swap1\n          swap4\n          add\n            /* \"#utility.yul\":3417:3449   */\n          calldataload\n          swap4\n          pop\n          pop\n          pop\n            /* \"#utility.yul\":3140:3455   */\n          jump\t// out\n            /* \"#utility.yul\":3652:4200   */\n        tag_32:\n            /* \"#utility.yul\":3764:3768   */\n          0x00\n            /* \"#utility.yul\":3793:3795   */\n          0x20\n            /* \"#utility.yul\":3822:3824   */\n          dup1\n            /* \"#utility.yul\":3811:3820   */\n          dup4\n            /* \"#utility.yul\":3804:3825   */\n          mstore\n            /* \"#utility.yul\":3854:3860   */\n          dup4\n            /* \"#utility.yul\":3848:3861   */\n          mload\n            /* \"#utility.yul\":3897:3903   */\n          dup1\n            /* \"#utility.yul\":3892:3894   */\n          dup3\n            /* \"#utility.yul\":3881:3890   */\n          dup6\n            /* \"#utility.yul\":3877:3895   */\n          add\n            /* \"#utility.yul\":3870:3904   */\n          mstore\n            /* \"#utility.yul\":3922:3923   */\n          0x00\n            /* \"#utility.yul\":3932:4072   */\n        tag_271:\n            /* \"#utility.yul\":3946:3952   */\n          dup2\n            /* \"#utility.yul\":3943:3944   */\n          dup2\n            /* \"#utility.yul\":3940:3953   */\n          lt\n            /* \"#utility.yul\":3932:4072   */\n          iszero\n          tag_273\n          jumpi\n            /* \"#utility.yul\":4041:4055   */\n          dup6\n          dup2\n          add\n            /* \"#utility.yul\":4037:4060   */\n          dup4\n          add\n            /* \"#utility.yul\":4031:4061   */\n          mload\n            /* \"#utility.yul\":4007:4024   */\n          dup6\n          dup3\n          add\n            /* \"#utility.yul\":4026:4028   */\n          0x40\n            /* \"#utility.yul\":4003:4029   */\n          add\n            /* \"#utility.yul\":3996:4062   */\n          mstore\n            /* \"#utility.yul\":3961:3971   */\n          dup3\n          add\n            /* \"#utility.yul\":3932:4072   */\n          jump(tag_271)\n        tag_273:\n            /* \"#utility.yul\":3936:3939   */\n          pop\n            /* \"#utility.yul\":4121:4122   */\n          0x00\n            /* \"#utility.yul\":4116:4118   */\n          0x40\n            /* \"#utility.yul\":4107:4113   */\n          dup3\n            /* \"#utility.yul\":4096:4105   */\n          dup7\n            /* \"#utility.yul\":4092:4114   */\n          add\n            /* \"#utility.yul\":4088:4119   */\n          add\n            /* \"#utility.yul\":4081:4123   */\n          mstore\n            /* \"#utility.yul\":4191:4193   */\n          0x40\n            /* \"#utility.yul\":4184:4186   */\n          0x1f\n            /* \"#utility.yul\":4180:4187   */\n          not\n            /* \"#utility.yul\":4175:4177   */\n          0x1f\n            /* \"#utility.yul\":4167:4173   */\n          dup4\n            /* \"#utility.yul\":4163:4178   */\n          add\n            /* \"#utility.yul\":4159:4188   */\n          and\n            /* \"#utility.yul\":4148:4157   */\n          dup6\n            /* \"#utility.yul\":4144:4189   */\n          add\n            /* \"#utility.yul\":4140:4194   */\n          add\n            /* \"#utility.yul\":4132:4194   */\n          swap3\n          pop\n          pop\n          pop\n            /* \"#utility.yul\":3652:4200   */\n          swap3\n          swap2\n          pop\n          pop\n          jump\t// out\n            /* \"#utility.yul\":4413:4540   */\n        tag_99:\n            /* \"#utility.yul\":4474:4484   */\n          0x4e487b71\n            /* \"#utility.yul\":4469:4472   */\n          0xe0\n            /* \"#utility.yul\":4465:4485   */\n          shl\n            /* \"#utility.yul\":4462:4463   */\n          0x00\n            /* \"#utility.yul\":4455:4486   */\n          mstore\n            /* \"#utility.yul\":4505:4509   */\n          0x41\n            /* \"#utility.yul\":4502:4503   */\n          0x04\n            /* \"#utility.yul\":4495:4510   */\n          mstore\n            /* \"#utility.yul\":4529:4533   */\n          0x24\n            /* \"#utility.yul\":4526:4527   */\n          0x00\n            /* \"#utility.yul\":4519:4534   */\n          revert\n            /* \"#utility.yul\":4545:5670   */\n        tag_39:\n            /* \"#utility.yul\":4632:4638   */\n          0x00\n            /* \"#utility.yul\":4640:4646   */\n          dup1\n            /* \"#utility.yul\":4648:4654   */\n          0x00\n            /* \"#utility.yul\":4701:4703   */\n          0x60\n            /* \"#utility.yul\":4689:4698   */\n          dup5\n            /* \"#utility.yul\":4680:4687   */\n          dup7\n            /* \"#utility.yul\":4676:4699   */\n          sub\n            /* \"#utility.yul\":4672:4704   */\n          slt\n            /* \"#utility.yul\":4669:4721   */\n          iszero\n          tag_277\n          jumpi\n            /* \"#utility.yul\":4717:4718   */\n          0x00\n            /* \"#utility.yul\":4714:4715   */\n          dup1\n            /* \"#utility.yul\":4707:4719   */\n          revert\n            /* \"#utility.yul\":4669:4721   */\n        tag_277:\n            /* \"#utility.yul\":4756:4765   */\n          dup4\n            /* \"#utility.yul\":4743:4766   */\n          calldataload\n            /* \"#utility.yul\":4775:4806   */\n          tag_278\n            /* \"#utility.yul\":4800:4805   */\n          dup2\n            /* \"#utility.yul\":4775:4806   */\n          tag_233\n          jump\t// in\n        tag_278:\n            /* \"#utility.yul\":4825:4830   */\n          swap3\n          pop\n            /* \"#utility.yul\":4877:4879   */\n          0x20\n            /* \"#utility.yul\":4862:4880   */\n          dup5\n          add\n            /* \"#utility.yul\":4849:4881   */\n          calldataload\n          swap2\n          pop\n            /* \"#utility.yul\":4932:4934   */\n          0x40\n            /* \"#utility.yul\":4917:4935   */\n          dup5\n          add\n            /* \"#utility.yul\":4904:4936   */\n          calldataload\n            /* \"#utility.yul\":4955:4973   */\n          0xffffffffffffffff\n            /* \"#utility.yul\":4985:4999   */\n          dup1\n          dup3\n          gt\n            /* \"#utility.yul\":4982:5016   */\n          iszero\n          tag_279\n          jumpi\n            /* \"#utility.yul\":5012:5013   */\n          0x00\n            /* \"#utility.yul\":5009:5010   */\n          dup1\n            /* \"#utility.yul\":5002:5014   */\n          revert\n            /* \"#utility.yul\":4982:5016   */\n        tag_279:\n            /* \"#utility.yul\":5050:5056   */\n          dup2\n            /* \"#utility.yul\":5039:5048   */\n          dup7\n            /* \"#utility.yul\":5035:5057   */\n          add\n            /* \"#utility.yul\":5025:5057   */\n          swap2\n          pop\n            /* \"#utility.yul\":5095:5102   */\n          dup7\n            /* \"#utility.yul\":5088:5092   */\n          0x1f\n            /* \"#utility.yul\":5084:5086   */\n          dup4\n            /* \"#utility.yul\":5080:5093   */\n          add\n            /* \"#utility.yul\":5076:5103   */\n          slt\n            /* \"#utility.yul\":5066:5121   */\n          tag_280\n          jumpi\n            /* \"#utility.yul\":5117:5118   */\n          0x00\n            /* \"#utility.yul\":5114:5115   */\n          dup1\n            /* \"#utility.yul\":5107:5119   */\n          revert\n            /* \"#utility.yul\":5066:5121   */\n        tag_280:\n            /* \"#utility.yul\":5153:5155   */\n          dup2\n            /* \"#utility.yul\":5140:5156   */\n          calldataload\n            /* \"#utility.yul\":5175:5177   */\n          dup2\n            /* \"#utility.yul\":5171:5173   */\n          dup2\n            /* \"#utility.yul\":5168:5178   */\n          gt\n            /* \"#utility.yul\":5165:5201   */\n          iszero\n          tag_282\n          jumpi\n            /* \"#utility.yul\":5181:5199   */\n          tag_282\n          tag_99\n          jump\t// in\n        tag_282:\n            /* \"#utility.yul\":5256:5258   */\n          0x40\n            /* \"#utility.yul\":5250:5259   */\n          mload\n            /* \"#utility.yul\":5224:5226   */\n          0x1f\n            /* \"#utility.yul\":5310:5323   */\n          dup3\n          add\n          not(0x1f)\n            /* \"#utility.yul\":5306:5328   */\n          swap1\n          dup2\n          and\n            /* \"#utility.yul\":5330:5332   */\n          0x3f\n            /* \"#utility.yul\":5302:5333   */\n          add\n            /* \"#utility.yul\":5298:5338   */\n          and\n            /* \"#utility.yul\":5286:5339   */\n          dup2\n          add\n          swap1\n            /* \"#utility.yul\":5354:5372   */\n          dup4\n          dup3\n          gt\n            /* \"#utility.yul\":5374:5396   */\n          dup2\n          dup4\n          lt\n            /* \"#utility.yul\":5351:5397   */\n          or\n            /* \"#utility.yul\":5348:5420   */\n          iszero\n          tag_284\n          jumpi\n            /* \"#utility.yul\":5400:5418   */\n          tag_284\n          tag_99\n          jump\t// in\n        tag_284:\n            /* \"#utility.yul\":5440:5450   */\n          dup2\n            /* \"#utility.yul\":5436:5438   */\n          0x40\n            /* \"#utility.yul\":5429:5451   */\n          mstore\n            /* \"#utility.yul\":5475:5477   */\n          dup3\n            /* \"#utility.yul\":5467:5473   */\n          dup2\n            /* \"#utility.yul\":5460:5478   */\n          mstore\n            /* \"#utility.yul\":5515:5522   */\n          dup10\n            /* \"#utility.yul\":5510:5512   */\n          0x20\n            /* \"#utility.yul\":5505:5507   */\n          dup5\n            /* \"#utility.yul\":5501:5503   */\n          dup8\n            /* \"#utility.yul\":5497:5508   */\n          add\n            /* \"#utility.yul\":5493:5513   */\n          add\n            /* \"#utility.yul\":5490:5523   */\n          gt\n            /* \"#utility.yul\":5487:5540   */\n          iszero\n          tag_285\n          jumpi\n            /* \"#utility.yul\":5536:5537   */\n          0x00\n            /* \"#utility.yul\":5533:5534   */\n          dup1\n            /* \"#utility.yul\":5526:5538   */\n          revert\n            /* \"#utility.yul\":5487:5540   */\n        tag_285:\n            /* \"#utility.yul\":5592:5594   */\n          dup3\n            /* \"#utility.yul\":5587:5589   */\n          0x20\n            /* \"#utility.yul\":5583:5585   */\n          dup7\n            /* \"#utility.yul\":5579:5590   */\n          add\n            /* \"#utility.yul\":5574:5576   */\n          0x20\n            /* \"#utility.yul\":5566:5572   */\n          dup4\n            /* \"#utility.yul\":5562:5577   */\n          add\n            /* \"#utility.yul\":5549:5595   */\n          calldatacopy\n            /* \"#utility.yul\":5637:5638   */\n          0x00\n            /* \"#utility.yul\":5632:5634   */\n          0x20\n            /* \"#utility.yul\":5627:5629   */\n          dup5\n            /* \"#utility.yul\":5619:5625   */\n          dup4\n            /* \"#utility.yul\":5615:5630   */\n          add\n            /* \"#utility.yul\":5611:5635   */\n          add\n            /* \"#utility.yul\":5604:5639   */\n          mstore\n            /* \"#utility.yul\":5658:5664   */\n          dup1\n            /* \"#utility.yul\":5648:5664   */\n          swap6\n          pop\n          pop\n          pop\n          pop\n          pop\n          pop\n            /* \"#utility.yul\":4545:5670   */\n          swap3\n          pop\n          swap3\n          pop\n          swap3\n          jump\t// out\n            /* \"#utility.yul\":5954:6072   */\n        tag_234:\n            /* \"#utility.yul\":6040:6045   */\n          dup1\n            /* \"#utility.yul\":6033:6046   */\n          iszero\n            /* \"#utility.yul\":6026:6047   */\n          iszero\n            /* \"#utility.yul\":6019:6024   */\n          dup2\n            /* \"#utility.yul\":6016:6048   */\n          eq\n            /* \"#utility.yul\":6006:6066   */\n          tag_260\n          jumpi\n            /* \"#utility.yul\":6062:6063   */\n          0x00\n            /* \"#utility.yul\":6059:6060   */\n          dup1\n            /* \"#utility.yul\":6052:6064   */\n          revert\n            /* \"#utility.yul\":6077:6322   */\n        tag_52:\n            /* \"#utility.yul\":6144:6150   */\n          0x00\n            /* \"#utility.yul\":6197:6199   */\n          0x20\n            /* \"#utility.yul\":6185:6194   */\n          dup3\n            /* \"#utility.yul\":6176:6183   */\n          dup5\n            /* \"#utility.yul\":6172:6195   */\n          sub\n            /* \"#utility.yul\":6168:6200   */\n          slt\n            /* \"#utility.yul\":6165:6217   */\n          iszero\n          tag_290\n          jumpi\n            /* \"#utility.yul\":6213:6214   */\n          0x00\n            /* \"#utility.yul\":6210:6211   */\n          dup1\n            /* \"#utility.yul\":6203:6215   */\n          revert\n            /* \"#utility.yul\":6165:6217   */\n        tag_290:\n            /* \"#utility.yul\":6245:6254   */\n          dup2\n            /* \"#utility.yul\":6239:6255   */\n          mload\n            /* \"#utility.yul\":6264:6292   */\n          tag_222\n            /* \"#utility.yul\":6286:6291   */\n          dup2\n            /* \"#utility.yul\":6264:6292   */\n          tag_234\n          jump\t// in\n            /* \"#utility.yul\":6327:6638   */\n        tag_235:\n            /* \"#utility.yul\":6415:6434   */\n          dup2\n          dup4\n          mstore\n            /* \"#utility.yul\":6397:6400   */\n          0x00\n          sub(shl(0xfb, 0x01), 0x01)\n            /* \"#utility.yul\":6446:6477   */\n          dup4\n          gt\n            /* \"#utility.yul\":6443:6494   */\n          iszero\n          tag_293\n          jumpi\n            /* \"#utility.yul\":6490:6491   */\n          0x00\n            /* \"#utility.yul\":6487:6488   */\n          dup1\n            /* \"#utility.yul\":6480:6492   */\n          revert\n            /* \"#utility.yul\":6443:6494   */\n        tag_293:\n            /* \"#utility.yul\":6526:6532   */\n          dup3\n            /* \"#utility.yul\":6523:6524   */\n          0x05\n            /* \"#utility.yul\":6519:6533   */\n          shl\n            /* \"#utility.yul\":6578:6586   */\n          dup1\n            /* \"#utility.yul\":6571:6576   */\n          dup4\n            /* \"#utility.yul\":6564:6568   */\n          0x20\n            /* \"#utility.yul\":6559:6562   */\n          dup8\n            /* \"#utility.yul\":6555:6569   */\n          add\n            /* \"#utility.yul\":6542:6587   */\n          calldatacopy\n            /* \"#utility.yul\":6607:6625   */\n          swap4\n          swap1\n          swap4\n          add\n            /* \"#utility.yul\":6627:6631   */\n          0x20\n            /* \"#utility.yul\":6603:6632   */\n          add\n          swap4\n            /* \"#utility.yul\":6327:6638   */\n          swap3\n          pop\n          pop\n          pop\n          jump\t// out\n            /* \"#utility.yul\":6643:7778   */\n        tag_54:\n            /* \"#utility.yul\":7008:7010   */\n          0x60\n            /* \"#utility.yul\":6997:7006   */\n          dup2\n            /* \"#utility.yul\":6990:7011   */\n          mstore\n            /* \"#utility.yul\":6971:6975   */\n          0x00\n            /* \"#utility.yul\":7034:7107   */\n          tag_295\n            /* \"#utility.yul\":7103:7105   */\n          0x60\n            /* \"#utility.yul\":7092:7101   */\n          dup4\n            /* \"#utility.yul\":7088:7106   */\n          add\n            /* \"#utility.yul\":7080:7086   */\n          dup9\n            /* \"#utility.yul\":7072:7078   */\n          dup11\n            /* \"#utility.yul\":7034:7107   */\n          tag_235\n          jump\t// in\n        tag_295:\n            /* \"#utility.yul\":7126:7128   */\n          0x20\n            /* \"#utility.yul\":7176:7185   */\n          dup4\n            /* \"#utility.yul\":7168:7174   */\n          dup3\n            /* \"#utility.yul\":7164:7186   */\n          sub\n            /* \"#utility.yul\":7159:7161   */\n          dup2\n            /* \"#utility.yul\":7148:7157   */\n          dup6\n            /* \"#utility.yul\":7144:7162   */\n          add\n            /* \"#utility.yul\":7137:7187   */\n          mstore\n            /* \"#utility.yul\":7210:7271   */\n          tag_296\n            /* \"#utility.yul\":7264:7270   */\n          dup3\n            /* \"#utility.yul\":7256:7262   */\n          dup9\n            /* \"#utility.yul\":7248:7254   */\n          dup11\n            /* \"#utility.yul\":7210:7271   */\n          tag_235\n          jump\t// in\n        tag_296:\n            /* \"#utility.yul\":7307:7329   */\n          dup5\n          dup2\n          sub\n            /* \"#utility.yul\":7302:7304   */\n          0x40\n            /* \"#utility.yul\":7287:7305   */\n          dup7\n          add\n            /* \"#utility.yul\":7280:7330   */\n          mstore\n            /* \"#utility.yul\":7365:7387   */\n          dup6\n          dup2\n          mstore\n            /* \"#utility.yul\":7441:7447   */\n          dup7\n          swap3\n          pop\n            /* \"#utility.yul\":7403:7418   */\n          dup2\n          add\n            /* \"#utility.yul\":7465:7466   */\n          0x00\n            /* \"#utility.yul\":7475:7752   */\n        tag_297:\n            /* \"#utility.yul\":7489:7495   */\n          dup7\n            /* \"#utility.yul\":7486:7487   */\n          dup2\n            /* \"#utility.yul\":7483:7496   */\n          lt\n            /* \"#utility.yul\":7475:7752   */\n          iszero\n          tag_299\n          jumpi\n            /* \"#utility.yul\":7564:7570   */\n          dup4\n            /* \"#utility.yul\":7551:7571   */\n          calldataload\n            /* \"#utility.yul\":7584:7615   */\n          tag_300\n            /* \"#utility.yul\":7609:7614   */\n          dup2\n            /* \"#utility.yul\":7584:7615   */\n          tag_233\n          jump\t// in\n        tag_300:\n          sub(shl(0xa0, 0x01), 0x01)\n            /* \"#utility.yul\":7640:7671   */\n          and\n            /* \"#utility.yul\":7628:7672   */\n          dup3\n          mstore\n            /* \"#utility.yul\":7727:7742   */\n          swap3\n          dup3\n          add\n          swap3\n            /* \"#utility.yul\":7692:7704   */\n          swap1\n          dup3\n          add\n          swap1\n            /* \"#utility.yul\":7668:7669   */\n          0x01\n            /* \"#utility.yul\":7504:7513   */\n          add\n            /* \"#utility.yul\":7475:7752   */\n          jump(tag_297)\n        tag_299:\n          pop\n            /* \"#utility.yul\":7769:7772   */\n          swap11\n            /* \"#utility.yul\":6643:7778   */\n          swap10\n          pop\n          pop\n          pop\n          pop\n          pop\n          pop\n          pop\n          pop\n          pop\n          pop\n          jump\t// out\n            /* \"#utility.yul\":8133:8260   */\n        tag_236:\n            /* \"#utility.yul\":8194:8204   */\n          0x4e487b71\n            /* \"#utility.yul\":8189:8192   */\n          0xe0\n            /* \"#utility.yul\":8185:8205   */\n          shl\n            /* \"#utility.yul\":8182:8183   */\n          0x00\n            /* \"#utility.yul\":8175:8206   */\n          mstore\n            /* \"#utility.yul\":8225:8229   */\n          0x12\n            /* \"#utility.yul\":8222:8223   */\n          0x04\n            /* \"#utility.yul\":8215:8230   */\n          mstore\n            /* \"#utility.yul\":8249:8253   */\n          0x24\n            /* \"#utility.yul\":8246:8247   */\n          0x00\n            /* \"#utility.yul\":8239:8254   */\n          revert\n            /* \"#utility.yul\":8265:8392   */\n        tag_237:\n            /* \"#utility.yul\":8326:8336   */\n          0x4e487b71\n            /* \"#utility.yul\":8321:8324   */\n          0xe0\n            /* \"#utility.yul\":8317:8337   */\n          shl\n            /* \"#utility.yul\":8314:8315   */\n          0x00\n            /* \"#utility.yul\":8307:8338   */\n          mstore\n            /* \"#utility.yul\":8357:8361   */\n          0x11\n            /* \"#utility.yul\":8354:8355   */\n          0x04\n            /* \"#utility.yul\":8347:8362   */\n          mstore\n            /* \"#utility.yul\":8381:8385   */\n          0x24\n            /* \"#utility.yul\":8378:8379   */\n          0x00\n            /* \"#utility.yul\":8371:8386   */\n          revert\n            /* \"#utility.yul\":8397:8517   */\n        tag_68:\n            /* \"#utility.yul\":8437:8438   */\n          0x00\n            /* \"#utility.yul\":8463:8464   */\n          dup3\n            /* \"#utility.yul\":8453:8488   */\n          tag_306\n          jumpi\n            /* \"#utility.yul\":8468:8486   */\n          tag_306\n          tag_236\n          jump\t// in\n        tag_306:\n          pop\n            /* \"#utility.yul\":8502:8511   */\n          div\n          swap1\n            /* \"#utility.yul\":8397:8517   */\n          jump\t// out\n            /* \"#utility.yul\":8522:8634   */\n        tag_70:\n            /* \"#utility.yul\":8554:8555   */\n          0x00\n            /* \"#utility.yul\":8580:8581   */\n          dup3\n            /* \"#utility.yul\":8570:8605   */\n          tag_309\n          jumpi\n            /* \"#utility.yul\":8585:8603   */\n          tag_309\n          tag_236\n          jump\t// in\n        tag_309:\n          pop\n            /* \"#utility.yul\":8619:8628   */\n          mod\n          swap1\n            /* \"#utility.yul\":8522:8634   */\n          jump\t// out\n            /* \"#utility.yul\":8639:9019   */\n        tag_72:\n            /* \"#utility.yul\":8718:8719   */\n          0x01\n            /* \"#utility.yul\":8714:8726   */\n          dup2\n          dup2\n          shr\n          swap1\n            /* \"#utility.yul\":8761:8773   */\n          dup3\n          and\n          dup1\n            /* \"#utility.yul\":8782:8843   */\n          tag_311\n          jumpi\n            /* \"#utility.yul\":8836:8840   */\n          0x7f\n            /* \"#utility.yul\":8828:8834   */\n          dup3\n            /* \"#utility.yul\":8824:8841   */\n          and\n            /* \"#utility.yul\":8814:8841   */\n          swap2\n          pop\n            /* \"#utility.yul\":8782:8843   */\n        tag_311:\n            /* \"#utility.yul\":8889:8891   */\n          0x20\n            /* \"#utility.yul\":8881:8887   */\n          dup3\n            /* \"#utility.yul\":8878:8892   */\n          lt\n            /* \"#utility.yul\":8858:8876   */\n          dup2\n            /* \"#utility.yul\":8855:8893   */\n          sub\n            /* \"#utility.yul\":8852:9013   */\n          tag_312\n          jumpi\n            /* \"#utility.yul\":8935:8945   */\n          0x4e487b71\n            /* \"#utility.yul\":8930:8933   */\n          0xe0\n            /* \"#utility.yul\":8926:8946   */\n          shl\n            /* \"#utility.yul\":8923:8924   */\n          0x00\n            /* \"#utility.yul\":8916:8947   */\n          mstore\n            /* \"#utility.yul\":8970:8974   */\n          0x22\n            /* \"#utility.yul\":8967:8968   */\n          0x04\n            /* \"#utility.yul\":8960:8975   */\n          mstore\n            /* \"#utility.yul\":8998:9002   */\n          0x24\n            /* \"#utility.yul\":8995:8996   */\n          0x00\n            /* \"#utility.yul\":8988:9003   */\n          revert\n            /* \"#utility.yul\":8852:9013   */\n        tag_312:\n          pop\n            /* \"#utility.yul\":8639:9019   */\n          swap2\n          swap1\n          pop\n          jump\t// out\n            /* \"#utility.yul\":9565:10110   */\n        tag_239:\n            /* \"#utility.yul\":9667:9669   */\n          0x1f\n            /* \"#utility.yul\":9662:9665   */\n          dup3\n            /* \"#utility.yul\":9659:9670   */\n          gt\n            /* \"#utility.yul\":9656:10104   */\n          iszero\n          tag_316\n          jumpi\n            /* \"#utility.yul\":9703:9704   */\n          0x00\n            /* \"#utility.yul\":9728:9733   */\n          dup2\n            /* \"#utility.yul\":9724:9726   */\n          dup2\n            /* \"#utility.yul\":9717:9734   */\n          mstore\n            /* \"#utility.yul\":9773:9777   */\n          0x20\n            /* \"#utility.yul\":9769:9771   */\n          dup2\n            /* \"#utility.yul\":9759:9778   */\n          keccak256\n            /* \"#utility.yul\":9843:9845   */\n          0x1f\n            /* \"#utility.yul\":9831:9841   */\n          dup6\n            /* \"#utility.yul\":9827:9846   */\n          add\n            /* \"#utility.yul\":9824:9825   */\n          0x05\n            /* \"#utility.yul\":9820:9847   */\n          shr\n            /* \"#utility.yul\":9814:9818   */\n          dup2\n            /* \"#utility.yul\":9810:9848   */\n          add\n            /* \"#utility.yul\":9879:9883   */\n          0x20\n            /* \"#utility.yul\":9867:9877   */\n          dup7\n            /* \"#utility.yul\":9864:9884   */\n          lt\n            /* \"#utility.yul\":9861:9908   */\n          iszero\n          tag_317\n          jumpi\n          pop\n            /* \"#utility.yul\":9902:9906   */\n          dup1\n            /* \"#utility.yul\":9861:9908   */\n        tag_317:\n            /* \"#utility.yul\":9957:9959   */\n          0x1f\n            /* \"#utility.yul\":9952:9955   */\n          dup6\n            /* \"#utility.yul\":9948:9960   */\n          add\n            /* \"#utility.yul\":9945:9946   */\n          0x05\n            /* \"#utility.yul\":9941:9961   */\n          shr\n            /* \"#utility.yul\":9935:9939   */\n          dup3\n            /* \"#utility.yul\":9931:9962   */\n          add\n            /* \"#utility.yul\":9921:9962   */\n          swap2\n          pop\n            /* \"#utility.yul\":10012:10094   */\n        tag_318:\n            /* \"#utility.yul\":10030:10032   */\n          dup2\n            /* \"#utility.yul\":10023:10028   */\n          dup2\n            /* \"#utility.yul\":10020:10033   */\n          lt\n            /* \"#utility.yul\":10012:10094   */\n          iszero\n          tag_152\n          jumpi\n            /* \"#utility.yul\":10075:10092   */\n          dup3\n          dup2\n          sstore\n            /* \"#utility.yul\":10056:10057   */\n          0x01\n            /* \"#utility.yul\":10045:10058   */\n          add\n            /* \"#utility.yul\":10012:10094   */\n          jump(tag_318)\n            /* \"#utility.yul\":9656:10104   */\n        tag_316:\n            /* \"#utility.yul\":9565:10110   */\n          pop\n          pop\n          pop\n          jump\t// out\n            /* \"#utility.yul\":10286:11638   */\n        tag_89:\n            /* \"#utility.yul\":10412:10415   */\n          dup2\n            /* \"#utility.yul\":10406:10416   */\n          mload\n            /* \"#utility.yul\":10439:10457   */\n          0xffffffffffffffff\n            /* \"#utility.yul\":10431:10437   */\n          dup2\n            /* \"#utility.yul\":10428:10458   */\n          gt\n            /* \"#utility.yul\":10425:10481   */\n          iszero\n          tag_324\n          jumpi\n            /* \"#utility.yul\":10461:10479   */\n          tag_324\n          tag_99\n          jump\t// in\n        tag_324:\n            /* \"#utility.yul\":10490:10587   */\n          tag_325\n            /* \"#utility.yul\":10580:10586   */\n          dup2\n            /* \"#utility.yul\":10540:10578   */\n          tag_326\n            /* \"#utility.yul\":10572:10576   */\n          dup5\n            /* \"#utility.yul\":10566:10577   */\n          sload\n            /* \"#utility.yul\":10540:10578   */\n          tag_72\n          jump\t// in\n        tag_326:\n            /* \"#utility.yul\":10534:10538   */\n          dup5\n            /* \"#utility.yul\":10490:10587   */\n          tag_239\n          jump\t// in\n        tag_325:\n            /* \"#utility.yul\":10642:10646   */\n          0x20\n          dup1\n            /* \"#utility.yul\":10706:10708   */\n          0x1f\n            /* \"#utility.yul\":10695:10709   */\n          dup4\n          gt\n            /* \"#utility.yul\":10723:10724   */\n          0x01\n            /* \"#utility.yul\":10718:11381   */\n          dup2\n          eq\n          tag_328\n          jumpi\n            /* \"#utility.yul\":11425:11426   */\n          0x00\n            /* \"#utility.yul\":11442:11448   */\n          dup5\n            /* \"#utility.yul\":11439:11528   */\n          iszero\n          tag_329\n          jumpi\n          pop\n            /* \"#utility.yul\":11494:11513   */\n          dup6\n          dup4\n          add\n            /* \"#utility.yul\":11488:11514   */\n          mload\n            /* \"#utility.yul\":11439:11528   */\n        tag_329:\n          not(0x00)\n            /* \"#utility.yul\":10243:10244   */\n          0x03\n            /* \"#utility.yul\":10239:10250   */\n          dup7\n          swap1\n          shl\n            /* \"#utility.yul\":10235:10259   */\n          shr\n            /* \"#utility.yul\":10231:10260   */\n          not\n            /* \"#utility.yul\":10221:10261   */\n          and\n            /* \"#utility.yul\":10267:10268   */\n          0x01\n            /* \"#utility.yul\":10263:10274   */\n          dup6\n          swap1\n          shl\n            /* \"#utility.yul\":10218:10275   */\n          or\n            /* \"#utility.yul\":11541:11622   */\n          dup6\n          sstore\n            /* \"#utility.yul\":10688:11632   */\n          jump(tag_152)\n            /* \"#utility.yul\":10718:11381   */\n        tag_328:\n            /* \"#utility.yul\":9512:9513   */\n          0x00\n            /* \"#utility.yul\":9505:9519   */\n          dup6\n          dup2\n          mstore\n            /* \"#utility.yul\":9549:9553   */\n          0x20\n            /* \"#utility.yul\":9536:9554   */\n          dup2\n          keccak256\n          not(0x1f)\n            /* \"#utility.yul\":10754:10774   */\n          dup7\n          and\n          swap2\n            /* \"#utility.yul\":10872:11108   */\n        tag_332:\n            /* \"#utility.yul\":10886:10893   */\n          dup3\n            /* \"#utility.yul\":10883:10884   */\n          dup2\n            /* \"#utility.yul\":10880:10894   */\n          lt\n            /* \"#utility.yul\":10872:11108   */\n          iszero\n          tag_334\n          jumpi\n            /* \"#utility.yul\":10975:10994   */\n          dup9\n          dup7\n          add\n            /* \"#utility.yul\":10969:10995   */\n          mload\n            /* \"#utility.yul\":10954:10996   */\n          dup3\n          sstore\n            /* \"#utility.yul\":11067:11094   */\n          swap5\n          dup5\n          add\n          swap5\n            /* \"#utility.yul\":11035:11036   */\n          0x01\n            /* \"#utility.yul\":11023:11037   */\n          swap1\n          swap2\n          add\n          swap1\n            /* \"#utility.yul\":10902:10921   */\n          dup5\n          add\n            /* \"#utility.yul\":10872:11108   */\n          jump(tag_332)\n        tag_334:\n            /* \"#utility.yul\":10876:10879   */\n          pop\n            /* \"#utility.yul\":11136:11142   */\n          dup6\n            /* \"#utility.yul\":11127:11134   */\n          dup3\n            /* \"#utility.yul\":11124:11143   */\n          lt\n            /* \"#utility.yul\":11121:11322   */\n          iszero\n          tag_335\n          jumpi\n            /* \"#utility.yul\":11197:11216   */\n          dup8\n          dup6\n          add\n            /* \"#utility.yul\":11191:11217   */\n          mload\n          not(0x00)\n            /* \"#utility.yul\":11280:11281   */\n          0x03\n            /* \"#utility.yul\":11276:11290   */\n          dup9\n          swap1\n          shl\n            /* \"#utility.yul\":11292:11295   */\n          0xf8\n            /* \"#utility.yul\":11272:11296   */\n          and\n            /* \"#utility.yul\":11268:11305   */\n          shr\n            /* \"#utility.yul\":11264:11306   */\n          not\n            /* \"#utility.yul\":11249:11307   */\n          and\n            /* \"#utility.yul\":11234:11308   */\n          dup2\n          sstore\n            /* \"#utility.yul\":11121:11322   */\n        tag_335:\n          pop\n          pop\n          pop\n          pop\n          pop\n            /* \"#utility.yul\":11368:11369   */\n          0x01\n            /* \"#utility.yul\":11352:11366   */\n          swap1\n          dup2\n          shl\n            /* \"#utility.yul\":11348:11370   */\n          add\n            /* \"#utility.yul\":11335:11371   */\n          swap1\n          sstore\n          pop\n            /* \"#utility.yul\":10286:11638   */\n          jump\t// out\n            /* \"#utility.yul\":12258:12385   */\n        tag_106:\n            /* \"#utility.yul\":12319:12329   */\n          0x4e487b71\n            /* \"#utility.yul\":12314:12317   */\n          0xe0\n            /* \"#utility.yul\":12310:12330   */\n          shl\n            /* \"#utility.yul\":12307:12308   */\n          0x00\n            /* \"#utility.yul\":12300:12331   */\n          mstore\n            /* \"#utility.yul\":12350:12354   */\n          0x32\n            /* \"#utility.yul\":12347:12348   */\n          0x04\n            /* \"#utility.yul\":12340:12355   */\n          mstore\n            /* \"#utility.yul\":12374:12378   */\n          0x24\n            /* \"#utility.yul\":12371:12372   */\n          0x00\n            /* \"#utility.yul\":12364:12379   */\n          revert\n            /* \"#utility.yul\":12390:12637   */\n        tag_112:\n            /* \"#utility.yul\":12449:12455   */\n          0x00\n            /* \"#utility.yul\":12502:12504   */\n          0x20\n            /* \"#utility.yul\":12490:12499   */\n          dup3\n            /* \"#utility.yul\":12481:12488   */\n          dup5\n            /* \"#utility.yul\":12477:12500   */\n          sub\n            /* \"#utility.yul\":12473:12505   */\n          slt\n            /* \"#utility.yul\":12470:12522   */\n          iszero\n          tag_340\n          jumpi\n            /* \"#utility.yul\":12518:12519   */\n          0x00\n            /* \"#utility.yul\":12515:12516   */\n          dup1\n            /* \"#utility.yul\":12508:12520   */\n          revert\n            /* \"#utility.yul\":12470:12522   */\n        tag_340:\n            /* \"#utility.yul\":12557:12566   */\n          dup2\n            /* \"#utility.yul\":12544:12567   */\n          calldataload\n            /* \"#utility.yul\":12576:12607   */\n          tag_222\n            /* \"#utility.yul\":12601:12606   */\n          dup2\n            /* \"#utility.yul\":12576:12607   */\n          tag_233\n          jump\t// in\n            /* \"#utility.yul\":12824:13075   */\n        tag_120:\n            /* \"#utility.yul\":12894:12900   */\n          0x00\n            /* \"#utility.yul\":12947:12949   */\n          0x20\n            /* \"#utility.yul\":12935:12944   */\n          dup3\n            /* \"#utility.yul\":12926:12933   */\n          dup5\n            /* \"#utility.yul\":12922:12945   */\n          sub\n            /* \"#utility.yul\":12918:12950   */\n          slt\n            /* \"#utility.yul\":12915:12967   */\n          iszero\n          tag_344\n          jumpi\n            /* \"#utility.yul\":12963:12964   */\n          0x00\n            /* \"#utility.yul\":12960:12961   */\n          dup1\n            /* \"#utility.yul\":12953:12965   */\n          revert\n            /* \"#utility.yul\":12915:12967   */\n        tag_344:\n            /* \"#utility.yul\":12995:13004   */\n          dup2\n            /* \"#utility.yul\":12989:13005   */\n          mload\n            /* \"#utility.yul\":13014:13045   */\n          tag_222\n            /* \"#utility.yul\":13039:13044   */\n          dup2\n            /* \"#utility.yul\":13014:13045   */\n          tag_233\n          jump\t// in\n            /* \"#utility.yul\":14034:14159   */\n        tag_132:\n            /* \"#utility.yul\":14099:14108   */\n          dup1\n          dup3\n          add\n            /* \"#utility.yul\":14120:14130   */\n          dup1\n          dup3\n          gt\n            /* \"#utility.yul\":14117:14153   */\n          iszero\n          tag_66\n          jumpi\n            /* \"#utility.yul\":14133:14151   */\n          tag_66\n          tag_237\n          jump\t// in\n            /* \"#utility.yul\":14164:14299   */\n        tag_134:\n            /* \"#utility.yul\":14203:14206   */\n          0x00\n            /* \"#utility.yul\":14224:14241   */\n          0x01\n          dup3\n          add\n            /* \"#utility.yul\":14221:14264   */\n          tag_354\n          jumpi\n            /* \"#utility.yul\":14244:14262   */\n          tag_354\n          tag_237\n          jump\t// in\n        tag_354:\n          pop\n            /* \"#utility.yul\":14291:14292   */\n          0x01\n            /* \"#utility.yul\":14280:14293   */\n          add\n          swap1\n            /* \"#utility.yul\":14164:14299   */\n          jump\t// out\n            /* \"#utility.yul\":15001:15129   */\n        tag_162:\n            /* \"#utility.yul\":15068:15077   */\n          dup2\n          dup2\n          sub\n            /* \"#utility.yul\":15089:15100   */\n          dup2\n          dup2\n          gt\n            /* \"#utility.yul\":15086:15123   */\n          iszero\n          tag_66\n          jumpi\n            /* \"#utility.yul\":15103:15121   */\n          tag_66\n          tag_237\n          jump\t// in\n            /* \"#utility.yul\":15494:15735   */\n        tag_183:\n            /* \"#utility.yul\":15550:15556   */\n          0x00\n            /* \"#utility.yul\":15603:15605   */\n          0x20\n            /* \"#utility.yul\":15591:15600   */\n          dup3\n            /* \"#utility.yul\":15582:15589   */\n          dup5\n            /* \"#utility.yul\":15578:15601   */\n          sub\n            /* \"#utility.yul\":15574:15606   */\n          slt\n            /* \"#utility.yul\":15571:15623   */\n          iszero\n          tag_362\n          jumpi\n            /* \"#utility.yul\":15619:15620   */\n          0x00\n            /* \"#utility.yul\":15616:15617   */\n          dup1\n            /* \"#utility.yul\":15609:15621   */\n          revert\n            /* \"#utility.yul\":15571:15623   */\n        tag_362:\n            /* \"#utility.yul\":15658:15667   */\n          dup2\n            /* \"#utility.yul\":15645:15668   */\n          calldataload\n            /* \"#utility.yul\":15677:15705   */\n          tag_222\n            /* \"#utility.yul\":15699:15704   */\n          dup2\n            /* \"#utility.yul\":15677:15705   */\n          tag_234\n          jump\t// in\n\n        auxdata: 0xa264697066735822122088fa7b2c96bf8faab9c13bb3941cfb1b363ae1376007aebbc0a771a5be58947064736f6c63430008150033\n    }\n}\n",
				"bytecode": {
					"linkReferences": {},
					"object": "60806040526040516100109061005a565b604051809103905ff080158015610029573d5f803e3d5ffd5b505f80546001600160a01b0319166001600160a01b0392909216919091179055348015610054575f80fd5b50610067565b61139f806103c683390190565b610352806100745f395ff3fe608060405234801561000f575f80fd5b5060043610610034575f3560e01c80635c60da1b14610038578063e8bead0214610066575b5f80fd5b5f5461004a906001600160a01b031681565b6040516001600160a01b03909116815260200160405180910390f35b6100796100743660046101e9565b61007b565b005b5f8054339190610093906001600160a01b031661013a565b604051633c38c85960e21b81529091506001600160a01b0382169063f0e32164906100c6908890889088906004016102ba565b5f604051808303815f87803b1580156100dd575f80fd5b505af11580156100ef573d5f803e3d5ffd5b50506040516001600160a01b038481168252851692507f1e4d1ffdcddd8a1f895904c7d3e195a597210396f9b3e1717cb53bb9c29cc3ea915060200160405180910390a25050505050565b5f763d602d80600a3d3981f3363d3d373d3d3d363d730000008260601b60e81c175f526e5af43d82803e903d91602b57fd5bf38260781b17602052603760095ff090506001600160a01b0381166101d05760405162461bcd60e51b8152602060048201526016602482015275115490cc4c4d8dce8818dc99585d194819985a5b195960521b604482015260640160405180910390fd5b919050565b634e487b7160e01b5f52604160045260245ffd5b5f805f606084860312156101fb575f80fd5b83356001600160a01b0381168114610211575f80fd5b925060208401359150604084013567ffffffffffffffff80821115610234575f80fd5b818601915086601f830112610247575f80fd5b813581811115610259576102596101d5565b604051601f8201601f19908116603f01168101908382118183101715610281576102816101d5565b81604052828152896020848701011115610299575f80fd5b826020860160208301375f6020848301015280955050505050509250925092565b60018060a01b03841681525f602084818401526060604084015283518060608501525f5b818110156102fa578581018301518582016080015282016102de565b505f608082860101526080601f19601f8301168501019250505094935050505056fea26469706673582212206e04f30cfb3e0ff742fadc76488a6f4a9e820907d3d9195f0d814368a66a4b8c64736f6c63430008150033608060405234801561000f575f80fd5b506113828061001d5f395ff3fe608060405234801561000f575f80fd5b506004361061007a575f3560e01c8063562beba811610058578063562beba8146100c25780638d0be996146100e5578063b73e0e8b146100fa578063f0e3216414610125575f80fd5b80632ade842f1461007e5780632eb4a7ab14610093578063467ff8ed146100af575b5f80fd5b61009161008c366004610d9d565b610138565b005b61009c60035481565b6040519081526020015b60405180910390f35b6100916100bd366004610e9a565b61023b565b6100d56100d0366004610f00565b610314565b60405190151581526020016100a6565b6100ed61036b565b6040516100a69190610f2a565b60025461010d906001600160a01b031681565b6040516001600160a01b0390911681526020016100a6565b610091610133366004610f89565b6103f7565b5f8061014888888888888861052f565b9150915061015c8c8c8c8c600354876107fc565b610179576040516309bde33960e01b815260040160405180910390fd5b60025460405163a9059cbb60e01b8152336004820152602481018390526001600160a01b039091169063a9059cbb906044016020604051808303815f875af11580156101c7573d5f803e3d5ffd5b505050506040513d601f19601f820116820180604052508101906101eb919061105c565b507f823ba58ceffeeaa30fa8e38650dcb17b37601bdc5937d29da4be31a665c818d2888888888888604051610225969594939291906110a7565b60405180910390a1505050505050505050505050565b6102488184848888610817565b61025281846109aa565b60025460405163a9059cbb60e01b8152336004820152602481018490526001600160a01b039091169063a9059cbb906044016020604051808303815f875af11580156102a0573d5f803e3d5ffd5b505050506040513d601f19601f820116820180604052508101906102c4919061105c565b5060408051848152602081018490526001600160a01b0383168183015290517fc09f7b3c1c5b70bf6d30e485a4525d625d4723aed5d319376825446ef135c7ca9181900360600190a15050505050565b5f8061032261010084611145565b90505f61033161010085611158565b6001600160a01b0386165f9081526004602090815260408083209583529490529290922054600190921b9182169091149150505b92915050565b600180546103789061116b565b80601f01602080910402602001604051908101604052809291908181526020018280546103a49061116b565b80156103ef5780601f106103c6576101008083540402835291602001916103ef565b820191905f5260205f20905b8154815290600101906020018083116103d257829003601f168201915b505050505081565b5f54610100900460ff161580801561041557505f54600160ff909116105b8061042e5750303b15801561042e57505f5460ff166001145b6104965760405162461bcd60e51b815260206004820152602e60248201527f496e697469616c697a61626c653a20636f6e747261637420697320616c72656160448201526d191e481a5b9a5d1a585b1a5e995960921b60648201526084015b60405180910390fd5b5f805460ff1916600117905580156104b7575f805461ff0019166101001790555b600280546001600160a01b0319166001600160a01b038616179055600383905560016104e383826111ed565b508015610529575f805461ff0019169055604051600181527f7f26b83ff96e1f2b6a682f133852f6798a09c465da95921460cefb38474024989060200160405180910390a15b50505050565b60605f8685811461059a5760405162461bcd60e51b815260206004820152602f60248201527f6c656e677468206f662069647320616e6420616d6f756e74732061727261792060448201526e6973206e6f74207468652073616d6560881b606482015260840161048d565b5f808267ffffffffffffffff8111156105b5576105b5610f75565b6040519080825280602002602001820160405280156105de578160200160208202803683370190505b5090505f5b838110156107ec575f8a8a838181106105fe576105fe6112a9565b9050602002013590505f8d8d8481811061061a5761061a6112a9565b9050602002013590505f8a8a85818110610636576106366112a9565b905060200201602081019061064b91906112bd565b90506106578183610314565b1561067557604051630c8d9eab60e31b815260040160405180910390fd5b6040516331a9108f60e11b81526004810183905233906001600160a01b03831690636352211e90602401602060405180830381865afa1580156106ba573d5f803e3d5ffd5b505050506040513d601f19601f820116820180604052508101906106de91906112d8565b6001600160a01b03161461074d5760405162461bcd60e51b815260206004820152603060248201527f6f6e65206f72206d6f7265206f66207468657365206e6674732069736e74206f60448201526f1ddb995908189e4818db185a5b585b9d60821b606482015260840161048d565b61075781836109aa565b604080516001600160a01b03831660208201529081018390526060810184905260800160408051601f1981840301815282825280516020918201209083015201604051602081830303815290604052805190602001208585815181106107bf576107bf6112a9565b60209081029190910101526107d483876112f3565b955050505080806107e490611306565b9150506105e3565b509a909950975050505050505050565b5f8261080b88888888876109fd565b14979650505050505050565b6108218585610314565b1561083f57604051630c8d9eab60e31b815260040160405180910390fd5b6040516331a9108f60e11b81526004810185905233906001600160a01b03871690636352211e90602401602060405180830381865afa158015610884573d5f803e3d5ffd5b505050506040513d601f19601f820116820180604052508101906108a891906112d8565b6001600160a01b0316146108fe5760405162461bcd60e51b815260206004820152601a60248201527f6e66742069736e74206f776e656420627920636c61696d616e74000000000000604482015260640161048d565b604080516001600160a01b0387166020820152908101859052606081018490525f9060800160408051601f1981840301815282825280516020918201209083015201604051602081830303815290604052805190602001209050610966838360035484610cc4565b6109a25760405162461bcd60e51b815260206004820152600d60248201526c24b73b30b634b210383937b7b360991b604482015260640161048d565b505050505050565b5f6109b761010083611145565b90505f6109c661010084611158565b6001600160a01b03949094165f908152600460209081526040808320948352939052919091208054600190941b9093179092555050565b80515f908584806001610a1084866112f3565b610a1a919061131e565b14610a675760405162461bcd60e51b815260206004820152601f60248201527f4d65726b6c6550726f6f663a20696e76616c6964206d756c746970726f6f6600604482015260640161048d565b5f8167ffffffffffffffff811115610a8157610a81610f75565b604051908082528060200260200182016040528015610aaa578160200160208202803683370190505b5090505f805f805b85811015610bff575f888510610aec578584610acd81611306565b955081518110610adf57610adf6112a9565b6020026020010151610b12565b8a85610af781611306565b965081518110610b0957610b096112a9565b60200260200101515b90505f8d8d84818110610b2757610b276112a9565b9050602002016020810190610b3c9190611331565b610b69578f8f85610b4c81611306565b9650818110610b5d57610b5d6112a9565b90506020020135610bc0565b898610610b9a578685610b7b81611306565b965081518110610b8d57610b8d6112a9565b6020026020010151610bc0565b8b86610ba581611306565b975081518110610bb757610bb76112a9565b60200260200101515b9050610bcc8282610cdb565b878481518110610bde57610bde6112a9565b60200260200101818152505050508080610bf790611306565b915050610ab2565b508415610c8057858114610c555760405162461bcd60e51b815260206004820152601f60248201527f4d65726b6c6550726f6f663a20696e76616c6964206d756c746970726f6f6600604482015260640161048d565b836001860381518110610c6a57610c6a6112a9565b6020026020010151975050505050505050610cbb565b8615610c9857885f81518110610c6a57610c6a6112a9565b8c8c5f818110610caa57610caa6112a9565b905060200201359750505050505050505b95945050505050565b5f82610cd1868685610d0a565b1495945050505050565b5f818310610cf5575f828152602084905260409020610d03565b5f8381526020839052604090205b9392505050565b5f81815b84811015610d4c57610d3882878784818110610d2c57610d2c6112a9565b90506020020135610cdb565b915080610d4481611306565b915050610d0e565b50949350505050565b5f8083601f840112610d65575f80fd5b50813567ffffffffffffffff811115610d7c575f80fd5b6020830191508360208260051b8501011115610d96575f80fd5b9250929050565b5f805f805f805f805f8060a08b8d031215610db6575f80fd5b8a3567ffffffffffffffff80821115610dcd575f80fd5b610dd98e838f01610d55565b909c509a5060208d0135915080821115610df1575f80fd5b610dfd8e838f01610d55565b909a50985060408d0135915080821115610e15575f80fd5b610e218e838f01610d55565b909850965060608d0135915080821115610e39575f80fd5b610e458e838f01610d55565b909650945060808d0135915080821115610e5d575f80fd5b50610e6a8d828e01610d55565b915080935050809150509295989b9194979a5092959850565b6001600160a01b0381168114610e97575f80fd5b50565b5f805f805f60808688031215610eae575f80fd5b853567ffffffffffffffff811115610ec4575f80fd5b610ed088828901610d55565b90965094505060208601359250604086013591506060860135610ef281610e83565b809150509295509295909350565b5f8060408385031215610f11575f80fd5b8235610f1c81610e83565b946020939093013593505050565b5f6020808352835180828501525f5b81811015610f5557858101830151858201604001528201610f39565b505f604082860101526040601f19601f8301168501019250505092915050565b634e487b7160e01b5f52604160045260245ffd5b5f805f60608486031215610f9b575f80fd5b8335610fa681610e83565b925060208401359150604084013567ffffffffffffffff80821115610fc9575f80fd5b818601915086601f830112610fdc575f80fd5b813581811115610fee57610fee610f75565b604051601f8201601f19908116603f0116810190838211818310171561101657611016610f75565b8160405282815289602084870101111561102e575f80fd5b826020860160208301375f6020848301015280955050505050509250925092565b8015158114610e97575f80fd5b5f6020828403121561106c575f80fd5b8151610d038161104f565b8183525f6001600160fb1b0383111561108e575f80fd5b8260051b80836020870137939093016020019392505050565b606081525f6110ba60608301888a611077565b6020838203818501526110ce82888a611077565b848103604086015285815286925081015f5b8681101561110e5783356110f381610e83565b6001600160a01b0316825292820192908201906001016110e0565b509a9950505050505050505050565b634e487b7160e01b5f52601260045260245ffd5b634e487b7160e01b5f52601160045260245ffd5b5f826111535761115361111d565b500490565b5f826111665761116661111d565b500690565b600181811c9082168061117f57607f821691505b60208210810361119d57634e487b7160e01b5f52602260045260245ffd5b50919050565b601f8211156111e8575f81815260208120601f850160051c810160208610156111c95750805b601f850160051c820191505b818110156109a2578281556001016111d5565b505050565b815167ffffffffffffffff81111561120757611207610f75565b61121b81611215845461116b565b846111a3565b602080601f83116001811461124e575f84156112375750858301515b5f19600386901b1c1916600185901b1785556109a2565b5f85815260208120601f198616915b8281101561127c5788860151825594840194600190910190840161125d565b508582101561129957878501515f19600388901b60f8161c191681555b5050505050600190811b01905550565b634e487b7160e01b5f52603260045260245ffd5b5f602082840312156112cd575f80fd5b8135610d0381610e83565b5f602082840312156112e8575f80fd5b8151610d0381610e83565b8082018082111561036557610365611131565b5f6001820161131757611317611131565b5060010190565b8181038181111561036557610365611131565b5f60208284031215611341575f80fd5b8135610d038161104f56fea264697066735822122088fa7b2c96bf8faab9c13bb3941cfb1b363ae1376007aebbc0a771a5be58947064736f6c63430008150033",
					"opcodes": "PUSH1 0x80 PUSH1 0x40 MSTORE PUSH1 0x40 MLOAD PUSH2 0x10 SWAP1 PUSH2 0x5A JUMP JUMPDEST PUSH1 0x40 MLOAD DUP1 SWAP2 SUB SWAP1 PUSH0 CREATE DUP1 ISZERO DUP1 ISZERO PUSH2 0x29 JUMPI RETURNDATASIZE PUSH0 DUP1 RETURNDATACOPY RETURNDATASIZE PUSH0 REVERT JUMPDEST POP PUSH0 DUP1 SLOAD PUSH1 0x1 PUSH1 0x1 PUSH1 0xA0 SHL SUB NOT AND PUSH1 0x1 PUSH1 0x1 PUSH1 0xA0 SHL SUB SWAP3 SWAP1 SWAP3 AND SWAP2 SWAP1 SWAP2 OR SWAP1 SSTORE CALLVALUE DUP1 ISZERO PUSH2 0x54 JUMPI PUSH0 DUP1 REVERT JUMPDEST POP PUSH2 0x67 JUMP JUMPDEST PUSH2 0x139F DUP1 PUSH2 0x3C6 DUP4 CODECOPY ADD SWAP1 JUMP JUMPDEST PUSH2 0x352 DUP1 PUSH2 0x74 PUSH0 CODECOPY PUSH0 RETURN INVALID PUSH1 0x80 PUSH1 0x40 MSTORE CALLVALUE DUP1 ISZERO PUSH2 0xF JUMPI PUSH0 DUP1 REVERT JUMPDEST POP PUSH1 0x4 CALLDATASIZE LT PUSH2 0x34 JUMPI PUSH0 CALLDATALOAD PUSH1 0xE0 SHR DUP1 PUSH4 0x5C60DA1B EQ PUSH2 0x38 JUMPI DUP1 PUSH4 0xE8BEAD02 EQ PUSH2 0x66 JUMPI JUMPDEST PUSH0 DUP1 REVERT JUMPDEST PUSH0 SLOAD PUSH2 0x4A SWAP1 PUSH1 0x1 PUSH1 0x1 PUSH1 0xA0 SHL SUB AND DUP2 JUMP JUMPDEST PUSH1 0x40 MLOAD PUSH1 0x1 PUSH1 0x1 PUSH1 0xA0 SHL SUB SWAP1 SWAP2 AND DUP2 MSTORE PUSH1 0x20 ADD PUSH1 0x40 MLOAD DUP1 SWAP2 SUB SWAP1 RETURN JUMPDEST PUSH2 0x79 PUSH2 0x74 CALLDATASIZE PUSH1 0x4 PUSH2 0x1E9 JUMP JUMPDEST PUSH2 0x7B JUMP JUMPDEST STOP JUMPDEST PUSH0 DUP1 SLOAD CALLER SWAP2 SWAP1 PUSH2 0x93 SWAP1 PUSH1 0x1 PUSH1 0x1 PUSH1 0xA0 SHL SUB AND PUSH2 0x13A JUMP JUMPDEST PUSH1 0x40 MLOAD PUSH4 0x3C38C859 PUSH1 0xE2 SHL DUP2 MSTORE SWAP1 SWAP2 POP PUSH1 0x1 PUSH1 0x1 PUSH1 0xA0 SHL SUB DUP3 AND SWAP1 PUSH4 0xF0E32164 SWAP1 PUSH2 0xC6 SWAP1 DUP9 SWAP1 DUP9 SWAP1 DUP9 SWAP1 PUSH1 0x4 ADD PUSH2 0x2BA JUMP JUMPDEST PUSH0 PUSH1 0x40 MLOAD DUP1 DUP4 SUB DUP2 PUSH0 DUP8 DUP1 EXTCODESIZE ISZERO DUP1 ISZERO PUSH2 0xDD JUMPI PUSH0 DUP1 REVERT JUMPDEST POP GAS CALL ISZERO DUP1 ISZERO PUSH2 0xEF JUMPI RETURNDATASIZE PUSH0 DUP1 RETURNDATACOPY RETURNDATASIZE PUSH0 REVERT JUMPDEST POP POP PUSH1 0x40 MLOAD PUSH1 0x1 PUSH1 0x1 PUSH1 0xA0 SHL SUB DUP5 DUP2 AND DUP3 MSTORE DUP6 AND SWAP3 POP PUSH32 0x1E4D1FFDCDDD8A1F895904C7D3E195A597210396F9B3E1717CB53BB9C29CC3EA SWAP2 POP PUSH1 0x20 ADD PUSH1 0x40 MLOAD DUP1 SWAP2 SUB SWAP1 LOG2 POP POP POP POP POP JUMP JUMPDEST PUSH0 PUSH23 0x3D602D80600A3D3981F3363D3D373D3D3D363D73000000 DUP3 PUSH1 0x60 SHL PUSH1 0xE8 SHR OR PUSH0 MSTORE PUSH15 0x5AF43D82803E903D91602B57FD5BF3 DUP3 PUSH1 0x78 SHL OR PUSH1 0x20 MSTORE PUSH1 0x37 PUSH1 0x9 PUSH0 CREATE SWAP1 POP PUSH1 0x1 PUSH1 0x1 PUSH1 0xA0 SHL SUB DUP2 AND PUSH2 0x1D0 JUMPI PUSH1 0x40 MLOAD PUSH3 0x461BCD PUSH1 0xE5 SHL DUP2 MSTORE PUSH1 0x20 PUSH1 0x4 DUP3 ADD MSTORE PUSH1 0x16 PUSH1 0x24 DUP3 ADD MSTORE PUSH22 0x115490CC4C4D8DCE8818DC99585D194819985A5B1959 PUSH1 0x52 SHL PUSH1 0x44 DUP3 ADD MSTORE PUSH1 0x64 ADD PUSH1 0x40 MLOAD DUP1 SWAP2 SUB SWAP1 REVERT JUMPDEST SWAP2 SWAP1 POP JUMP JUMPDEST PUSH4 0x4E487B71 PUSH1 0xE0 SHL PUSH0 MSTORE PUSH1 0x41 PUSH1 0x4 MSTORE PUSH1 0x24 PUSH0 REVERT JUMPDEST PUSH0 DUP1 PUSH0 PUSH1 0x60 DUP5 DUP7 SUB SLT ISZERO PUSH2 0x1FB JUMPI PUSH0 DUP1 REVERT JUMPDEST DUP4 CALLDATALOAD PUSH1 0x1 PUSH1 0x1 PUSH1 0xA0 SHL SUB DUP2 AND DUP2 EQ PUSH2 0x211 JUMPI PUSH0 DUP1 REVERT JUMPDEST SWAP3 POP PUSH1 0x20 DUP5 ADD CALLDATALOAD SWAP2 POP PUSH1 0x40 DUP5 ADD CALLDATALOAD PUSH8 0xFFFFFFFFFFFFFFFF DUP1 DUP3 GT ISZERO PUSH2 0x234 JUMPI PUSH0 DUP1 REVERT JUMPDEST DUP2 DUP7 ADD SWAP2 POP DUP7 PUSH1 0x1F DUP4 ADD SLT PUSH2 0x247 JUMPI PUSH0 DUP1 REVERT JUMPDEST DUP2 CALLDATALOAD DUP2 DUP2 GT ISZERO PUSH2 0x259 JUMPI PUSH2 0x259 PUSH2 0x1D5 JUMP JUMPDEST PUSH1 0x40 MLOAD PUSH1 0x1F DUP3 ADD PUSH1 0x1F NOT SWAP1 DUP2 AND PUSH1 0x3F ADD AND DUP2 ADD SWAP1 DUP4 DUP3 GT DUP2 DUP4 LT OR ISZERO PUSH2 0x281 JUMPI PUSH2 0x281 PUSH2 0x1D5 JUMP JUMPDEST DUP2 PUSH1 0x40 MSTORE DUP3 DUP2 MSTORE DUP10 PUSH1 0x20 DUP5 DUP8 ADD ADD GT ISZERO PUSH2 0x299 JUMPI PUSH0 DUP1 REVERT JUMPDEST DUP3 PUSH1 0x20 DUP7 ADD PUSH1 0x20 DUP4 ADD CALLDATACOPY PUSH0 PUSH1 0x20 DUP5 DUP4 ADD ADD MSTORE DUP1 SWAP6 POP POP POP POP POP POP SWAP3 POP SWAP3 POP SWAP3 JUMP JUMPDEST PUSH1 0x1 DUP1 PUSH1 0xA0 SHL SUB DUP5 AND DUP2 MSTORE PUSH0 PUSH1 0x20 DUP5 DUP2 DUP5 ADD MSTORE PUSH1 0x60 PUSH1 0x40 DUP5 ADD MSTORE DUP4 MLOAD DUP1 PUSH1 0x60 DUP6 ADD MSTORE PUSH0 JUMPDEST DUP2 DUP2 LT ISZERO PUSH2 0x2FA JUMPI DUP6 DUP2 ADD DUP4 ADD MLOAD DUP6 DUP3 ADD PUSH1 0x80 ADD MSTORE DUP3 ADD PUSH2 0x2DE JUMP JUMPDEST POP PUSH0 PUSH1 0x80 DUP3 DUP7 ADD ADD MSTORE PUSH1 0x80 PUSH1 0x1F NOT PUSH1 0x1F DUP4 ADD AND DUP6 ADD ADD SWAP3 POP POP POP SWAP5 SWAP4 POP POP POP POP JUMP INVALID LOG2 PUSH5 0x6970667358 0x22 SLT KECCAK256 PUSH15 0x4F30CFB3E0FF742FADC76488A6F4A SWAP15 DUP3 MULMOD SMOD 0xD3 0xD9 NOT PUSH0 0xD DUP2 NUMBER PUSH9 0xA66A4B8C64736F6C63 NUMBER STOP ADDMOD ISZERO STOP CALLER PUSH1 0x80 PUSH1 0x40 MSTORE CALLVALUE DUP1 ISZERO PUSH2 0xF JUMPI PUSH0 DUP1 REVERT JUMPDEST POP PUSH2 0x1382 DUP1 PUSH2 0x1D PUSH0 CODECOPY PUSH0 RETURN INVALID PUSH1 0x80 PUSH1 0x40 MSTORE CALLVALUE DUP1 ISZERO PUSH2 0xF JUMPI PUSH0 DUP1 REVERT JUMPDEST POP PUSH1 0x4 CALLDATASIZE LT PUSH2 0x7A JUMPI PUSH0 CALLDATALOAD PUSH1 0xE0 SHR DUP1 PUSH4 0x562BEBA8 GT PUSH2 0x58 JUMPI DUP1 PUSH4 0x562BEBA8 EQ PUSH2 0xC2 JUMPI DUP1 PUSH4 0x8D0BE996 EQ PUSH2 0xE5 JUMPI DUP1 PUSH4 0xB73E0E8B EQ PUSH2 0xFA JUMPI DUP1 PUSH4 0xF0E32164 EQ PUSH2 0x125 JUMPI PUSH0 DUP1 REVERT JUMPDEST DUP1 PUSH4 0x2ADE842F EQ PUSH2 0x7E JUMPI DUP1 PUSH4 0x2EB4A7AB EQ PUSH2 0x93 JUMPI DUP1 PUSH4 0x467FF8ED EQ PUSH2 0xAF JUMPI JUMPDEST PUSH0 DUP1 REVERT JUMPDEST PUSH2 0x91 PUSH2 0x8C CALLDATASIZE PUSH1 0x4 PUSH2 0xD9D JUMP JUMPDEST PUSH2 0x138 JUMP JUMPDEST STOP JUMPDEST PUSH2 0x9C PUSH1 0x3 SLOAD DUP2 JUMP JUMPDEST PUSH1 0x40 MLOAD SWAP1 DUP2 MSTORE PUSH1 0x20 ADD JUMPDEST PUSH1 0x40 MLOAD DUP1 SWAP2 SUB SWAP1 RETURN JUMPDEST PUSH2 0x91 PUSH2 0xBD CALLDATASIZE PUSH1 0x4 PUSH2 0xE9A JUMP JUMPDEST PUSH2 0x23B JUMP JUMPDEST PUSH2 0xD5 PUSH2 0xD0 CALLDATASIZE PUSH1 0x4 PUSH2 0xF00 JUMP JUMPDEST PUSH2 0x314 JUMP JUMPDEST PUSH1 0x40 MLOAD SWAP1 ISZERO ISZERO DUP2 MSTORE PUSH1 0x20 ADD PUSH2 0xA6 JUMP JUMPDEST PUSH2 0xED PUSH2 0x36B JUMP JUMPDEST PUSH1 0x40 MLOAD PUSH2 0xA6 SWAP2 SWAP1 PUSH2 0xF2A JUMP JUMPDEST PUSH1 0x2 SLOAD PUSH2 0x10D SWAP1 PUSH1 0x1 PUSH1 0x1 PUSH1 0xA0 SHL SUB AND DUP2 JUMP JUMPDEST PUSH1 0x40 MLOAD PUSH1 0x1 PUSH1 0x1 PUSH1 0xA0 SHL SUB SWAP1 SWAP2 AND DUP2 MSTORE PUSH1 0x20 ADD PUSH2 0xA6 JUMP JUMPDEST PUSH2 0x91 PUSH2 0x133 CALLDATASIZE PUSH1 0x4 PUSH2 0xF89 JUMP JUMPDEST PUSH2 0x3F7 JUMP JUMPDEST PUSH0 DUP1 PUSH2 0x148 DUP9 DUP9 DUP9 DUP9 DUP9 DUP9 PUSH2 0x52F JUMP JUMPDEST SWAP2 POP SWAP2 POP PUSH2 0x15C DUP13 DUP13 DUP13 DUP13 PUSH1 0x3 SLOAD DUP8 PUSH2 0x7FC JUMP JUMPDEST PUSH2 0x179 JUMPI PUSH1 0x40 MLOAD PUSH4 0x9BDE339 PUSH1 0xE0 SHL DUP2 MSTORE PUSH1 0x4 ADD PUSH1 0x40 MLOAD DUP1 SWAP2 SUB SWAP1 REVERT JUMPDEST PUSH1 0x2 SLOAD PUSH1 0x40 MLOAD PUSH4 0xA9059CBB PUSH1 0xE0 SHL DUP2 MSTORE CALLER PUSH1 0x4 DUP3 ADD MSTORE PUSH1 0x24 DUP2 ADD DUP4 SWAP1 MSTORE PUSH1 0x1 PUSH1 0x1 PUSH1 0xA0 SHL SUB SWAP1 SWAP2 AND SWAP1 PUSH4 0xA9059CBB SWAP1 PUSH1 0x44 ADD PUSH1 0x20 PUSH1 0x40 MLOAD DUP1 DUP4 SUB DUP2 PUSH0 DUP8 GAS CALL ISZERO DUP1 ISZERO PUSH2 0x1C7 JUMPI RETURNDATASIZE PUSH0 DUP1 RETURNDATACOPY RETURNDATASIZE PUSH0 REVERT JUMPDEST POP POP POP POP PUSH1 0x40 MLOAD RETURNDATASIZE PUSH1 0x1F NOT PUSH1 0x1F DUP3 ADD AND DUP3 ADD DUP1 PUSH1 0x40 MSTORE POP DUP2 ADD SWAP1 PUSH2 0x1EB SWAP2 SWAP1 PUSH2 0x105C JUMP JUMPDEST POP PUSH32 0x823BA58CEFFEEAA30FA8E38650DCB17B37601BDC5937D29DA4BE31A665C818D2 DUP9 DUP9 DUP9 DUP9 DUP9 DUP9 PUSH1 0x40 MLOAD PUSH2 0x225 SWAP7 SWAP6 SWAP5 SWAP4 SWAP3 SWAP2 SWAP1 PUSH2 0x10A7 JUMP JUMPDEST PUSH1 0x40 MLOAD DUP1 SWAP2 SUB SWAP1 LOG1 POP POP POP POP POP POP POP POP POP POP POP POP JUMP JUMPDEST PUSH2 0x248 DUP2 DUP5 DUP5 DUP9 DUP9 PUSH2 0x817 JUMP JUMPDEST PUSH2 0x252 DUP2 DUP5 PUSH2 0x9AA JUMP JUMPDEST PUSH1 0x2 SLOAD PUSH1 0x40 MLOAD PUSH4 0xA9059CBB PUSH1 0xE0 SHL DUP2 MSTORE CALLER PUSH1 0x4 DUP3 ADD MSTORE PUSH1 0x24 DUP2 ADD DUP5 SWAP1 MSTORE PUSH1 0x1 PUSH1 0x1 PUSH1 0xA0 SHL SUB SWAP1 SWAP2 AND SWAP1 PUSH4 0xA9059CBB SWAP1 PUSH1 0x44 ADD PUSH1 0x20 PUSH1 0x40 MLOAD DUP1 DUP4 SUB DUP2 PUSH0 DUP8 GAS CALL ISZERO DUP1 ISZERO PUSH2 0x2A0 JUMPI RETURNDATASIZE PUSH0 DUP1 RETURNDATACOPY RETURNDATASIZE PUSH0 REVERT JUMPDEST POP POP POP POP PUSH1 0x40 MLOAD RETURNDATASIZE PUSH1 0x1F NOT PUSH1 0x1F DUP3 ADD AND DUP3 ADD DUP1 PUSH1 0x40 MSTORE POP DUP2 ADD SWAP1 PUSH2 0x2C4 SWAP2 SWAP1 PUSH2 0x105C JUMP JUMPDEST POP PUSH1 0x40 DUP1 MLOAD DUP5 DUP2 MSTORE PUSH1 0x20 DUP2 ADD DUP5 SWAP1 MSTORE PUSH1 0x1 PUSH1 0x1 PUSH1 0xA0 SHL SUB DUP4 AND DUP2 DUP4 ADD MSTORE SWAP1 MLOAD PUSH32 0xC09F7B3C1C5B70BF6D30E485A4525D625D4723AED5D319376825446EF135C7CA SWAP2 DUP2 SWAP1 SUB PUSH1 0x60 ADD SWAP1 LOG1 POP POP POP POP POP JUMP JUMPDEST PUSH0 DUP1 PUSH2 0x322 PUSH2 0x100 DUP5 PUSH2 0x1145 JUMP JUMPDEST SWAP1 POP PUSH0 PUSH2 0x331 PUSH2 0x100 DUP6 PUSH2 0x1158 JUMP JUMPDEST PUSH1 0x1 PUSH1 0x1 PUSH1 0xA0 SHL SUB DUP7 AND PUSH0 SWAP1 DUP2 MSTORE PUSH1 0x4 PUSH1 0x20 SWAP1 DUP2 MSTORE PUSH1 0x40 DUP1 DUP4 KECCAK256 SWAP6 DUP4 MSTORE SWAP5 SWAP1 MSTORE SWAP3 SWAP1 SWAP3 KECCAK256 SLOAD PUSH1 0x1 SWAP1 SWAP3 SHL SWAP2 DUP3 AND SWAP1 SWAP2 EQ SWAP2 POP POP JUMPDEST SWAP3 SWAP2 POP POP JUMP JUMPDEST PUSH1 0x1 DUP1 SLOAD PUSH2 0x378 SWAP1 PUSH2 0x116B JUMP JUMPDEST DUP1 PUSH1 0x1F ADD PUSH1 0x20 DUP1 SWAP2 DIV MUL PUSH1 0x20 ADD PUSH1 0x40 MLOAD SWAP1 DUP2 ADD PUSH1 0x40 MSTORE DUP1 SWAP3 SWAP2 SWAP1 DUP2 DUP2 MSTORE PUSH1 0x20 ADD DUP3 DUP1 SLOAD PUSH2 0x3A4 SWAP1 PUSH2 0x116B JUMP JUMPDEST DUP1 ISZERO PUSH2 0x3EF JUMPI DUP1 PUSH1 0x1F LT PUSH2 0x3C6 JUMPI PUSH2 0x100 DUP1 DUP4 SLOAD DIV MUL DUP4 MSTORE SWAP2 PUSH1 0x20 ADD SWAP2 PUSH2 0x3EF JUMP JUMPDEST DUP3 ADD SWAP2 SWAP1 PUSH0 MSTORE PUSH1 0x20 PUSH0 KECCAK256 SWAP1 JUMPDEST DUP2 SLOAD DUP2 MSTORE SWAP1 PUSH1 0x1 ADD SWAP1 PUSH1 0x20 ADD DUP1 DUP4 GT PUSH2 0x3D2 JUMPI DUP3 SWAP1 SUB PUSH1 0x1F AND DUP3 ADD SWAP2 JUMPDEST POP POP POP POP POP DUP2 JUMP JUMPDEST PUSH0 SLOAD PUSH2 0x100 SWAP1 DIV PUSH1 0xFF AND ISZERO DUP1 DUP1 ISZERO PUSH2 0x415 JUMPI POP PUSH0 SLOAD PUSH1 0x1 PUSH1 0xFF SWAP1 SWAP2 AND LT JUMPDEST DUP1 PUSH2 0x42E JUMPI POP ADDRESS EXTCODESIZE ISZERO DUP1 ISZERO PUSH2 0x42E JUMPI POP PUSH0 SLOAD PUSH1 0xFF AND PUSH1 0x1 EQ JUMPDEST PUSH2 0x496 JUMPI PUSH1 0x40 MLOAD PUSH3 0x461BCD PUSH1 0xE5 SHL DUP2 MSTORE PUSH1 0x20 PUSH1 0x4 DUP3 ADD MSTORE PUSH1 0x2E PUSH1 0x24 DUP3 ADD MSTORE PUSH32 0x496E697469616C697A61626C653A20636F6E747261637420697320616C726561 PUSH1 0x44 DUP3 ADD MSTORE PUSH14 0x191E481A5B9A5D1A585B1A5E9959 PUSH1 0x92 SHL PUSH1 0x64 DUP3 ADD MSTORE PUSH1 0x84 ADD JUMPDEST PUSH1 0x40 MLOAD DUP1 SWAP2 SUB SWAP1 REVERT JUMPDEST PUSH0 DUP1 SLOAD PUSH1 0xFF NOT AND PUSH1 0x1 OR SWAP1 SSTORE DUP1 ISZERO PUSH2 0x4B7 JUMPI PUSH0 DUP1 SLOAD PUSH2 0xFF00 NOT AND PUSH2 0x100 OR SWAP1 SSTORE JUMPDEST PUSH1 0x2 DUP1 SLOAD PUSH1 0x1 PUSH1 0x1 PUSH1 0xA0 SHL SUB NOT AND PUSH1 0x1 PUSH1 0x1 PUSH1 0xA0 SHL SUB DUP7 AND OR SWAP1 SSTORE PUSH1 0x3 DUP4 SWAP1 SSTORE PUSH1 0x1 PUSH2 0x4E3 DUP4 DUP3 PUSH2 0x11ED JUMP JUMPDEST POP DUP1 ISZERO PUSH2 0x529 JUMPI PUSH0 DUP1 SLOAD PUSH2 0xFF00 NOT AND SWAP1 SSTORE PUSH1 0x40 MLOAD PUSH1 0x1 DUP2 MSTORE PUSH32 0x7F26B83FF96E1F2B6A682F133852F6798A09C465DA95921460CEFB3847402498 SWAP1 PUSH1 0x20 ADD PUSH1 0x40 MLOAD DUP1 SWAP2 SUB SWAP1 LOG1 JUMPDEST POP POP POP POP JUMP JUMPDEST PUSH1 0x60 PUSH0 DUP7 DUP6 DUP2 EQ PUSH2 0x59A JUMPI PUSH1 0x40 MLOAD PUSH3 0x461BCD PUSH1 0xE5 SHL DUP2 MSTORE PUSH1 0x20 PUSH1 0x4 DUP3 ADD MSTORE PUSH1 0x2F PUSH1 0x24 DUP3 ADD MSTORE PUSH32 0x6C656E677468206F662069647320616E6420616D6F756E747320617272617920 PUSH1 0x44 DUP3 ADD MSTORE PUSH15 0x6973206E6F74207468652073616D65 PUSH1 0x88 SHL PUSH1 0x64 DUP3 ADD MSTORE PUSH1 0x84 ADD PUSH2 0x48D JUMP JUMPDEST PUSH0 DUP1 DUP3 PUSH8 0xFFFFFFFFFFFFFFFF DUP2 GT ISZERO PUSH2 0x5B5 JUMPI PUSH2 0x5B5 PUSH2 0xF75 JUMP JUMPDEST PUSH1 0x40 MLOAD SWAP1 DUP1 DUP3 MSTORE DUP1 PUSH1 0x20 MUL PUSH1 0x20 ADD DUP3 ADD PUSH1 0x40 MSTORE DUP1 ISZERO PUSH2 0x5DE JUMPI DUP2 PUSH1 0x20 ADD PUSH1 0x20 DUP3 MUL DUP1 CALLDATASIZE DUP4 CALLDATACOPY ADD SWAP1 POP JUMPDEST POP SWAP1 POP PUSH0 JUMPDEST DUP4 DUP2 LT ISZERO PUSH2 0x7EC JUMPI PUSH0 DUP11 DUP11 DUP4 DUP2 DUP2 LT PUSH2 0x5FE JUMPI PUSH2 0x5FE PUSH2 0x12A9 JUMP JUMPDEST SWAP1 POP PUSH1 0x20 MUL ADD CALLDATALOAD SWAP1 POP PUSH0 DUP14 DUP14 DUP5 DUP2 DUP2 LT PUSH2 0x61A JUMPI PUSH2 0x61A PUSH2 0x12A9 JUMP JUMPDEST SWAP1 POP PUSH1 0x20 MUL ADD CALLDATALOAD SWAP1 POP PUSH0 DUP11 DUP11 DUP6 DUP2 DUP2 LT PUSH2 0x636 JUMPI PUSH2 0x636 PUSH2 0x12A9 JUMP JUMPDEST SWAP1 POP PUSH1 0x20 MUL ADD PUSH1 0x20 DUP2 ADD SWAP1 PUSH2 0x64B SWAP2 SWAP1 PUSH2 0x12BD JUMP JUMPDEST SWAP1 POP PUSH2 0x657 DUP2 DUP4 PUSH2 0x314 JUMP JUMPDEST ISZERO PUSH2 0x675 JUMPI PUSH1 0x40 MLOAD PUSH4 0xC8D9EAB PUSH1 0xE3 SHL DUP2 MSTORE PUSH1 0x4 ADD PUSH1 0x40 MLOAD DUP1 SWAP2 SUB SWAP1 REVERT JUMPDEST PUSH1 0x40 MLOAD PUSH4 0x31A9108F PUSH1 0xE1 SHL DUP2 MSTORE PUSH1 0x4 DUP2 ADD DUP4 SWAP1 MSTORE CALLER SWAP1 PUSH1 0x1 PUSH1 0x1 PUSH1 0xA0 SHL SUB DUP4 AND SWAP1 PUSH4 0x6352211E SWAP1 PUSH1 0x24 ADD PUSH1 0x20 PUSH1 0x40 MLOAD DUP1 DUP4 SUB DUP2 DUP7 GAS STATICCALL ISZERO DUP1 ISZERO PUSH2 0x6BA JUMPI RETURNDATASIZE PUSH0 DUP1 RETURNDATACOPY RETURNDATASIZE PUSH0 REVERT JUMPDEST POP POP POP POP PUSH1 0x40 MLOAD RETURNDATASIZE PUSH1 0x1F NOT PUSH1 0x1F DUP3 ADD AND DUP3 ADD DUP1 PUSH1 0x40 MSTORE POP DUP2 ADD SWAP1 PUSH2 0x6DE SWAP2 SWAP1 PUSH2 0x12D8 JUMP JUMPDEST PUSH1 0x1 PUSH1 0x1 PUSH1 0xA0 SHL SUB AND EQ PUSH2 0x74D JUMPI PUSH1 0x40 MLOAD PUSH3 0x461BCD PUSH1 0xE5 SHL DUP2 MSTORE PUSH1 0x20 PUSH1 0x4 DUP3 ADD MSTORE PUSH1 0x30 PUSH1 0x24 DUP3 ADD MSTORE PUSH32 0x6F6E65206F72206D6F7265206F66207468657365206E6674732069736E74206F PUSH1 0x44 DUP3 ADD MSTORE PUSH16 0x1DDB995908189E4818DB185A5B585B9D PUSH1 0x82 SHL PUSH1 0x64 DUP3 ADD MSTORE PUSH1 0x84 ADD PUSH2 0x48D JUMP JUMPDEST PUSH2 0x757 DUP2 DUP4 PUSH2 0x9AA JUMP JUMPDEST PUSH1 0x40 DUP1 MLOAD PUSH1 0x1 PUSH1 0x1 PUSH1 0xA0 SHL SUB DUP4 AND PUSH1 0x20 DUP3 ADD MSTORE SWAP1 DUP2 ADD DUP4 SWAP1 MSTORE PUSH1 0x60 DUP2 ADD DUP5 SWAP1 MSTORE PUSH1 0x80 ADD PUSH1 0x40 DUP1 MLOAD PUSH1 0x1F NOT DUP2 DUP5 SUB ADD DUP2 MSTORE DUP3 DUP3 MSTORE DUP1 MLOAD PUSH1 0x20 SWAP2 DUP3 ADD KECCAK256 SWAP1 DUP4 ADD MSTORE ADD PUSH1 0x40 MLOAD PUSH1 0x20 DUP2 DUP4 SUB SUB DUP2 MSTORE SWAP1 PUSH1 0x40 MSTORE DUP1 MLOAD SWAP1 PUSH1 0x20 ADD KECCAK256 DUP6 DUP6 DUP2 MLOAD DUP2 LT PUSH2 0x7BF JUMPI PUSH2 0x7BF PUSH2 0x12A9 JUMP JUMPDEST PUSH1 0x20 SWAP1 DUP2 MUL SWAP2 SWAP1 SWAP2 ADD ADD MSTORE PUSH2 0x7D4 DUP4 DUP8 PUSH2 0x12F3 JUMP JUMPDEST SWAP6 POP POP POP POP DUP1 DUP1 PUSH2 0x7E4 SWAP1 PUSH2 0x1306 JUMP JUMPDEST SWAP2 POP POP PUSH2 0x5E3 JUMP JUMPDEST POP SWAP11 SWAP1 SWAP10 POP SWAP8 POP POP POP POP POP POP POP POP JUMP JUMPDEST PUSH0 DUP3 PUSH2 0x80B DUP9 DUP9 DUP9 DUP9 DUP8 PUSH2 0x9FD JUMP JUMPDEST EQ SWAP8 SWAP7 POP POP POP POP POP POP POP JUMP JUMPDEST PUSH2 0x821 DUP6 DUP6 PUSH2 0x314 JUMP JUMPDEST ISZERO PUSH2 0x83F JUMPI PUSH1 0x40 MLOAD PUSH4 0xC8D9EAB PUSH1 0xE3 SHL DUP2 MSTORE PUSH1 0x4 ADD PUSH1 0x40 MLOAD DUP1 SWAP2 SUB SWAP1 REVERT JUMPDEST PUSH1 0x40 MLOAD PUSH4 0x31A9108F PUSH1 0xE1 SHL DUP2 MSTORE PUSH1 0x4 DUP2 ADD DUP6 SWAP1 MSTORE CALLER SWAP1 PUSH1 0x1 PUSH1 0x1 PUSH1 0xA0 SHL SUB DUP8 AND SWAP1 PUSH4 0x6352211E SWAP1 PUSH1 0x24 ADD PUSH1 0x20 PUSH1 0x40 MLOAD DUP1 DUP4 SUB DUP2 DUP7 GAS STATICCALL ISZERO DUP1 ISZERO PUSH2 0x884 JUMPI RETURNDATASIZE PUSH0 DUP1 RETURNDATACOPY RETURNDATASIZE PUSH0 REVERT JUMPDEST POP POP POP POP PUSH1 0x40 MLOAD RETURNDATASIZE PUSH1 0x1F NOT PUSH1 0x1F DUP3 ADD AND DUP3 ADD DUP1 PUSH1 0x40 MSTORE POP DUP2 ADD SWAP1 PUSH2 0x8A8 SWAP2 SWAP1 PUSH2 0x12D8 JUMP JUMPDEST PUSH1 0x1 PUSH1 0x1 PUSH1 0xA0 SHL SUB AND EQ PUSH2 0x8FE JUMPI PUSH1 0x40 MLOAD PUSH3 0x461BCD PUSH1 0xE5 SHL DUP2 MSTORE PUSH1 0x20 PUSH1 0x4 DUP3 ADD MSTORE PUSH1 0x1A PUSH1 0x24 DUP3 ADD MSTORE PUSH32 0x6E66742069736E74206F776E656420627920636C61696D616E74000000000000 PUSH1 0x44 DUP3 ADD MSTORE PUSH1 0x64 ADD PUSH2 0x48D JUMP JUMPDEST PUSH1 0x40 DUP1 MLOAD PUSH1 0x1 PUSH1 0x1 PUSH1 0xA0 SHL SUB DUP8 AND PUSH1 0x20 DUP3 ADD MSTORE SWAP1 DUP2 ADD DUP6 SWAP1 MSTORE PUSH1 0x60 DUP2 ADD DUP5 SWAP1 MSTORE PUSH0 SWAP1 PUSH1 0x80 ADD PUSH1 0x40 DUP1 MLOAD PUSH1 0x1F NOT DUP2 DUP5 SUB ADD DUP2 MSTORE DUP3 DUP3 MSTORE DUP1 MLOAD PUSH1 0x20 SWAP2 DUP3 ADD KECCAK256 SWAP1 DUP4 ADD MSTORE ADD PUSH1 0x40 MLOAD PUSH1 0x20 DUP2 DUP4 SUB SUB DUP2 MSTORE SWAP1 PUSH1 0x40 MSTORE DUP1 MLOAD SWAP1 PUSH1 0x20 ADD KECCAK256 SWAP1 POP PUSH2 0x966 DUP4 DUP4 PUSH1 0x3 SLOAD DUP5 PUSH2 0xCC4 JUMP JUMPDEST PUSH2 0x9A2 JUMPI PUSH1 0x40 MLOAD PUSH3 0x461BCD PUSH1 0xE5 SHL DUP2 MSTORE PUSH1 0x20 PUSH1 0x4 DUP3 ADD MSTORE PUSH1 0xD PUSH1 0x24 DUP3 ADD MSTORE PUSH13 0x24B73B30B634B210383937B7B3 PUSH1 0x99 SHL PUSH1 0x44 DUP3 ADD MSTORE PUSH1 0x64 ADD PUSH2 0x48D JUMP JUMPDEST POP POP POP POP POP POP JUMP JUMPDEST PUSH0 PUSH2 0x9B7 PUSH2 0x100 DUP4 PUSH2 0x1145 JUMP JUMPDEST SWAP1 POP PUSH0 PUSH2 0x9C6 PUSH2 0x100 DUP5 PUSH2 0x1158 JUMP JUMPDEST PUSH1 0x1 PUSH1 0x1 PUSH1 0xA0 SHL SUB SWAP5 SWAP1 SWAP5 AND PUSH0 SWAP1 DUP2 MSTORE PUSH1 0x4 PUSH1 0x20 SWAP1 DUP2 MSTORE PUSH1 0x40 DUP1 DUP4 KECCAK256 SWAP5 DUP4 MSTORE SWAP4 SWAP1 MSTORE SWAP2 SWAP1 SWAP2 KECCAK256 DUP1 SLOAD PUSH1 0x1 SWAP1 SWAP5 SHL SWAP1 SWAP4 OR SWAP1 SWAP3 SSTORE POP POP JUMP JUMPDEST DUP1 MLOAD PUSH0 SWAP1 DUP6 DUP5 DUP1 PUSH1 0x1 PUSH2 0xA10 DUP5 DUP7 PUSH2 0x12F3 JUMP JUMPDEST PUSH2 0xA1A SWAP2 SWAP1 PUSH2 0x131E JUMP JUMPDEST EQ PUSH2 0xA67 JUMPI PUSH1 0x40 MLOAD PUSH3 0x461BCD PUSH1 0xE5 SHL DUP2 MSTORE PUSH1 0x20 PUSH1 0x4 DUP3 ADD MSTORE PUSH1 0x1F PUSH1 0x24 DUP3 ADD MSTORE PUSH32 0x4D65726B6C6550726F6F663A20696E76616C6964206D756C746970726F6F6600 PUSH1 0x44 DUP3 ADD MSTORE PUSH1 0x64 ADD PUSH2 0x48D JUMP JUMPDEST PUSH0 DUP2 PUSH8 0xFFFFFFFFFFFFFFFF DUP2 GT ISZERO PUSH2 0xA81 JUMPI PUSH2 0xA81 PUSH2 0xF75 JUMP JUMPDEST PUSH1 0x40 MLOAD SWAP1 DUP1 DUP3 MSTORE DUP1 PUSH1 0x20 MUL PUSH1 0x20 ADD DUP3 ADD PUSH1 0x40 MSTORE DUP1 ISZERO PUSH2 0xAAA JUMPI DUP2 PUSH1 0x20 ADD PUSH1 0x20 DUP3 MUL DUP1 CALLDATASIZE DUP4 CALLDATACOPY ADD SWAP1 POP JUMPDEST POP SWAP1 POP PUSH0 DUP1 PUSH0 DUP1 JUMPDEST DUP6 DUP2 LT ISZERO PUSH2 0xBFF JUMPI PUSH0 DUP9 DUP6 LT PUSH2 0xAEC JUMPI DUP6 DUP5 PUSH2 0xACD DUP2 PUSH2 0x1306 JUMP JUMPDEST SWAP6 POP DUP2 MLOAD DUP2 LT PUSH2 0xADF JUMPI PUSH2 0xADF PUSH2 0x12A9 JUMP JUMPDEST PUSH1 0x20 MUL PUSH1 0x20 ADD ADD MLOAD PUSH2 0xB12 JUMP JUMPDEST DUP11 DUP6 PUSH2 0xAF7 DUP2 PUSH2 0x1306 JUMP JUMPDEST SWAP7 POP DUP2 MLOAD DUP2 LT PUSH2 0xB09 JUMPI PUSH2 0xB09 PUSH2 0x12A9 JUMP JUMPDEST PUSH1 0x20 MUL PUSH1 0x20 ADD ADD MLOAD JUMPDEST SWAP1 POP PUSH0 DUP14 DUP14 DUP5 DUP2 DUP2 LT PUSH2 0xB27 JUMPI PUSH2 0xB27 PUSH2 0x12A9 JUMP JUMPDEST SWAP1 POP PUSH1 0x20 MUL ADD PUSH1 0x20 DUP2 ADD SWAP1 PUSH2 0xB3C SWAP2 SWAP1 PUSH2 0x1331 JUMP JUMPDEST PUSH2 0xB69 JUMPI DUP16 DUP16 DUP6 PUSH2 0xB4C DUP2 PUSH2 0x1306 JUMP JUMPDEST SWAP7 POP DUP2 DUP2 LT PUSH2 0xB5D JUMPI PUSH2 0xB5D PUSH2 0x12A9 JUMP JUMPDEST SWAP1 POP PUSH1 0x20 MUL ADD CALLDATALOAD PUSH2 0xBC0 JUMP JUMPDEST DUP10 DUP7 LT PUSH2 0xB9A JUMPI DUP7 DUP6 PUSH2 0xB7B DUP2 PUSH2 0x1306 JUMP JUMPDEST SWAP7 POP DUP2 MLOAD DUP2 LT PUSH2 0xB8D JUMPI PUSH2 0xB8D PUSH2 0x12A9 JUMP JUMPDEST PUSH1 0x20 MUL PUSH1 0x20 ADD ADD MLOAD PUSH2 0xBC0 JUMP JUMPDEST DUP12 DUP7 PUSH2 0xBA5 DUP2 PUSH2 0x1306 JUMP JUMPDEST SWAP8 POP DUP2 MLOAD DUP2 LT PUSH2 0xBB7 JUMPI PUSH2 0xBB7 PUSH2 0x12A9 JUMP JUMPDEST PUSH1 0x20 MUL PUSH1 0x20 ADD ADD MLOAD JUMPDEST SWAP1 POP PUSH2 0xBCC DUP3 DUP3 PUSH2 0xCDB JUMP JUMPDEST DUP8 DUP5 DUP2 MLOAD DUP2 LT PUSH2 0xBDE JUMPI PUSH2 0xBDE PUSH2 0x12A9 JUMP JUMPDEST PUSH1 0x20 MUL PUSH1 0x20 ADD ADD DUP2 DUP2 MSTORE POP POP POP POP DUP1 DUP1 PUSH2 0xBF7 SWAP1 PUSH2 0x1306 JUMP JUMPDEST SWAP2 POP POP PUSH2 0xAB2 JUMP JUMPDEST POP DUP5 ISZERO PUSH2 0xC80 JUMPI DUP6 DUP2 EQ PUSH2 0xC55 JUMPI PUSH1 0x40 MLOAD PUSH3 0x461BCD PUSH1 0xE5 SHL DUP2 MSTORE PUSH1 0x20 PUSH1 0x4 DUP3 ADD MSTORE PUSH1 0x1F PUSH1 0x24 DUP3 ADD MSTORE PUSH32 0x4D65726B6C6550726F6F663A20696E76616C6964206D756C746970726F6F6600 PUSH1 0x44 DUP3 ADD MSTORE PUSH1 0x64 ADD PUSH2 0x48D JUMP JUMPDEST DUP4 PUSH1 0x1 DUP7 SUB DUP2 MLOAD DUP2 LT PUSH2 0xC6A JUMPI PUSH2 0xC6A PUSH2 0x12A9 JUMP JUMPDEST PUSH1 0x20 MUL PUSH1 0x20 ADD ADD MLOAD SWAP8 POP POP POP POP POP POP POP POP PUSH2 0xCBB JUMP JUMPDEST DUP7 ISZERO PUSH2 0xC98 JUMPI DUP9 PUSH0 DUP2 MLOAD DUP2 LT PUSH2 0xC6A JUMPI PUSH2 0xC6A PUSH2 0x12A9 JUMP JUMPDEST DUP13 DUP13 PUSH0 DUP2 DUP2 LT PUSH2 0xCAA JUMPI PUSH2 0xCAA PUSH2 0x12A9 JUMP JUMPDEST SWAP1 POP PUSH1 0x20 MUL ADD CALLDATALOAD SWAP8 POP POP POP POP POP POP POP POP JUMPDEST SWAP6 SWAP5 POP POP POP POP POP JUMP JUMPDEST PUSH0 DUP3 PUSH2 0xCD1 DUP7 DUP7 DUP6 PUSH2 0xD0A JUMP JUMPDEST EQ SWAP6 SWAP5 POP POP POP POP POP JUMP JUMPDEST PUSH0 DUP2 DUP4 LT PUSH2 0xCF5 JUMPI PUSH0 DUP3 DUP2 MSTORE PUSH1 0x20 DUP5 SWAP1 MSTORE PUSH1 0x40 SWAP1 KECCAK256 PUSH2 0xD03 JUMP JUMPDEST PUSH0 DUP4 DUP2 MSTORE PUSH1 0x20 DUP4 SWAP1 MSTORE PUSH1 0x40 SWAP1 KECCAK256 JUMPDEST SWAP4 SWAP3 POP POP POP JUMP JUMPDEST PUSH0 DUP2 DUP2 JUMPDEST DUP5 DUP2 LT ISZERO PUSH2 0xD4C JUMPI PUSH2 0xD38 DUP3 DUP8 DUP8 DUP5 DUP2 DUP2 LT PUSH2 0xD2C JUMPI PUSH2 0xD2C PUSH2 0x12A9 JUMP JUMPDEST SWAP1 POP PUSH1 0x20 MUL ADD CALLDATALOAD PUSH2 0xCDB JUMP JUMPDEST SWAP2 POP DUP1 PUSH2 0xD44 DUP2 PUSH2 0x1306 JUMP JUMPDEST SWAP2 POP POP PUSH2 0xD0E JUMP JUMPDEST POP SWAP5 SWAP4 POP POP POP POP JUMP JUMPDEST PUSH0 DUP1 DUP4 PUSH1 0x1F DUP5 ADD SLT PUSH2 0xD65 JUMPI PUSH0 DUP1 REVERT JUMPDEST POP DUP2 CALLDATALOAD PUSH8 0xFFFFFFFFFFFFFFFF DUP2 GT ISZERO PUSH2 0xD7C JUMPI PUSH0 DUP1 REVERT JUMPDEST PUSH1 0x20 DUP4 ADD SWAP2 POP DUP4 PUSH1 0x20 DUP3 PUSH1 0x5 SHL DUP6 ADD ADD GT ISZERO PUSH2 0xD96 JUMPI PUSH0 DUP1 REVERT JUMPDEST SWAP3 POP SWAP3 SWAP1 POP JUMP JUMPDEST PUSH0 DUP1 PUSH0 DUP1 PUSH0 DUP1 PUSH0 DUP1 PUSH0 DUP1 PUSH1 0xA0 DUP12 DUP14 SUB SLT ISZERO PUSH2 0xDB6 JUMPI PUSH0 DUP1 REVERT JUMPDEST DUP11 CALLDATALOAD PUSH8 0xFFFFFFFFFFFFFFFF DUP1 DUP3 GT ISZERO PUSH2 0xDCD JUMPI PUSH0 DUP1 REVERT JUMPDEST PUSH2 0xDD9 DUP15 DUP4 DUP16 ADD PUSH2 0xD55 JUMP JUMPDEST SWAP1 SWAP13 POP SWAP11 POP PUSH1 0x20 DUP14 ADD CALLDATALOAD SWAP2 POP DUP1 DUP3 GT ISZERO PUSH2 0xDF1 JUMPI PUSH0 DUP1 REVERT JUMPDEST PUSH2 0xDFD DUP15 DUP4 DUP16 ADD PUSH2 0xD55 JUMP JUMPDEST SWAP1 SWAP11 POP SWAP9 POP PUSH1 0x40 DUP14 ADD CALLDATALOAD SWAP2 POP DUP1 DUP3 GT ISZERO PUSH2 0xE15 JUMPI PUSH0 DUP1 REVERT JUMPDEST PUSH2 0xE21 DUP15 DUP4 DUP16 ADD PUSH2 0xD55 JUMP JUMPDEST SWAP1 SWAP9 POP SWAP7 POP PUSH1 0x60 DUP14 ADD CALLDATALOAD SWAP2 POP DUP1 DUP3 GT ISZERO PUSH2 0xE39 JUMPI PUSH0 DUP1 REVERT JUMPDEST PUSH2 0xE45 DUP15 DUP4 DUP16 ADD PUSH2 0xD55 JUMP JUMPDEST SWAP1 SWAP7 POP SWAP5 POP PUSH1 0x80 DUP14 ADD CALLDATALOAD SWAP2 POP DUP1 DUP3 GT ISZERO PUSH2 0xE5D JUMPI PUSH0 DUP1 REVERT JUMPDEST POP PUSH2 0xE6A DUP14 DUP3 DUP15 ADD PUSH2 0xD55 JUMP JUMPDEST SWAP2 POP DUP1 SWAP4 POP POP DUP1 SWAP2 POP POP SWAP3 SWAP6 SWAP9 SWAP12 SWAP2 SWAP5 SWAP8 SWAP11 POP SWAP3 SWAP6 SWAP9 POP JUMP JUMPDEST PUSH1 0x1 PUSH1 0x1 PUSH1 0xA0 SHL SUB DUP2 AND DUP2 EQ PUSH2 0xE97 JUMPI PUSH0 DUP1 REVERT JUMPDEST POP JUMP JUMPDEST PUSH0 DUP1 PUSH0 DUP1 PUSH0 PUSH1 0x80 DUP7 DUP9 SUB SLT ISZERO PUSH2 0xEAE JUMPI PUSH0 DUP1 REVERT JUMPDEST DUP6 CALLDATALOAD PUSH8 0xFFFFFFFFFFFFFFFF DUP2 GT ISZERO PUSH2 0xEC4 JUMPI PUSH0 DUP1 REVERT JUMPDEST PUSH2 0xED0 DUP9 DUP3 DUP10 ADD PUSH2 0xD55 JUMP JUMPDEST SWAP1 SWAP7 POP SWAP5 POP POP PUSH1 0x20 DUP7 ADD CALLDATALOAD SWAP3 POP PUSH1 0x40 DUP7 ADD CALLDATALOAD SWAP2 POP PUSH1 0x60 DUP7 ADD CALLDATALOAD PUSH2 0xEF2 DUP2 PUSH2 0xE83 JUMP JUMPDEST DUP1 SWAP2 POP POP SWAP3 SWAP6 POP SWAP3 SWAP6 SWAP1 SWAP4 POP JUMP JUMPDEST PUSH0 DUP1 PUSH1 0x40 DUP4 DUP6 SUB SLT ISZERO PUSH2 0xF11 JUMPI PUSH0 DUP1 REVERT JUMPDEST DUP3 CALLDATALOAD PUSH2 0xF1C DUP2 PUSH2 0xE83 JUMP JUMPDEST SWAP5 PUSH1 0x20 SWAP4 SWAP1 SWAP4 ADD CALLDATALOAD SWAP4 POP POP POP JUMP JUMPDEST PUSH0 PUSH1 0x20 DUP1 DUP4 MSTORE DUP4 MLOAD DUP1 DUP3 DUP6 ADD MSTORE PUSH0 JUMPDEST DUP2 DUP2 LT ISZERO PUSH2 0xF55 JUMPI DUP6 DUP2 ADD DUP4 ADD MLOAD DUP6 DUP3 ADD PUSH1 0x40 ADD MSTORE DUP3 ADD PUSH2 0xF39 JUMP JUMPDEST POP PUSH0 PUSH1 0x40 DUP3 DUP7 ADD ADD MSTORE PUSH1 0x40 PUSH1 0x1F NOT PUSH1 0x1F DUP4 ADD AND DUP6 ADD ADD SWAP3 POP POP POP SWAP3 SWAP2 POP POP JUMP JUMPDEST PUSH4 0x4E487B71 PUSH1 0xE0 SHL PUSH0 MSTORE PUSH1 0x41 PUSH1 0x4 MSTORE PUSH1 0x24 PUSH0 REVERT JUMPDEST PUSH0 DUP1 PUSH0 PUSH1 0x60 DUP5 DUP7 SUB SLT ISZERO PUSH2 0xF9B JUMPI PUSH0 DUP1 REVERT JUMPDEST DUP4 CALLDATALOAD PUSH2 0xFA6 DUP2 PUSH2 0xE83 JUMP JUMPDEST SWAP3 POP PUSH1 0x20 DUP5 ADD CALLDATALOAD SWAP2 POP PUSH1 0x40 DUP5 ADD CALLDATALOAD PUSH8 0xFFFFFFFFFFFFFFFF DUP1 DUP3 GT ISZERO PUSH2 0xFC9 JUMPI PUSH0 DUP1 REVERT JUMPDEST DUP2 DUP7 ADD SWAP2 POP DUP7 PUSH1 0x1F DUP4 ADD SLT PUSH2 0xFDC JUMPI PUSH0 DUP1 REVERT JUMPDEST DUP2 CALLDATALOAD DUP2 DUP2 GT ISZERO PUSH2 0xFEE JUMPI PUSH2 0xFEE PUSH2 0xF75 JUMP JUMPDEST PUSH1 0x40 MLOAD PUSH1 0x1F DUP3 ADD PUSH1 0x1F NOT SWAP1 DUP2 AND PUSH1 0x3F ADD AND DUP2 ADD SWAP1 DUP4 DUP3 GT DUP2 DUP4 LT OR ISZERO PUSH2 0x1016 JUMPI PUSH2 0x1016 PUSH2 0xF75 JUMP JUMPDEST DUP2 PUSH1 0x40 MSTORE DUP3 DUP2 MSTORE DUP10 PUSH1 0x20 DUP5 DUP8 ADD ADD GT ISZERO PUSH2 0x102E JUMPI PUSH0 DUP1 REVERT JUMPDEST DUP3 PUSH1 0x20 DUP7 ADD PUSH1 0x20 DUP4 ADD CALLDATACOPY PUSH0 PUSH1 0x20 DUP5 DUP4 ADD ADD MSTORE DUP1 SWAP6 POP POP POP POP POP POP SWAP3 POP SWAP3 POP SWAP3 JUMP JUMPDEST DUP1 ISZERO ISZERO DUP2 EQ PUSH2 0xE97 JUMPI PUSH0 DUP1 REVERT JUMPDEST PUSH0 PUSH1 0x20 DUP3 DUP5 SUB SLT ISZERO PUSH2 0x106C JUMPI PUSH0 DUP1 REVERT JUMPDEST DUP2 MLOAD PUSH2 0xD03 DUP2 PUSH2 0x104F JUMP JUMPDEST DUP2 DUP4 MSTORE PUSH0 PUSH1 0x1 PUSH1 0x1 PUSH1 0xFB SHL SUB DUP4 GT ISZERO PUSH2 0x108E JUMPI PUSH0 DUP1 REVERT JUMPDEST DUP3 PUSH1 0x5 SHL DUP1 DUP4 PUSH1 0x20 DUP8 ADD CALLDATACOPY SWAP4 SWAP1 SWAP4 ADD PUSH1 0x20 ADD SWAP4 SWAP3 POP POP POP JUMP JUMPDEST PUSH1 0x60 DUP2 MSTORE PUSH0 PUSH2 0x10BA PUSH1 0x60 DUP4 ADD DUP9 DUP11 PUSH2 0x1077 JUMP JUMPDEST PUSH1 0x20 DUP4 DUP3 SUB DUP2 DUP6 ADD MSTORE PUSH2 0x10CE DUP3 DUP9 DUP11 PUSH2 0x1077 JUMP JUMPDEST DUP5 DUP2 SUB PUSH1 0x40 DUP7 ADD MSTORE DUP6 DUP2 MSTORE DUP7 SWAP3 POP DUP2 ADD PUSH0 JUMPDEST DUP7 DUP2 LT ISZERO PUSH2 0x110E JUMPI DUP4 CALLDATALOAD PUSH2 0x10F3 DUP2 PUSH2 0xE83 JUMP JUMPDEST PUSH1 0x1 PUSH1 0x1 PUSH1 0xA0 SHL SUB AND DUP3 MSTORE SWAP3 DUP3 ADD SWAP3 SWAP1 DUP3 ADD SWAP1 PUSH1 0x1 ADD PUSH2 0x10E0 JUMP JUMPDEST POP SWAP11 SWAP10 POP POP POP POP POP POP POP POP POP POP JUMP JUMPDEST PUSH4 0x4E487B71 PUSH1 0xE0 SHL PUSH0 MSTORE PUSH1 0x12 PUSH1 0x4 MSTORE PUSH1 0x24 PUSH0 REVERT JUMPDEST PUSH4 0x4E487B71 PUSH1 0xE0 SHL PUSH0 MSTORE PUSH1 0x11 PUSH1 0x4 MSTORE PUSH1 0x24 PUSH0 REVERT JUMPDEST PUSH0 DUP3 PUSH2 0x1153 JUMPI PUSH2 0x1153 PUSH2 0x111D JUMP JUMPDEST POP DIV SWAP1 JUMP JUMPDEST PUSH0 DUP3 PUSH2 0x1166 JUMPI PUSH2 0x1166 PUSH2 0x111D JUMP JUMPDEST POP MOD SWAP1 JUMP JUMPDEST PUSH1 0x1 DUP2 DUP2 SHR SWAP1 DUP3 AND DUP1 PUSH2 0x117F JUMPI PUSH1 0x7F DUP3 AND SWAP2 POP JUMPDEST PUSH1 0x20 DUP3 LT DUP2 SUB PUSH2 0x119D JUMPI PUSH4 0x4E487B71 PUSH1 0xE0 SHL PUSH0 MSTORE PUSH1 0x22 PUSH1 0x4 MSTORE PUSH1 0x24 PUSH0 REVERT JUMPDEST POP SWAP2 SWAP1 POP JUMP JUMPDEST PUSH1 0x1F DUP3 GT ISZERO PUSH2 0x11E8 JUMPI PUSH0 DUP2 DUP2 MSTORE PUSH1 0x20 DUP2 KECCAK256 PUSH1 0x1F DUP6 ADD PUSH1 0x5 SHR DUP2 ADD PUSH1 0x20 DUP7 LT ISZERO PUSH2 0x11C9 JUMPI POP DUP1 JUMPDEST PUSH1 0x1F DUP6 ADD PUSH1 0x5 SHR DUP3 ADD SWAP2 POP JUMPDEST DUP2 DUP2 LT ISZERO PUSH2 0x9A2 JUMPI DUP3 DUP2 SSTORE PUSH1 0x1 ADD PUSH2 0x11D5 JUMP JUMPDEST POP POP POP JUMP JUMPDEST DUP2 MLOAD PUSH8 0xFFFFFFFFFFFFFFFF DUP2 GT ISZERO PUSH2 0x1207 JUMPI PUSH2 0x1207 PUSH2 0xF75 JUMP JUMPDEST PUSH2 0x121B DUP2 PUSH2 0x1215 DUP5 SLOAD PUSH2 0x116B JUMP JUMPDEST DUP5 PUSH2 0x11A3 JUMP JUMPDEST PUSH1 0x20 DUP1 PUSH1 0x1F DUP4 GT PUSH1 0x1 DUP2 EQ PUSH2 0x124E JUMPI PUSH0 DUP5 ISZERO PUSH2 0x1237 JUMPI POP DUP6 DUP4 ADD MLOAD JUMPDEST PUSH0 NOT PUSH1 0x3 DUP7 SWAP1 SHL SHR NOT AND PUSH1 0x1 DUP6 SWAP1 SHL OR DUP6 SSTORE PUSH2 0x9A2 JUMP JUMPDEST PUSH0 DUP6 DUP2 MSTORE PUSH1 0x20 DUP2 KECCAK256 PUSH1 0x1F NOT DUP7 AND SWAP2 JUMPDEST DUP3 DUP2 LT ISZERO PUSH2 0x127C JUMPI DUP9 DUP7 ADD MLOAD DUP3 SSTORE SWAP5 DUP5 ADD SWAP5 PUSH1 0x1 SWAP1 SWAP2 ADD SWAP1 DUP5 ADD PUSH2 0x125D JUMP JUMPDEST POP DUP6 DUP3 LT ISZERO PUSH2 0x1299 JUMPI DUP8 DUP6 ADD MLOAD PUSH0 NOT PUSH1 0x3 DUP9 SWAP1 SHL PUSH1 0xF8 AND SHR NOT AND DUP2 SSTORE JUMPDEST POP POP POP POP POP PUSH1 0x1 SWAP1 DUP2 SHL ADD SWAP1 SSTORE POP JUMP JUMPDEST PUSH4 0x4E487B71 PUSH1 0xE0 SHL PUSH0 MSTORE PUSH1 0x32 PUSH1 0x4 MSTORE PUSH1 0x24 PUSH0 REVERT JUMPDEST PUSH0 PUSH1 0x20 DUP3 DUP5 SUB SLT ISZERO PUSH2 0x12CD JUMPI PUSH0 DUP1 REVERT JUMPDEST DUP2 CALLDATALOAD PUSH2 0xD03 DUP2 PUSH2 0xE83 JUMP JUMPDEST PUSH0 PUSH1 0x20 DUP3 DUP5 SUB SLT ISZERO PUSH2 0x12E8 JUMPI PUSH0 DUP1 REVERT JUMPDEST DUP2 MLOAD PUSH2 0xD03 DUP2 PUSH2 0xE83 JUMP JUMPDEST DUP1 DUP3 ADD DUP1 DUP3 GT ISZERO PUSH2 0x365 JUMPI PUSH2 0x365 PUSH2 0x1131 JUMP JUMPDEST PUSH0 PUSH1 0x1 DUP3 ADD PUSH2 0x1317 JUMPI PUSH2 0x1317 PUSH2 0x1131 JUMP JUMPDEST POP PUSH1 0x1 ADD SWAP1 JUMP JUMPDEST DUP2 DUP2 SUB DUP2 DUP2 GT ISZERO PUSH2 0x365 JUMPI PUSH2 0x365 PUSH2 0x1131 JUMP JUMPDEST PUSH0 PUSH1 0x20 DUP3 DUP5 SUB SLT ISZERO PUSH2 0x1341 JUMPI PUSH0 DUP1 REVERT JUMPDEST DUP2 CALLDATALOAD PUSH2 0xD03 DUP2 PUSH2 0x104F JUMP INVALID LOG2 PUSH5 0x6970667358 0x22 SLT KECCAK256 DUP9 STATICCALL PUSH28 0x2C96BF8FAAB9C13BB3941CFB1B363AE1376007AEBBC0A771A5BE5894 PUSH17 0x64736F6C63430008150033000000000000 "
				},
				"gasEstimates": {
					"creation": {
						"codeDepositCost": "170000",
						"executionCost": "infinite",
						"totalCost": "infinite"
					},
					"external": {
						"createNewDrop(address,bytes32,string)": "infinite",
						"implementation()": "2301"
					}
				},
				"methodIdentifiers": {
					"createNewDrop(address,bytes32,string)": "e8bead02",
					"implementation()": "5c60da1b"
				}
			},
			"storageLayout": {
				"storage": [
					{
						"astId": 2182,
						"contract": "contracts/LoveDropFactory.sol:LoveDropFactory",
						"label": "implementation",
						"offset": 0,
						"slot": "0",
						"type": "t_address"
					}
				],
				"types": {
					"t_address": {
						"encoding": "inplace",
						"label": "address",
						"numberOfBytes": "20"
					}
				}
			},
			"userdoc": {
				"kind": "user",
				"methods": {},
				"version": 1
			}
		}
	}
}