{
	"data": {
		"bytecode": {
			"linkReferences": {},
			"object": "60806040526040516100109061005a565b604051809103905ff080158015610029573d5f803e3d5ffd5b505f80546001600160a01b0319166001600160a01b0392909216919091179055348015610054575f80fd5b50610067565b61139f806103c683390190565b610352806100745f395ff3fe608060405234801561000f575f80fd5b5060043610610034575f3560e01c80635c60da1b14610038578063e8bead0214610066575b5f80fd5b5f5461004a906001600160a01b031681565b6040516001600160a01b03909116815260200160405180910390f35b6100796100743660046101e9565b61007b565b005b5f8054339190610093906001600160a01b031661013a565b604051633c38c85960e21b81529091506001600160a01b0382169063f0e32164906100c6908890889088906004016102ba565b5f604051808303815f87803b1580156100dd575f80fd5b505af11580156100ef573d5f803e3d5ffd5b50506040516001600160a01b038481168252851692507f1e4d1ffdcddd8a1f895904c7d3e195a597210396f9b3e1717cb53bb9c29cc3ea915060200160405180910390a25050505050565b5f763d602d80600a3d3981f3363d3d373d3d3d363d730000008260601b60e81c175f526e5af43d82803e903d91602b57fd5bf38260781b17602052603760095ff090506001600160a01b0381166101d05760405162461bcd60e51b8152602060048201526016602482015275115490cc4c4d8dce8818dc99585d194819985a5b195960521b604482015260640160405180910390fd5b919050565b634e487b7160e01b5f52604160045260245ffd5b5f805f606084860312156101fb575f80fd5b83356001600160a01b0381168114610211575f80fd5b925060208401359150604084013567ffffffffffffffff80821115610234575f80fd5b818601915086601f830112610247575f80fd5b813581811115610259576102596101d5565b604051601f8201601f19908116603f01168101908382118183101715610281576102816101d5565b81604052828152896020848701011115610299575f80fd5b826020860160208301375f6020848301015280955050505050509250925092565b60018060a01b03841681525f602084818401526060604084015283518060608501525f5b818110156102fa578581018301518582016080015282016102de565b505f608082860101526080601f19601f8301168501019250505094935050505056fea26469706673582212206e04f30cfb3e0ff742fadc76488a6f4a9e820907d3d9195f0d814368a66a4b8c64736f6c63430008150033608060405234801561000f575f80fd5b506113828061001d5f395ff3fe608060405234801561000f575f80fd5b506004361061007a575f3560e01c8063562beba811610058578063562beba8146100c25780638d0be996146100e5578063b73e0e8b146100fa578063f0e3216414610125575f80fd5b80632ade842f1461007e5780632eb4a7ab14610093578063467ff8ed146100af575b5f80fd5b61009161008c366004610d9d565b610138565b005b61009c60035481565b6040519081526020015b60405180910390f35b6100916100bd366004610e9a565b61023b565b6100d56100d0366004610f00565b610314565b60405190151581526020016100a6565b6100ed61036b565b6040516100a69190610f2a565b60025461010d906001600160a01b031681565b6040516001600160a01b0390911681526020016100a6565b610091610133366004610f89565b6103f7565b5f8061014888888888888861052f565b9150915061015c8c8c8c8c600354876107fc565b610179576040516309bde33960e01b815260040160405180910390fd5b60025460405163a9059cbb60e01b8152336004820152602481018390526001600160a01b039091169063a9059cbb906044016020604051808303815f875af11580156101c7573d5f803e3d5ffd5b505050506040513d601f19601f820116820180604052508101906101eb919061105c565b507f823ba58ceffeeaa30fa8e38650dcb17b37601bdc5937d29da4be31a665c818d2888888888888604051610225969594939291906110a7565b60405180910390a1505050505050505050505050565b6102488184848888610817565b61025281846109aa565b60025460405163a9059cbb60e01b8152336004820152602481018490526001600160a01b039091169063a9059cbb906044016020604051808303815f875af11580156102a0573d5f803e3d5ffd5b505050506040513d601f19601f820116820180604052508101906102c4919061105c565b5060408051848152602081018490526001600160a01b0383168183015290517fc09f7b3c1c5b70bf6d30e485a4525d625d4723aed5d319376825446ef135c7ca9181900360600190a15050505050565b5f8061032261010084611145565b90505f61033161010085611158565b6001600160a01b0386165f9081526004602090815260408083209583529490529290922054600190921b9182169091149150505b92915050565b600180546103789061116b565b80601f01602080910402602001604051908101604052809291908181526020018280546103a49061116b565b80156103ef5780601f106103c6576101008083540402835291602001916103ef565b820191905f5260205f20905b8154815290600101906020018083116103d257829003601f168201915b505050505081565b5f54610100900460ff161580801561041557505f54600160ff909116105b8061042e5750303b15801561042e57505f5460ff166001145b6104965760405162461bcd60e51b815260206004820152602e60248201527f496e697469616c697a61626c653a20636f6e747261637420697320616c72656160448201526d191e481a5b9a5d1a585b1a5e995960921b60648201526084015b60405180910390fd5b5f805460ff1916600117905580156104b7575f805461ff0019166101001790555b600280546001600160a01b0319166001600160a01b038616179055600383905560016104e383826111ed565b508015610529575f805461ff0019169055604051600181527f7f26b83ff96e1f2b6a682f133852f6798a09c465da95921460cefb38474024989060200160405180910390a15b50505050565b60605f8685811461059a5760405162461bcd60e51b815260206004820152602f60248201527f6c656e677468206f662069647320616e6420616d6f756e74732061727261792060448201526e6973206e6f74207468652073616d6560881b606482015260840161048d565b5f808267ffffffffffffffff8111156105b5576105b5610f75565b6040519080825280602002602001820160405280156105de578160200160208202803683370190505b5090505f5b838110156107ec575f8a8a838181106105fe576105fe6112a9565b9050602002013590505f8d8d8481811061061a5761061a6112a9565b9050602002013590505f8a8a85818110610636576106366112a9565b905060200201602081019061064b91906112bd565b90506106578183610314565b1561067557604051630c8d9eab60e31b815260040160405180910390fd5b6040516331a9108f60e11b81526004810183905233906001600160a01b03831690636352211e90602401602060405180830381865afa1580156106ba573d5f803e3d5ffd5b505050506040513d601f19601f820116820180604052508101906106de91906112d8565b6001600160a01b03161461074d5760405162461bcd60e51b815260206004820152603060248201527f6f6e65206f72206d6f7265206f66207468657365206e6674732069736e74206f60448201526f1ddb995908189e4818db185a5b585b9d60821b606482015260840161048d565b61075781836109aa565b604080516001600160a01b03831660208201529081018390526060810184905260800160408051601f1981840301815282825280516020918201209083015201604051602081830303815290604052805190602001208585815181106107bf576107bf6112a9565b60209081029190910101526107d483876112f3565b955050505080806107e490611306565b9150506105e3565b509a909950975050505050505050565b5f8261080b88888888876109fd565b14979650505050505050565b6108218585610314565b1561083f57604051630c8d9eab60e31b815260040160405180910390fd5b6040516331a9108f60e11b81526004810185905233906001600160a01b03871690636352211e90602401602060405180830381865afa158015610884573d5f803e3d5ffd5b505050506040513d601f19601f820116820180604052508101906108a891906112d8565b6001600160a01b0316146108fe5760405162461bcd60e51b815260206004820152601a60248201527f6e66742069736e74206f776e656420627920636c61696d616e74000000000000604482015260640161048d565b604080516001600160a01b0387166020820152908101859052606081018490525f9060800160408051601f1981840301815282825280516020918201209083015201604051602081830303815290604052805190602001209050610966838360035484610cc4565b6109a25760405162461bcd60e51b815260206004820152600d60248201526c24b73b30b634b210383937b7b360991b604482015260640161048d565b505050505050565b5f6109b761010083611145565b90505f6109c661010084611158565b6001600160a01b03949094165f908152600460209081526040808320948352939052919091208054600190941b9093179092555050565b80515f908584806001610a1084866112f3565b610a1a919061131e565b14610a675760405162461bcd60e51b815260206004820152601f60248201527f4d65726b6c6550726f6f663a20696e76616c6964206d756c746970726f6f6600604482015260640161048d565b5f8167ffffffffffffffff811115610a8157610a81610f75565b604051908082528060200260200182016040528015610aaa578160200160208202803683370190505b5090505f805f805b85811015610bff575f888510610aec578584610acd81611306565b955081518110610adf57610adf6112a9565b6020026020010151610b12565b8a85610af781611306565b965081518110610b0957610b096112a9565b60200260200101515b90505f8d8d84818110610b2757610b276112a9565b9050602002016020810190610b3c9190611331565b610b69578f8f85610b4c81611306565b9650818110610b5d57610b5d6112a9565b90506020020135610bc0565b898610610b9a578685610b7b81611306565b965081518110610b8d57610b8d6112a9565b6020026020010151610bc0565b8b86610ba581611306565b975081518110610bb757610bb76112a9565b60200260200101515b9050610bcc8282610cdb565b878481518110610bde57610bde6112a9565b60200260200101818152505050508080610bf790611306565b915050610ab2565b508415610c8057858114610c555760405162461bcd60e51b815260206004820152601f60248201527f4d65726b6c6550726f6f663a20696e76616c6964206d756c746970726f6f6600604482015260640161048d565b836001860381518110610c6a57610c6a6112a9565b6020026020010151975050505050505050610cbb565b8615610c9857885f81518110610c6a57610c6a6112a9565b8c8c5f818110610caa57610caa6112a9565b905060200201359750505050505050505b95945050505050565b5f82610cd1868685610d0a565b1495945050505050565b5f818310610cf5575f828152602084905260409020610d03565b5f8381526020839052604090205b9392505050565b5f81815b84811015610d4c57610d3882878784818110610d2c57610d2c6112a9565b90506020020135610cdb565b915080610d4481611306565b915050610d0e565b50949350505050565b5f8083601f840112610d65575f80fd5b50813567ffffffffffffffff811115610d7c575f80fd5b6020830191508360208260051b8501011115610d96575f80fd5b9250929050565b5f805f805f805f805f8060a08b8d031215610db6575f80fd5b8a3567ffffffffffffffff80821115610dcd575f80fd5b610dd98e838f01610d55565b909c509a5060208d0135915080821115610df1575f80fd5b610dfd8e838f01610d55565b909a50985060408d0135915080821115610e15575f80fd5b610e218e838f01610d55565b909850965060608d0135915080821115610e39575f80fd5b610e458e838f01610d55565b909650945060808d0135915080821115610e5d575f80fd5b50610e6a8d828e01610d55565b915080935050809150509295989b9194979a5092959850565b6001600160a01b0381168114610e97575f80fd5b50565b5f805f805f60808688031215610eae575f80fd5b853567ffffffffffffffff811115610ec4575f80fd5b610ed088828901610d55565b90965094505060208601359250604086013591506060860135610ef281610e83565b809150509295509295909350565b5f8060408385031215610f11575f80fd5b8235610f1c81610e83565b946020939093013593505050565b5f6020808352835180828501525f5b81811015610f5557858101830151858201604001528201610f39565b505f604082860101526040601f19601f8301168501019250505092915050565b634e487b7160e01b5f52604160045260245ffd5b5f805f60608486031215610f9b575f80fd5b8335610fa681610e83565b925060208401359150604084013567ffffffffffffffff80821115610fc9575f80fd5b818601915086601f830112610fdc575f80fd5b813581811115610fee57610fee610f75565b604051601f8201601f19908116603f0116810190838211818310171561101657611016610f75565b8160405282815289602084870101111561102e575f80fd5b826020860160208301375f6020848301015280955050505050509250925092565b8015158114610e97575f80fd5b5f6020828403121561106c575f80fd5b8151610d038161104f565b8183525f6001600160fb1b0383111561108e575f80fd5b8260051b80836020870137939093016020019392505050565b606081525f6110ba60608301888a611077565b6020838203818501526110ce82888a611077565b848103604086015285815286925081015f5b8681101561110e5783356110f381610e83565b6001600160a01b0316825292820192908201906001016110e0565b509a9950505050505050505050565b634e487b7160e01b5f52601260045260245ffd5b634e487b7160e01b5f52601160045260245ffd5b5f826111535761115361111d565b500490565b5f826111665761116661111d565b500690565b600181811c9082168061117f57607f821691505b60208210810361119d57634e487b7160e01b5f52602260045260245ffd5b50919050565b601f8211156111e8575f81815260208120601f850160051c810160208610156111c95750805b601f850160051c820191505b818110156109a2578281556001016111d5565b505050565b815167ffffffffffffffff81111561120757611207610f75565b61121b81611215845461116b565b846111a3565b602080601f83116001811461124e575f84156112375750858301515b5f19600386901b1c1916600185901b1785556109a2565b5f85815260208120601f198616915b8281101561127c5788860151825594840194600190910190840161125d565b508582101561129957878501515f19600388901b60f8161c191681555b5050505050600190811b01905550565b634e487b7160e01b5f52603260045260245ffd5b5f602082840312156112cd575f80fd5b8135610d0381610e83565b5f602082840312156112e8575f80fd5b8151610d0381610e83565b8082018082111561036557610365611131565b5f6001820161131757611317611131565b5060010190565b8181038181111561036557610365611131565b5f60208284031215611341575f80fd5b8135610d038161104f56fea264697066735822122088fa7b2c96bf8faab9c13bb3941cfb1b363ae1376007aebbc0a771a5be58947064736f6c63430008150033",
			"opcodes": "PUSH1 0x80 PUSH1 0x40 MSTORE PUSH1 0x40 MLOAD PUSH2 0x10 SWAP1 PUSH2 0x5A JUMP JUMPDEST PUSH1 0x40 MLOAD DUP1 SWAP2 SUB SWAP1 PUSH0 CREATE DUP1 ISZERO DUP1 ISZERO PUSH2 0x29 JUMPI RETURNDATASIZE PUSH0 DUP1 RETURNDATACOPY RETURNDATASIZE PUSH0 REVERT JUMPDEST POP PUSH0 DUP1 SLOAD PUSH1 0x1 PUSH1 0x1 PUSH1 0xA0 SHL SUB NOT AND PUSH1 0x1 PUSH1 0x1 PUSH1 0xA0 SHL SUB SWAP3 SWAP1 SWAP3 AND SWAP2 SWAP1 SWAP2 OR SWAP1 SSTORE CALLVALUE DUP1 ISZERO PUSH2 0x54 JUMPI PUSH0 DUP1 REVERT JUMPDEST POP PUSH2 0x67 JUMP JUMPDEST PUSH2 0x139F DUP1 PUSH2 0x3C6 DUP4 CODECOPY ADD SWAP1 JUMP JUMPDEST PUSH2 0x352 DUP1 PUSH2 0x74 PUSH0 CODECOPY PUSH0 RETURN INVALID PUSH1 0x80 PUSH1 0x40 MSTORE CALLVALUE DUP1 ISZERO PUSH2 0xF JUMPI PUSH0 DUP1 REVERT JUMPDEST POP PUSH1 0x4 CALLDATASIZE LT PUSH2 0x34 JUMPI PUSH0 CALLDATALOAD PUSH1 0xE0 SHR DUP1 PUSH4 0x5C60DA1B EQ PUSH2 0x38 JUMPI DUP1 PUSH4 0xE8BEAD02 EQ PUSH2 0x66 JUMPI JUMPDEST PUSH0 DUP1 REVERT JUMPDEST PUSH0 SLOAD PUSH2 0x4A SWAP1 PUSH1 0x1 PUSH1 0x1 PUSH1 0xA0 SHL SUB AND DUP2 JUMP JUMPDEST PUSH1 0x40 MLOAD PUSH1 0x1 PUSH1 0x1 PUSH1 0xA0 SHL SUB SWAP1 SWAP2 AND DUP2 MSTORE PUSH1 0x20 ADD PUSH1 0x40 MLOAD DUP1 SWAP2 SUB SWAP1 RETURN JUMPDEST PUSH2 0x79 PUSH2 0x74 CALLDATASIZE PUSH1 0x4 PUSH2 0x1E9 JUMP JUMPDEST PUSH2 0x7B JUMP JUMPDEST STOP JUMPDEST PUSH0 DUP1 SLOAD CALLER SWAP2 SWAP1 PUSH2 0x93 SWAP1 PUSH1 0x1 PUSH1 0x1 PUSH1 0xA0 SHL SUB AND PUSH2 0x13A JUMP JUMPDEST PUSH1 0x40 MLOAD PUSH4 0x3C38C859 PUSH1 0xE2 SHL DUP2 MSTORE SWAP1 SWAP2 POP PUSH1 0x1 PUSH1 0x1 PUSH1 0xA0 SHL SUB DUP3 AND SWAP1 PUSH4 0xF0E32164 SWAP1 PUSH2 0xC6 SWAP1 DUP9 SWAP1 DUP9 SWAP1 DUP9 SWAP1 PUSH1 0x4 ADD PUSH2 0x2BA JUMP JUMPDEST PUSH0 PUSH1 0x40 MLOAD DUP1 DUP4 SUB DUP2 PUSH0 DUP8 DUP1 EXTCODESIZE ISZERO DUP1 ISZERO PUSH2 0xDD JUMPI PUSH0 DUP1 REVERT JUMPDEST POP GAS CALL ISZERO DUP1 ISZERO PUSH2 0xEF JUMPI RETURNDATASIZE PUSH0 DUP1 RETURNDATACOPY RETURNDATASIZE PUSH0 REVERT JUMPDEST POP POP PUSH1 0x40 MLOAD PUSH1 0x1 PUSH1 0x1 PUSH1 0xA0 SHL SUB DUP5 DUP2 AND DUP3 MSTORE DUP6 AND SWAP3 POP PUSH32 0x1E4D1FFDCDDD8A1F895904C7D3E195A597210396F9B3E1717CB53BB9C29CC3EA SWAP2 POP PUSH1 0x20 ADD PUSH1 0x40 MLOAD DUP1 SWAP2 SUB SWAP1 LOG2 POP POP POP POP POP JUMP JUMPDEST PUSH0 PUSH23 0x3D602D80600A3D3981F3363D3D373D3D3D363D73000000 DUP3 PUSH1 0x60 SHL PUSH1 0xE8 SHR OR PUSH0 MSTORE PUSH15 0x5AF43D82803E903D91602B57FD5BF3 DUP3 PUSH1 0x78 SHL OR PUSH1 0x20 MSTORE PUSH1 0x37 PUSH1 0x9 PUSH0 CREATE SWAP1 POP PUSH1 0x1 PUSH1 0x1 PUSH1 0xA0 SHL SUB DUP2 AND PUSH2 0x1D0 JUMPI PUSH1 0x40 MLOAD PUSH3 0x461BCD PUSH1 0xE5 SHL DUP2 MSTORE PUSH1 0x20 PUSH1 0x4 DUP3 ADD MSTORE PUSH1 0x16 PUSH1 0x24 DUP3 ADD MSTORE PUSH22 0x115490CC4C4D8DCE8818DC99585D194819985A5B1959 PUSH1 0x52 SHL PUSH1 0x44 DUP3 ADD MSTORE PUSH1 0x64 ADD PUSH1 0x40 MLOAD DUP1 SWAP2 SUB SWAP1 REVERT JUMPDEST SWAP2 SWAP1 POP JUMP JUMPDEST PUSH4 0x4E487B71 PUSH1 0xE0 SHL PUSH0 MSTORE PUSH1 0x41 PUSH1 0x4 MSTORE PUSH1 0x24 PUSH0 REVERT JUMPDEST PUSH0 DUP1 PUSH0 PUSH1 0x60 DUP5 DUP7 SUB SLT ISZERO PUSH2 0x1FB JUMPI PUSH0 DUP1 REVERT JUMPDEST DUP4 CALLDATALOAD PUSH1 0x1 PUSH1 0x1 PUSH1 0xA0 SHL SUB DUP2 AND DUP2 EQ PUSH2 0x211 JUMPI PUSH0 DUP1 REVERT JUMPDEST SWAP3 POP PUSH1 0x20 DUP5 ADD CALLDATALOAD SWAP2 POP PUSH1 0x40 DUP5 ADD CALLDATALOAD PUSH8 0xFFFFFFFFFFFFFFFF DUP1 DUP3 GT ISZERO PUSH2 0x234 JUMPI PUSH0 DUP1 REVERT JUMPDEST DUP2 DUP7 ADD SWAP2 POP DUP7 PUSH1 0x1F DUP4 ADD SLT PUSH2 0x247 JUMPI PUSH0 DUP1 REVERT JUMPDEST DUP2 CALLDATALOAD DUP2 DUP2 GT ISZERO PUSH2 0x259 JUMPI PUSH2 0x259 PUSH2 0x1D5 JUMP JUMPDEST PUSH1 0x40 MLOAD PUSH1 0x1F DUP3 ADD PUSH1 0x1F NOT SWAP1 DUP2 AND PUSH1 0x3F ADD AND DUP2 ADD SWAP1 DUP4 DUP3 GT DUP2 DUP4 LT OR ISZERO PUSH2 0x281 JUMPI PUSH2 0x281 PUSH2 0x1D5 JUMP JUMPDEST DUP2 PUSH1 0x40 MSTORE DUP3 DUP2 MSTORE DUP10 PUSH1 0x20 DUP5 DUP8 ADD ADD GT ISZERO PUSH2 0x299 JUMPI PUSH0 DUP1 REVERT JUMPDEST DUP3 PUSH1 0x20 DUP7 ADD PUSH1 0x20 DUP4 ADD CALLDATACOPY PUSH0 PUSH1 0x20 DUP5 DUP4 ADD ADD MSTORE DUP1 SWAP6 POP POP POP POP POP POP SWAP3 POP SWAP3 POP SWAP3 JUMP JUMPDEST PUSH1 0x1 DUP1 PUSH1 0xA0 SHL SUB DUP5 AND DUP2 MSTORE PUSH0 PUSH1 0x20 DUP5 DUP2 DUP5 ADD MSTORE PUSH1 0x60 PUSH1 0x40 DUP5 ADD MSTORE DUP4 MLOAD DUP1 PUSH1 0x60 DUP6 ADD MSTORE PUSH0 JUMPDEST DUP2 DUP2 LT ISZERO PUSH2 0x2FA JUMPI DUP6 DUP2 ADD DUP4 ADD MLOAD DUP6 DUP3 ADD PUSH1 0x80 ADD MSTORE DUP3 ADD PUSH2 0x2DE JUMP JUMPDEST POP PUSH0 PUSH1 0x80 DUP3 DUP7 ADD ADD MSTORE PUSH1 0x80 PUSH1 0x1F NOT PUSH1 0x1F DUP4 ADD AND DUP6 ADD ADD SWAP3 POP POP POP SWAP5 SWAP4 POP POP POP POP JUMP INVALID LOG2 PUSH5 0x6970667358 0x22 SLT KECCAK256 PUSH15 0x4F30CFB3E0FF742FADC76488A6F4A SWAP15 DUP3 MULMOD SMOD 0xD3 0xD9 NOT PUSH0 0xD DUP2 NUMBER PUSH9 0xA66A4B8C64736F6C63 NUMBER STOP ADDMOD ISZERO STOP CALLER PUSH1 0x80 PUSH1 0x40 MSTORE CALLVALUE DUP1 ISZERO PUSH2 0xF JUMPI PUSH0 DUP1 REVERT JUMPDEST POP PUSH2 0x1382 DUP1 PUSH2 0x1D PUSH0 CODECOPY PUSH0 RETURN INVALID PUSH1 0x80 PUSH1 0x40 MSTORE CALLVALUE DUP1 ISZERO PUSH2 0xF JUMPI PUSH0 DUP1 REVERT JUMPDEST POP PUSH1 0x4 CALLDATASIZE LT PUSH2 0x7A JUMPI PUSH0 CALLDATALOAD PUSH1 0xE0 SHR DUP1 PUSH4 0x562BEBA8 GT PUSH2 0x58 JUMPI DUP1 PUSH4 0x562BEBA8 EQ PUSH2 0xC2 JUMPI DUP1 PUSH4 0x8D0BE996 EQ PUSH2 0xE5 JUMPI DUP1 PUSH4 0xB73E0E8B EQ PUSH2 0xFA JUMPI DUP1 PUSH4 0xF0E32164 EQ PUSH2 0x125 JUMPI PUSH0 DUP1 REVERT JUMPDEST DUP1 PUSH4 0x2ADE842F EQ PUSH2 0x7E JUMPI DUP1 PUSH4 0x2EB4A7AB EQ PUSH2 0x93 JUMPI DUP1 PUSH4 0x467FF8ED EQ PUSH2 0xAF JUMPI JUMPDEST PUSH0 DUP1 REVERT JUMPDEST PUSH2 0x91 PUSH2 0x8C CALLDATASIZE PUSH1 0x4 PUSH2 0xD9D JUMP JUMPDEST PUSH2 0x138 JUMP JUMPDEST STOP JUMPDEST PUSH2 0x9C PUSH1 0x3 SLOAD DUP2 JUMP JUMPDEST PUSH1 0x40 MLOAD SWAP1 DUP2 MSTORE PUSH1 0x20 ADD JUMPDEST PUSH1 0x40 MLOAD DUP1 SWAP2 SUB SWAP1 RETURN JUMPDEST PUSH2 0x91 PUSH2 0xBD CALLDATASIZE PUSH1 0x4 PUSH2 0xE9A JUMP JUMPDEST PUSH2 0x23B JUMP JUMPDEST PUSH2 0xD5 PUSH2 0xD0 CALLDATASIZE PUSH1 0x4 PUSH2 0xF00 JUMP JUMPDEST PUSH2 0x314 JUMP JUMPDEST PUSH1 0x40 MLOAD SWAP1 ISZERO ISZERO DUP2 MSTORE PUSH1 0x20 ADD PUSH2 0xA6 JUMP JUMPDEST PUSH2 0xED PUSH2 0x36B JUMP JUMPDEST PUSH1 0x40 MLOAD PUSH2 0xA6 SWAP2 SWAP1 PUSH2 0xF2A JUMP JUMPDEST PUSH1 0x2 SLOAD PUSH2 0x10D SWAP1 PUSH1 0x1 PUSH1 0x1 PUSH1 0xA0 SHL SUB AND DUP2 JUMP JUMPDEST PUSH1 0x40 MLOAD PUSH1 0x1 PUSH1 0x1 PUSH1 0xA0 SHL SUB SWAP1 SWAP2 AND DUP2 MSTORE PUSH1 0x20 ADD PUSH2 0xA6 JUMP JUMPDEST PUSH2 0x91 PUSH2 0x133 CALLDATASIZE PUSH1 0x4 PUSH2 0xF89 JUMP JUMPDEST PUSH2 0x3F7 JUMP JUMPDEST PUSH0 DUP1 PUSH2 0x148 DUP9 DUP9 DUP9 DUP9 DUP9 DUP9 PUSH2 0x52F JUMP JUMPDEST SWAP2 POP SWAP2 POP PUSH2 0x15C DUP13 DUP13 DUP13 DUP13 PUSH1 0x3 SLOAD DUP8 PUSH2 0x7FC JUMP JUMPDEST PUSH2 0x179 JUMPI PUSH1 0x40 MLOAD PUSH4 0x9BDE339 PUSH1 0xE0 SHL DUP2 MSTORE PUSH1 0x4 ADD PUSH1 0x40 MLOAD DUP1 SWAP2 SUB SWAP1 REVERT JUMPDEST PUSH1 0x2 SLOAD PUSH1 0x40 MLOAD PUSH4 0xA9059CBB PUSH1 0xE0 SHL DUP2 MSTORE CALLER PUSH1 0x4 DUP3 ADD MSTORE PUSH1 0x24 DUP2 ADD DUP4 SWAP1 MSTORE PUSH1 0x1 PUSH1 0x1 PUSH1 0xA0 SHL SUB SWAP1 SWAP2 AND SWAP1 PUSH4 0xA9059CBB SWAP1 PUSH1 0x44 ADD PUSH1 0x20 PUSH1 0x40 MLOAD DUP1 DUP4 SUB DUP2 PUSH0 DUP8 GAS CALL ISZERO DUP1 ISZERO PUSH2 0x1C7 JUMPI RETURNDATASIZE PUSH0 DUP1 RETURNDATACOPY RETURNDATASIZE PUSH0 REVERT JUMPDEST POP POP POP POP PUSH1 0x40 MLOAD RETURNDATASIZE PUSH1 0x1F NOT PUSH1 0x1F DUP3 ADD AND DUP3 ADD DUP1 PUSH1 0x40 MSTORE POP DUP2 ADD SWAP1 PUSH2 0x1EB SWAP2 SWAP1 PUSH2 0x105C JUMP JUMPDEST POP PUSH32 0x823BA58CEFFEEAA30FA8E38650DCB17B37601BDC5937D29DA4BE31A665C818D2 DUP9 DUP9 DUP9 DUP9 DUP9 DUP9 PUSH1 0x40 MLOAD PUSH2 0x225 SWAP7 SWAP6 SWAP5 SWAP4 SWAP3 SWAP2 SWAP1 PUSH2 0x10A7 JUMP JUMPDEST PUSH1 0x40 MLOAD DUP1 SWAP2 SUB SWAP1 LOG1 POP POP POP POP POP POP POP POP POP POP POP POP JUMP JUMPDEST PUSH2 0x248 DUP2 DUP5 DUP5 DUP9 DUP9 PUSH2 0x817 JUMP JUMPDEST PUSH2 0x252 DUP2 DUP5 PUSH2 0x9AA JUMP JUMPDEST PUSH1 0x2 SLOAD PUSH1 0x40 MLOAD PUSH4 0xA9059CBB PUSH1 0xE0 SHL DUP2 MSTORE CALLER PUSH1 0x4 DUP3 ADD MSTORE PUSH1 0x24 DUP2 ADD DUP5 SWAP1 MSTORE PUSH1 0x1 PUSH1 0x1 PUSH1 0xA0 SHL SUB SWAP1 SWAP2 AND SWAP1 PUSH4 0xA9059CBB SWAP1 PUSH1 0x44 ADD PUSH1 0x20 PUSH1 0x40 MLOAD DUP1 DUP4 SUB DUP2 PUSH0 DUP8 GAS CALL ISZERO DUP1 ISZERO PUSH2 0x2A0 JUMPI RETURNDATASIZE PUSH0 DUP1 RETURNDATACOPY RETURNDATASIZE PUSH0 REVERT JUMPDEST POP POP POP POP PUSH1 0x40 MLOAD RETURNDATASIZE PUSH1 0x1F NOT PUSH1 0x1F DUP3 ADD AND DUP3 ADD DUP1 PUSH1 0x40 MSTORE POP DUP2 ADD SWAP1 PUSH2 0x2C4 SWAP2 SWAP1 PUSH2 0x105C JUMP JUMPDEST POP PUSH1 0x40 DUP1 MLOAD DUP5 DUP2 MSTORE PUSH1 0x20 DUP2 ADD DUP5 SWAP1 MSTORE PUSH1 0x1 PUSH1 0x1 PUSH1 0xA0 SHL SUB DUP4 AND DUP2 DUP4 ADD MSTORE SWAP1 MLOAD PUSH32 0xC09F7B3C1C5B70BF6D30E485A4525D625D4723AED5D319376825446EF135C7CA SWAP2 DUP2 SWAP1 SUB PUSH1 0x60 ADD SWAP1 LOG1 POP POP POP POP POP JUMP JUMPDEST PUSH0 DUP1 PUSH2 0x322 PUSH2 0x100 DUP5 PUSH2 0x1145 JUMP JUMPDEST SWAP1 POP PUSH0 PUSH2 0x331 PUSH2 0x100 DUP6 PUSH2 0x1158 JUMP JUMPDEST PUSH1 0x1 PUSH1 0x1 PUSH1 0xA0 SHL SUB DUP7 AND PUSH0 SWAP1 DUP2 MSTORE PUSH1 0x4 PUSH1 0x20 SWAP1 DUP2 MSTORE PUSH1 0x40 DUP1 DUP4 KECCAK256 SWAP6 DUP4 MSTORE SWAP5 SWAP1 MSTORE SWAP3 SWAP1 SWAP3 KECCAK256 SLOAD PUSH1 0x1 SWAP1 SWAP3 SHL SWAP2 DUP3 AND SWAP1 SWAP2 EQ SWAP2 POP POP JUMPDEST SWAP3 SWAP2 POP POP JUMP JUMPDEST PUSH1 0x1 DUP1 SLOAD PUSH2 0x378 SWAP1 PUSH2 0x116B JUMP JUMPDEST DUP1 PUSH1 0x1F ADD PUSH1 0x20 DUP1 SWAP2 DIV MUL PUSH1 0x20 ADD PUSH1 0x40 MLOAD SWAP1 DUP2 ADD PUSH1 0x40 MSTORE DUP1 SWAP3 SWAP2 SWAP1 DUP2 DUP2 MSTORE PUSH1 0x20 ADD DUP3 DUP1 SLOAD PUSH2 0x3A4 SWAP1 PUSH2 0x116B JUMP JUMPDEST DUP1 ISZERO PUSH2 0x3EF JUMPI DUP1 PUSH1 0x1F LT PUSH2 0x3C6 JUMPI PUSH2 0x100 DUP1 DUP4 SLOAD DIV MUL DUP4 MSTORE SWAP2 PUSH1 0x20 ADD SWAP2 PUSH2 0x3EF JUMP JUMPDEST DUP3 ADD SWAP2 SWAP1 PUSH0 MSTORE PUSH1 0x20 PUSH0 KECCAK256 SWAP1 JUMPDEST DUP2 SLOAD DUP2 MSTORE SWAP1 PUSH1 0x1 ADD SWAP1 PUSH1 0x20 ADD DUP1 DUP4 GT PUSH2 0x3D2 JUMPI DUP3 SWAP1 SUB PUSH1 0x1F AND DUP3 ADD SWAP2 JUMPDEST POP POP POP POP POP DUP2 JUMP JUMPDEST PUSH0 SLOAD PUSH2 0x100 SWAP1 DIV PUSH1 0xFF AND ISZERO DUP1 DUP1 ISZERO PUSH2 0x415 JUMPI POP PUSH0 SLOAD PUSH1 0x1 PUSH1 0xFF SWAP1 SWAP2 AND LT JUMPDEST DUP1 PUSH2 0x42E JUMPI POP ADDRESS EXTCODESIZE ISZERO DUP1 ISZERO PUSH2 0x42E JUMPI POP PUSH0 SLOAD PUSH1 0xFF AND PUSH1 0x1 EQ JUMPDEST PUSH2 0x496 JUMPI PUSH1 0x40 MLOAD PUSH3 0x461BCD PUSH1 0xE5 SHL DUP2 MSTORE PUSH1 0x20 PUSH1 0x4 DUP3 ADD MSTORE PUSH1 0x2E PUSH1 0x24 DUP3 ADD MSTORE PUSH32 0x496E697469616C697A61626C653A20636F6E747261637420697320616C726561 PUSH1 0x44 DUP3 ADD MSTORE PUSH14 0x191E481A5B9A5D1A585B1A5E9959 PUSH1 0x92 SHL PUSH1 0x64 DUP3 ADD MSTORE PUSH1 0x84 ADD JUMPDEST PUSH1 0x40 MLOAD DUP1 SWAP2 SUB SWAP1 REVERT JUMPDEST PUSH0 DUP1 SLOAD PUSH1 0xFF NOT AND PUSH1 0x1 OR SWAP1 SSTORE DUP1 ISZERO PUSH2 0x4B7 JUMPI PUSH0 DUP1 SLOAD PUSH2 0xFF00 NOT AND PUSH2 0x100 OR SWAP1 SSTORE JUMPDEST PUSH1 0x2 DUP1 SLOAD PUSH1 0x1 PUSH1 0x1 PUSH1 0xA0 SHL SUB NOT AND PUSH1 0x1 PUSH1 0x1 PUSH1 0xA0 SHL SUB DUP7 AND OR SWAP1 SSTORE PUSH1 0x3 DUP4 SWAP1 SSTORE PUSH1 0x1 PUSH2 0x4E3 DUP4 DUP3 PUSH2 0x11ED JUMP JUMPDEST POP DUP1 ISZERO PUSH2 0x529 JUMPI PUSH0 DUP1 SLOAD PUSH2 0xFF00 NOT AND SWAP1 SSTORE PUSH1 0x40 MLOAD PUSH1 0x1 DUP2 MSTORE PUSH32 0x7F26B83FF96E1F2B6A682F133852F6798A09C465DA95921460CEFB3847402498 SWAP1 PUSH1 0x20 ADD PUSH1 0x40 MLOAD DUP1 SWAP2 SUB SWAP1 LOG1 JUMPDEST POP POP POP POP JUMP JUMPDEST PUSH1 0x60 PUSH0 DUP7 DUP6 DUP2 EQ PUSH2 0x59A JUMPI PUSH1 0x40 MLOAD PUSH3 0x461BCD PUSH1 0xE5 SHL DUP2 MSTORE PUSH1 0x20 PUSH1 0x4 DUP3 ADD MSTORE PUSH1 0x2F PUSH1 0x24 DUP3 ADD MSTORE PUSH32 0x6C656E677468206F662069647320616E6420616D6F756E747320617272617920 PUSH1 0x44 DUP3 ADD MSTORE PUSH15 0x6973206E6F74207468652073616D65 PUSH1 0x88 SHL PUSH1 0x64 DUP3 ADD MSTORE PUSH1 0x84 ADD PUSH2 0x48D JUMP JUMPDEST PUSH0 DUP1 DUP3 PUSH8 0xFFFFFFFFFFFFFFFF DUP2 GT ISZERO PUSH2 0x5B5 JUMPI PUSH2 0x5B5 PUSH2 0xF75 JUMP JUMPDEST PUSH1 0x40 MLOAD SWAP1 DUP1 DUP3 MSTORE DUP1 PUSH1 0x20 MUL PUSH1 0x20 ADD DUP3 ADD PUSH1 0x40 MSTORE DUP1 ISZERO PUSH2 0x5DE JUMPI DUP2 PUSH1 0x20 ADD PUSH1 0x20 DUP3 MUL DUP1 CALLDATASIZE DUP4 CALLDATACOPY ADD SWAP1 POP JUMPDEST POP SWAP1 POP PUSH0 JUMPDEST DUP4 DUP2 LT ISZERO PUSH2 0x7EC JUMPI PUSH0 DUP11 DUP11 DUP4 DUP2 DUP2 LT PUSH2 0x5FE JUMPI PUSH2 0x5FE PUSH2 0x12A9 JUMP JUMPDEST SWAP1 POP PUSH1 0x20 MUL ADD CALLDATALOAD SWAP1 POP PUSH0 DUP14 DUP14 DUP5 DUP2 DUP2 LT PUSH2 0x61A JUMPI PUSH2 0x61A PUSH2 0x12A9 JUMP JUMPDEST SWAP1 POP PUSH1 0x20 MUL ADD CALLDATALOAD SWAP1 POP PUSH0 DUP11 DUP11 DUP6 DUP2 DUP2 LT PUSH2 0x636 JUMPI PUSH2 0x636 PUSH2 0x12A9 JUMP JUMPDEST SWAP1 POP PUSH1 0x20 MUL ADD PUSH1 0x20 DUP2 ADD SWAP1 PUSH2 0x64B SWAP2 SWAP1 PUSH2 0x12BD JUMP JUMPDEST SWAP1 POP PUSH2 0x657 DUP2 DUP4 PUSH2 0x314 JUMP JUMPDEST ISZERO PUSH2 0x675 JUMPI PUSH1 0x40 MLOAD PUSH4 0xC8D9EAB PUSH1 0xE3 SHL DUP2 MSTORE PUSH1 0x4 ADD PUSH1 0x40 MLOAD DUP1 SWAP2 SUB SWAP1 REVERT JUMPDEST PUSH1 0x40 MLOAD PUSH4 0x31A9108F PUSH1 0xE1 SHL DUP2 MSTORE PUSH1 0x4 DUP2 ADD DUP4 SWAP1 MSTORE CALLER SWAP1 PUSH1 0x1 PUSH1 0x1 PUSH1 0xA0 SHL SUB DUP4 AND SWAP1 PUSH4 0x6352211E SWAP1 PUSH1 0x24 ADD PUSH1 0x20 PUSH1 0x40 MLOAD DUP1 DUP4 SUB DUP2 DUP7 GAS STATICCALL ISZERO DUP1 ISZERO PUSH2 0x6BA JUMPI RETURNDATASIZE PUSH0 DUP1 RETURNDATACOPY RETURNDATASIZE PUSH0 REVERT JUMPDEST POP POP POP POP PUSH1 0x40 MLOAD RETURNDATASIZE PUSH1 0x1F NOT PUSH1 0x1F DUP3 ADD AND DUP3 ADD DUP1 PUSH1 0x40 MSTORE POP DUP2 ADD SWAP1 PUSH2 0x6DE SWAP2 SWAP1 PUSH2 0x12D8 JUMP JUMPDEST PUSH1 0x1 PUSH1 0x1 PUSH1 0xA0 SHL SUB AND EQ PUSH2 0x74D JUMPI PUSH1 0x40 MLOAD PUSH3 0x461BCD PUSH1 0xE5 SHL DUP2 MSTORE PUSH1 0x20 PUSH1 0x4 DUP3 ADD MSTORE PUSH1 0x30 PUSH1 0x24 DUP3 ADD MSTORE PUSH32 0x6F6E65206F72206D6F7265206F66207468657365206E6674732069736E74206F PUSH1 0x44 DUP3 ADD MSTORE PUSH16 0x1DDB995908189E4818DB185A5B585B9D PUSH1 0x82 SHL PUSH1 0x64 DUP3 ADD MSTORE PUSH1 0x84 ADD PUSH2 0x48D JUMP JUMPDEST PUSH2 0x757 DUP2 DUP4 PUSH2 0x9AA JUMP JUMPDEST PUSH1 0x40 DUP1 MLOAD PUSH1 0x1 PUSH1 0x1 PUSH1 0xA0 SHL SUB DUP4 AND PUSH1 0x20 DUP3 ADD MSTORE SWAP1 DUP2 ADD DUP4 SWAP1 MSTORE PUSH1 0x60 DUP2 ADD DUP5 SWAP1 MSTORE PUSH1 0x80 ADD PUSH1 0x40 DUP1 MLOAD PUSH1 0x1F NOT DUP2 DUP5 SUB ADD DUP2 MSTORE DUP3 DUP3 MSTORE DUP1 MLOAD PUSH1 0x20 SWAP2 DUP3 ADD KECCAK256 SWAP1 DUP4 ADD MSTORE ADD PUSH1 0x40 MLOAD PUSH1 0x20 DUP2 DUP4 SUB SUB DUP2 MSTORE SWAP1 PUSH1 0x40 MSTORE DUP1 MLOAD SWAP1 PUSH1 0x20 ADD KECCAK256 DUP6 DUP6 DUP2 MLOAD DUP2 LT PUSH2 0x7BF JUMPI PUSH2 0x7BF PUSH2 0x12A9 JUMP JUMPDEST PUSH1 0x20 SWAP1 DUP2 MUL SWAP2 SWAP1 SWAP2 ADD ADD MSTORE PUSH2 0x7D4 DUP4 DUP8 PUSH2 0x12F3 JUMP JUMPDEST SWAP6 POP POP POP POP DUP1 DUP1 PUSH2 0x7E4 SWAP1 PUSH2 0x1306 JUMP JUMPDEST SWAP2 POP POP PUSH2 0x5E3 JUMP JUMPDEST POP SWAP11 SWAP1 SWAP10 POP SWAP8 POP POP POP POP POP POP POP POP JUMP JUMPDEST PUSH0 DUP3 PUSH2 0x80B DUP9 DUP9 DUP9 DUP9 DUP8 PUSH2 0x9FD JUMP JUMPDEST EQ SWAP8 SWAP7 POP POP POP POP POP POP POP JUMP JUMPDEST PUSH2 0x821 DUP6 DUP6 PUSH2 0x314 JUMP JUMPDEST ISZERO PUSH2 0x83F JUMPI PUSH1 0x40 MLOAD PUSH4 0xC8D9EAB PUSH1 0xE3 SHL DUP2 MSTORE PUSH1 0x4 ADD PUSH1 0x40 MLOAD DUP1 SWAP2 SUB SWAP1 REVERT JUMPDEST PUSH1 0x40 MLOAD PUSH4 0x31A9108F PUSH1 0xE1 SHL DUP2 MSTORE PUSH1 0x4 DUP2 ADD DUP6 SWAP1 MSTORE CALLER SWAP1 PUSH1 0x1 PUSH1 0x1 PUSH1 0xA0 SHL SUB DUP8 AND SWAP1 PUSH4 0x6352211E SWAP1 PUSH1 0x24 ADD PUSH1 0x20 PUSH1 0x40 MLOAD DUP1 DUP4 SUB DUP2 DUP7 GAS STATICCALL ISZERO DUP1 ISZERO PUSH2 0x884 JUMPI RETURNDATASIZE PUSH0 DUP1 RETURNDATACOPY RETURNDATASIZE PUSH0 REVERT JUMPDEST POP POP POP POP PUSH1 0x40 MLOAD RETURNDATASIZE PUSH1 0x1F NOT PUSH1 0x1F DUP3 ADD AND DUP3 ADD DUP1 PUSH1 0x40 MSTORE POP DUP2 ADD SWAP1 PUSH2 0x8A8 SWAP2 SWAP1 PUSH2 0x12D8 JUMP JUMPDEST PUSH1 0x1 PUSH1 0x1 PUSH1 0xA0 SHL SUB AND EQ PUSH2 0x8FE JUMPI PUSH1 0x40 MLOAD PUSH3 0x461BCD PUSH1 0xE5 SHL DUP2 MSTORE PUSH1 0x20 PUSH1 0x4 DUP3 ADD MSTORE PUSH1 0x1A PUSH1 0x24 DUP3 ADD MSTORE PUSH32 0x6E66742069736E74206F776E656420627920636C61696D616E74000000000000 PUSH1 0x44 DUP3 ADD MSTORE PUSH1 0x64 ADD PUSH2 0x48D JUMP JUMPDEST PUSH1 0x40 DUP1 MLOAD PUSH1 0x1 PUSH1 0x1 PUSH1 0xA0 SHL SUB DUP8 AND PUSH1 0x20 DUP3 ADD MSTORE SWAP1 DUP2 ADD DUP6 SWAP1 MSTORE PUSH1 0x60 DUP2 ADD DUP5 SWAP1 MSTORE PUSH0 SWAP1 PUSH1 0x80 ADD PUSH1 0x40 DUP1 MLOAD PUSH1 0x1F NOT DUP2 DUP5 SUB ADD DUP2 MSTORE DUP3 DUP3 MSTORE DUP1 MLOAD PUSH1 0x20 SWAP2 DUP3 ADD KECCAK256 SWAP1 DUP4 ADD MSTORE ADD PUSH1 0x40 MLOAD PUSH1 0x20 DUP2 DUP4 SUB SUB DUP2 MSTORE SWAP1 PUSH1 0x40 MSTORE DUP1 MLOAD SWAP1 PUSH1 0x20 ADD KECCAK256 SWAP1 POP PUSH2 0x966 DUP4 DUP4 PUSH1 0x3 SLOAD DUP5 PUSH2 0xCC4 JUMP JUMPDEST PUSH2 0x9A2 JUMPI PUSH1 0x40 MLOAD PUSH3 0x461BCD PUSH1 0xE5 SHL DUP2 MSTORE PUSH1 0x20 PUSH1 0x4 DUP3 ADD MSTORE PUSH1 0xD PUSH1 0x24 DUP3 ADD MSTORE PUSH13 0x24B73B30B634B210383937B7B3 PUSH1 0x99 SHL PUSH1 0x44 DUP3 ADD MSTORE PUSH1 0x64 ADD PUSH2 0x48D JUMP JUMPDEST POP POP POP POP POP POP JUMP JUMPDEST PUSH0 PUSH2 0x9B7 PUSH2 0x100 DUP4 PUSH2 0x1145 JUMP JUMPDEST SWAP1 POP PUSH0 PUSH2 0x9C6 PUSH2 0x100 DUP5 PUSH2 0x1158 JUMP JUMPDEST PUSH1 0x1 PUSH1 0x1 PUSH1 0xA0 SHL SUB SWAP5 SWAP1 SWAP5 AND PUSH0 SWAP1 DUP2 MSTORE PUSH1 0x4 PUSH1 0x20 SWAP1 DUP2 MSTORE PUSH1 0x40 DUP1 DUP4 KECCAK256 SWAP5 DUP4 MSTORE SWAP4 SWAP1 MSTORE SWAP2 SWAP1 SWAP2 KECCAK256 DUP1 SLOAD PUSH1 0x1 SWAP1 SWAP5 SHL SWAP1 SWAP4 OR SWAP1 SWAP3 SSTORE POP POP JUMP JUMPDEST DUP1 MLOAD PUSH0 SWAP1 DUP6 DUP5 DUP1 PUSH1 0x1 PUSH2 0xA10 DUP5 DUP7 PUSH2 0x12F3 JUMP JUMPDEST PUSH2 0xA1A SWAP2 SWAP1 PUSH2 0x131E JUMP JUMPDEST EQ PUSH2 0xA67 JUMPI PUSH1 0x40 MLOAD PUSH3 0x461BCD PUSH1 0xE5 SHL DUP2 MSTORE PUSH1 0x20 PUSH1 0x4 DUP3 ADD MSTORE PUSH1 0x1F PUSH1 0x24 DUP3 ADD MSTORE PUSH32 0x4D65726B6C6550726F6F663A20696E76616C6964206D756C746970726F6F6600 PUSH1 0x44 DUP3 ADD MSTORE PUSH1 0x64 ADD PUSH2 0x48D JUMP JUMPDEST PUSH0 DUP2 PUSH8 0xFFFFFFFFFFFFFFFF DUP2 GT ISZERO PUSH2 0xA81 JUMPI PUSH2 0xA81 PUSH2 0xF75 JUMP JUMPDEST PUSH1 0x40 MLOAD SWAP1 DUP1 DUP3 MSTORE DUP1 PUSH1 0x20 MUL PUSH1 0x20 ADD DUP3 ADD PUSH1 0x40 MSTORE DUP1 ISZERO PUSH2 0xAAA JUMPI DUP2 PUSH1 0x20 ADD PUSH1 0x20 DUP3 MUL DUP1 CALLDATASIZE DUP4 CALLDATACOPY ADD SWAP1 POP JUMPDEST POP SWAP1 POP PUSH0 DUP1 PUSH0 DUP1 JUMPDEST DUP6 DUP2 LT ISZERO PUSH2 0xBFF JUMPI PUSH0 DUP9 DUP6 LT PUSH2 0xAEC JUMPI DUP6 DUP5 PUSH2 0xACD DUP2 PUSH2 0x1306 JUMP JUMPDEST SWAP6 POP DUP2 MLOAD DUP2 LT PUSH2 0xADF JUMPI PUSH2 0xADF PUSH2 0x12A9 JUMP JUMPDEST PUSH1 0x20 MUL PUSH1 0x20 ADD ADD MLOAD PUSH2 0xB12 JUMP JUMPDEST DUP11 DUP6 PUSH2 0xAF7 DUP2 PUSH2 0x1306 JUMP JUMPDEST SWAP7 POP DUP2 MLOAD DUP2 LT PUSH2 0xB09 JUMPI PUSH2 0xB09 PUSH2 0x12A9 JUMP JUMPDEST PUSH1 0x20 MUL PUSH1 0x20 ADD ADD MLOAD JUMPDEST SWAP1 POP PUSH0 DUP14 DUP14 DUP5 DUP2 DUP2 LT PUSH2 0xB27 JUMPI PUSH2 0xB27 PUSH2 0x12A9 JUMP JUMPDEST SWAP1 POP PUSH1 0x20 MUL ADD PUSH1 0x20 DUP2 ADD SWAP1 PUSH2 0xB3C SWAP2 SWAP1 PUSH2 0x1331 JUMP JUMPDEST PUSH2 0xB69 JUMPI DUP16 DUP16 DUP6 PUSH2 0xB4C DUP2 PUSH2 0x1306 JUMP JUMPDEST SWAP7 POP DUP2 DUP2 LT PUSH2 0xB5D JUMPI PUSH2 0xB5D PUSH2 0x12A9 JUMP JUMPDEST SWAP1 POP PUSH1 0x20 MUL ADD CALLDATALOAD PUSH2 0xBC0 JUMP JUMPDEST DUP10 DUP7 LT PUSH2 0xB9A JUMPI DUP7 DUP6 PUSH2 0xB7B DUP2 PUSH2 0x1306 JUMP JUMPDEST SWAP7 POP DUP2 MLOAD DUP2 LT PUSH2 0xB8D JUMPI PUSH2 0xB8D PUSH2 0x12A9 JUMP JUMPDEST PUSH1 0x20 MUL PUSH1 0x20 ADD ADD MLOAD PUSH2 0xBC0 JUMP JUMPDEST DUP12 DUP7 PUSH2 0xBA5 DUP2 PUSH2 0x1306 JUMP JUMPDEST SWAP8 POP DUP2 MLOAD DUP2 LT PUSH2 0xBB7 JUMPI PUSH2 0xBB7 PUSH2 0x12A9 JUMP JUMPDEST PUSH1 0x20 MUL PUSH1 0x20 ADD ADD MLOAD JUMPDEST SWAP1 POP PUSH2 0xBCC DUP3 DUP3 PUSH2 0xCDB JUMP JUMPDEST DUP8 DUP5 DUP2 MLOAD DUP2 LT PUSH2 0xBDE JUMPI PUSH2 0xBDE PUSH2 0x12A9 JUMP JUMPDEST PUSH1 0x20 MUL PUSH1 0x20 ADD ADD DUP2 DUP2 MSTORE POP POP POP POP DUP1 DUP1 PUSH2 0xBF7 SWAP1 PUSH2 0x1306 JUMP JUMPDEST SWAP2 POP POP PUSH2 0xAB2 JUMP JUMPDEST POP DUP5 ISZERO PUSH2 0xC80 JUMPI DUP6 DUP2 EQ PUSH2 0xC55 JUMPI PUSH1 0x40 MLOAD PUSH3 0x461BCD PUSH1 0xE5 SHL DUP2 MSTORE PUSH1 0x20 PUSH1 0x4 DUP3 ADD MSTORE PUSH1 0x1F PUSH1 0x24 DUP3 ADD MSTORE PUSH32 0x4D65726B6C6550726F6F663A20696E76616C6964206D756C746970726F6F6600 PUSH1 0x44 DUP3 ADD MSTORE PUSH1 0x64 ADD PUSH2 0x48D JUMP JUMPDEST DUP4 PUSH1 0x1 DUP7 SUB DUP2 MLOAD DUP2 LT PUSH2 0xC6A JUMPI PUSH2 0xC6A PUSH2 0x12A9 JUMP JUMPDEST PUSH1 0x20 MUL PUSH1 0x20 ADD ADD MLOAD SWAP8 POP POP POP POP POP POP POP POP PUSH2 0xCBB JUMP JUMPDEST DUP7 ISZERO PUSH2 0xC98 JUMPI DUP9 PUSH0 DUP2 MLOAD DUP2 LT PUSH2 0xC6A JUMPI PUSH2 0xC6A PUSH2 0x12A9 JUMP JUMPDEST DUP13 DUP13 PUSH0 DUP2 DUP2 LT PUSH2 0xCAA JUMPI PUSH2 0xCAA PUSH2 0x12A9 JUMP JUMPDEST SWAP1 POP PUSH1 0x20 MUL ADD CALLDATALOAD SWAP8 POP POP POP POP POP POP POP POP JUMPDEST SWAP6 SWAP5 POP POP POP POP POP JUMP JUMPDEST PUSH0 DUP3 PUSH2 0xCD1 DUP7 DUP7 DUP6 PUSH2 0xD0A JUMP JUMPDEST EQ SWAP6 SWAP5 POP POP POP POP POP JUMP JUMPDEST PUSH0 DUP2 DUP4 LT PUSH2 0xCF5 JUMPI PUSH0 DUP3 DUP2 MSTORE PUSH1 0x20 DUP5 SWAP1 MSTORE PUSH1 0x40 SWAP1 KECCAK256 PUSH2 0xD03 JUMP JUMPDEST PUSH0 DUP4 DUP2 MSTORE PUSH1 0x20 DUP4 SWAP1 MSTORE PUSH1 0x40 SWAP1 KECCAK256 JUMPDEST SWAP4 SWAP3 POP POP POP JUMP JUMPDEST PUSH0 DUP2 DUP2 JUMPDEST DUP5 DUP2 LT ISZERO PUSH2 0xD4C JUMPI PUSH2 0xD38 DUP3 DUP8 DUP8 DUP5 DUP2 DUP2 LT PUSH2 0xD2C JUMPI PUSH2 0xD2C PUSH2 0x12A9 JUMP JUMPDEST SWAP1 POP PUSH1 0x20 MUL ADD CALLDATALOAD PUSH2 0xCDB JUMP JUMPDEST SWAP2 POP DUP1 PUSH2 0xD44 DUP2 PUSH2 0x1306 JUMP JUMPDEST SWAP2 POP POP PUSH2 0xD0E JUMP JUMPDEST POP SWAP5 SWAP4 POP POP POP POP JUMP JUMPDEST PUSH0 DUP1 DUP4 PUSH1 0x1F DUP5 ADD SLT PUSH2 0xD65 JUMPI PUSH0 DUP1 REVERT JUMPDEST POP DUP2 CALLDATALOAD PUSH8 0xFFFFFFFFFFFFFFFF DUP2 GT ISZERO PUSH2 0xD7C JUMPI PUSH0 DUP1 REVERT JUMPDEST PUSH1 0x20 DUP4 ADD SWAP2 POP DUP4 PUSH1 0x20 DUP3 PUSH1 0x5 SHL DUP6 ADD ADD GT ISZERO PUSH2 0xD96 JUMPI PUSH0 DUP1 REVERT JUMPDEST SWAP3 POP SWAP3 SWAP1 POP JUMP JUMPDEST PUSH0 DUP1 PUSH0 DUP1 PUSH0 DUP1 PUSH0 DUP1 PUSH0 DUP1 PUSH1 0xA0 DUP12 DUP14 SUB SLT ISZERO PUSH2 0xDB6 JUMPI PUSH0 DUP1 REVERT JUMPDEST DUP11 CALLDATALOAD PUSH8 0xFFFFFFFFFFFFFFFF DUP1 DUP3 GT ISZERO PUSH2 0xDCD JUMPI PUSH0 DUP1 REVERT JUMPDEST PUSH2 0xDD9 DUP15 DUP4 DUP16 ADD PUSH2 0xD55 JUMP JUMPDEST SWAP1 SWAP13 POP SWAP11 POP PUSH1 0x20 DUP14 ADD CALLDATALOAD SWAP2 POP DUP1 DUP3 GT ISZERO PUSH2 0xDF1 JUMPI PUSH0 DUP1 REVERT JUMPDEST PUSH2 0xDFD DUP15 DUP4 DUP16 ADD PUSH2 0xD55 JUMP JUMPDEST SWAP1 SWAP11 POP SWAP9 POP PUSH1 0x40 DUP14 ADD CALLDATALOAD SWAP2 POP DUP1 DUP3 GT ISZERO PUSH2 0xE15 JUMPI PUSH0 DUP1 REVERT JUMPDEST PUSH2 0xE21 DUP15 DUP4 DUP16 ADD PUSH2 0xD55 JUMP JUMPDEST SWAP1 SWAP9 POP SWAP7 POP PUSH1 0x60 DUP14 ADD CALLDATALOAD SWAP2 POP DUP1 DUP3 GT ISZERO PUSH2 0xE39 JUMPI PUSH0 DUP1 REVERT JUMPDEST PUSH2 0xE45 DUP15 DUP4 DUP16 ADD PUSH2 0xD55 JUMP JUMPDEST SWAP1 SWAP7 POP SWAP5 POP PUSH1 0x80 DUP14 ADD CALLDATALOAD SWAP2 POP DUP1 DUP3 GT ISZERO PUSH2 0xE5D JUMPI PUSH0 DUP1 REVERT JUMPDEST POP PUSH2 0xE6A DUP14 DUP3 DUP15 ADD PUSH2 0xD55 JUMP JUMPDEST SWAP2 POP DUP1 SWAP4 POP POP DUP1 SWAP2 POP POP SWAP3 SWAP6 SWAP9 SWAP12 SWAP2 SWAP5 SWAP8 SWAP11 POP SWAP3 SWAP6 SWAP9 POP JUMP JUMPDEST PUSH1 0x1 PUSH1 0x1 PUSH1 0xA0 SHL SUB DUP2 AND DUP2 EQ PUSH2 0xE97 JUMPI PUSH0 DUP1 REVERT JUMPDEST POP JUMP JUMPDEST PUSH0 DUP1 PUSH0 DUP1 PUSH0 PUSH1 0x80 DUP7 DUP9 SUB SLT ISZERO PUSH2 0xEAE JUMPI PUSH0 DUP1 REVERT JUMPDEST DUP6 CALLDATALOAD PUSH8 0xFFFFFFFFFFFFFFFF DUP2 GT ISZERO PUSH2 0xEC4 JUMPI PUSH0 DUP1 REVERT JUMPDEST PUSH2 0xED0 DUP9 DUP3 DUP10 ADD PUSH2 0xD55 JUMP JUMPDEST SWAP1 SWAP7 POP SWAP5 POP POP PUSH1 0x20 DUP7 ADD CALLDATALOAD SWAP3 POP PUSH1 0x40 DUP7 ADD CALLDATALOAD SWAP2 POP PUSH1 0x60 DUP7 ADD CALLDATALOAD PUSH2 0xEF2 DUP2 PUSH2 0xE83 JUMP JUMPDEST DUP1 SWAP2 POP POP SWAP3 SWAP6 POP SWAP3 SWAP6 SWAP1 SWAP4 POP JUMP JUMPDEST PUSH0 DUP1 PUSH1 0x40 DUP4 DUP6 SUB SLT ISZERO PUSH2 0xF11 JUMPI PUSH0 DUP1 REVERT JUMPDEST DUP3 CALLDATALOAD PUSH2 0xF1C DUP2 PUSH2 0xE83 JUMP JUMPDEST SWAP5 PUSH1 0x20 SWAP4 SWAP1 SWAP4 ADD CALLDATALOAD SWAP4 POP POP POP JUMP JUMPDEST PUSH0 PUSH1 0x20 DUP1 DUP4 MSTORE DUP4 MLOAD DUP1 DUP3 DUP6 ADD MSTORE PUSH0 JUMPDEST DUP2 DUP2 LT ISZERO PUSH2 0xF55 JUMPI DUP6 DUP2 ADD DUP4 ADD MLOAD DUP6 DUP3 ADD PUSH1 0x40 ADD MSTORE DUP3 ADD PUSH2 0xF39 JUMP JUMPDEST POP PUSH0 PUSH1 0x40 DUP3 DUP7 ADD ADD MSTORE PUSH1 0x40 PUSH1 0x1F NOT PUSH1 0x1F DUP4 ADD AND DUP6 ADD ADD SWAP3 POP POP POP SWAP3 SWAP2 POP POP JUMP JUMPDEST PUSH4 0x4E487B71 PUSH1 0xE0 SHL PUSH0 MSTORE PUSH1 0x41 PUSH1 0x4 MSTORE PUSH1 0x24 PUSH0 REVERT JUMPDEST PUSH0 DUP1 PUSH0 PUSH1 0x60 DUP5 DUP7 SUB SLT ISZERO PUSH2 0xF9B JUMPI PUSH0 DUP1 REVERT JUMPDEST DUP4 CALLDATALOAD PUSH2 0xFA6 DUP2 PUSH2 0xE83 JUMP JUMPDEST SWAP3 POP PUSH1 0x20 DUP5 ADD CALLDATALOAD SWAP2 POP PUSH1 0x40 DUP5 ADD CALLDATALOAD PUSH8 0xFFFFFFFFFFFFFFFF DUP1 DUP3 GT ISZERO PUSH2 0xFC9 JUMPI PUSH0 DUP1 REVERT JUMPDEST DUP2 DUP7 ADD SWAP2 POP DUP7 PUSH1 0x1F DUP4 ADD SLT PUSH2 0xFDC JUMPI PUSH0 DUP1 REVERT JUMPDEST DUP2 CALLDATALOAD DUP2 DUP2 GT ISZERO PUSH2 0xFEE JUMPI PUSH2 0xFEE PUSH2 0xF75 JUMP JUMPDEST PUSH1 0x40 MLOAD PUSH1 0x1F DUP3 ADD PUSH1 0x1F NOT SWAP1 DUP2 AND PUSH1 0x3F ADD AND DUP2 ADD SWAP1 DUP4 DUP3 GT DUP2 DUP4 LT OR ISZERO PUSH2 0x1016 JUMPI PUSH2 0x1016 PUSH2 0xF75 JUMP JUMPDEST DUP2 PUSH1 0x40 MSTORE DUP3 DUP2 MSTORE DUP10 PUSH1 0x20 DUP5 DUP8 ADD ADD GT ISZERO PUSH2 0x102E JUMPI PUSH0 DUP1 REVERT JUMPDEST DUP3 PUSH1 0x20 DUP7 ADD PUSH1 0x20 DUP4 ADD CALLDATACOPY PUSH0 PUSH1 0x20 DUP5 DUP4 ADD ADD MSTORE DUP1 SWAP6 POP POP POP POP POP POP SWAP3 POP SWAP3 POP SWAP3 JUMP JUMPDEST DUP1 ISZERO ISZERO DUP2 EQ PUSH2 0xE97 JUMPI PUSH0 DUP1 REVERT JUMPDEST PUSH0 PUSH1 0x20 DUP3 DUP5 SUB SLT ISZERO PUSH2 0x106C JUMPI PUSH0 DUP1 REVERT JUMPDEST DUP2 MLOAD PUSH2 0xD03 DUP2 PUSH2 0x104F JUMP JUMPDEST DUP2 DUP4 MSTORE PUSH0 PUSH1 0x1 PUSH1 0x1 PUSH1 0xFB SHL SUB DUP4 GT ISZERO PUSH2 0x108E JUMPI PUSH0 DUP1 REVERT JUMPDEST DUP3 PUSH1 0x5 SHL DUP1 DUP4 PUSH1 0x20 DUP8 ADD CALLDATACOPY SWAP4 SWAP1 SWAP4 ADD PUSH1 0x20 ADD SWAP4 SWAP3 POP POP POP JUMP JUMPDEST PUSH1 0x60 DUP2 MSTORE PUSH0 PUSH2 0x10BA PUSH1 0x60 DUP4 ADD DUP9 DUP11 PUSH2 0x1077 JUMP JUMPDEST PUSH1 0x20 DUP4 DUP3 SUB DUP2 DUP6 ADD MSTORE PUSH2 0x10CE DUP3 DUP9 DUP11 PUSH2 0x1077 JUMP JUMPDEST DUP5 DUP2 SUB PUSH1 0x40 DUP7 ADD MSTORE DUP6 DUP2 MSTORE DUP7 SWAP3 POP DUP2 ADD PUSH0 JUMPDEST DUP7 DUP2 LT ISZERO PUSH2 0x110E JUMPI DUP4 CALLDATALOAD PUSH2 0x10F3 DUP2 PUSH2 0xE83 JUMP JUMPDEST PUSH1 0x1 PUSH1 0x1 PUSH1 0xA0 SHL SUB AND DUP3 MSTORE SWAP3 DUP3 ADD SWAP3 SWAP1 DUP3 ADD SWAP1 PUSH1 0x1 ADD PUSH2 0x10E0 JUMP JUMPDEST POP SWAP11 SWAP10 POP POP POP POP POP POP POP POP POP POP JUMP JUMPDEST PUSH4 0x4E487B71 PUSH1 0xE0 SHL PUSH0 MSTORE PUSH1 0x12 PUSH1 0x4 MSTORE PUSH1 0x24 PUSH0 REVERT JUMPDEST PUSH4 0x4E487B71 PUSH1 0xE0 SHL PUSH0 MSTORE PUSH1 0x11 PUSH1 0x4 MSTORE PUSH1 0x24 PUSH0 REVERT JUMPDEST PUSH0 DUP3 PUSH2 0x1153 JUMPI PUSH2 0x1153 PUSH2 0x111D JUMP JUMPDEST POP DIV SWAP1 JUMP JUMPDEST PUSH0 DUP3 PUSH2 0x1166 JUMPI PUSH2 0x1166 PUSH2 0x111D JUMP JUMPDEST POP MOD SWAP1 JUMP JUMPDEST PUSH1 0x1 DUP2 DUP2 SHR SWAP1 DUP3 AND DUP1 PUSH2 0x117F JUMPI PUSH1 0x7F DUP3 AND SWAP2 POP JUMPDEST PUSH1 0x20 DUP3 LT DUP2 SUB PUSH2 0x119D JUMPI PUSH4 0x4E487B71 PUSH1 0xE0 SHL PUSH0 MSTORE PUSH1 0x22 PUSH1 0x4 MSTORE PUSH1 0x24 PUSH0 REVERT JUMPDEST POP SWAP2 SWAP1 POP JUMP JUMPDEST PUSH1 0x1F DUP3 GT ISZERO PUSH2 0x11E8 JUMPI PUSH0 DUP2 DUP2 MSTORE PUSH1 0x20 DUP2 KECCAK256 PUSH1 0x1F DUP6 ADD PUSH1 0x5 SHR DUP2 ADD PUSH1 0x20 DUP7 LT ISZERO PUSH2 0x11C9 JUMPI POP DUP1 JUMPDEST PUSH1 0x1F DUP6 ADD PUSH1 0x5 SHR DUP3 ADD SWAP2 POP JUMPDEST DUP2 DUP2 LT ISZERO PUSH2 0x9A2 JUMPI DUP3 DUP2 SSTORE PUSH1 0x1 ADD PUSH2 0x11D5 JUMP JUMPDEST POP POP POP JUMP JUMPDEST DUP2 MLOAD PUSH8 0xFFFFFFFFFFFFFFFF DUP2 GT ISZERO PUSH2 0x1207 JUMPI PUSH2 0x1207 PUSH2 0xF75 JUMP JUMPDEST PUSH2 0x121B DUP2 PUSH2 0x1215 DUP5 SLOAD PUSH2 0x116B JUMP JUMPDEST DUP5 PUSH2 0x11A3 JUMP JUMPDEST PUSH1 0x20 DUP1 PUSH1 0x1F DUP4 GT PUSH1 0x1 DUP2 EQ PUSH2 0x124E JUMPI PUSH0 DUP5 ISZERO PUSH2 0x1237 JUMPI POP DUP6 DUP4 ADD MLOAD JUMPDEST PUSH0 NOT PUSH1 0x3 DUP7 SWAP1 SHL SHR NOT AND PUSH1 0x1 DUP6 SWAP1 SHL OR DUP6 SSTORE PUSH2 0x9A2 JUMP JUMPDEST PUSH0 DUP6 DUP2 MSTORE PUSH1 0x20 DUP2 KECCAK256 PUSH1 0x1F NOT DUP7 AND SWAP2 JUMPDEST DUP3 DUP2 LT ISZERO PUSH2 0x127C JUMPI DUP9 DUP7 ADD MLOAD DUP3 SSTORE SWAP5 DUP5 ADD SWAP5 PUSH1 0x1 SWAP1 SWAP2 ADD SWAP1 DUP5 ADD PUSH2 0x125D JUMP JUMPDEST POP DUP6 DUP3 LT ISZERO PUSH2 0x1299 JUMPI DUP8 DUP6 ADD MLOAD PUSH0 NOT PUSH1 0x3 DUP9 SWAP1 SHL PUSH1 0xF8 AND SHR NOT AND DUP2 SSTORE JUMPDEST POP POP POP POP POP PUSH1 0x1 SWAP1 DUP2 SHL ADD SWAP1 SSTORE POP JUMP JUMPDEST PUSH4 0x4E487B71 PUSH1 0xE0 SHL PUSH0 MSTORE PUSH1 0x32 PUSH1 0x4 MSTORE PUSH1 0x24 PUSH0 REVERT JUMPDEST PUSH0 PUSH1 0x20 DUP3 DUP5 SUB SLT ISZERO PUSH2 0x12CD JUMPI PUSH0 DUP1 REVERT JUMPDEST DUP2 CALLDATALOAD PUSH2 0xD03 DUP2 PUSH2 0xE83 JUMP JUMPDEST PUSH0 PUSH1 0x20 DUP3 DUP5 SUB SLT ISZERO PUSH2 0x12E8 JUMPI PUSH0 DUP1 REVERT JUMPDEST DUP2 MLOAD PUSH2 0xD03 DUP2 PUSH2 0xE83 JUMP JUMPDEST DUP1 DUP3 ADD DUP1 DUP3 GT ISZERO PUSH2 0x365 JUMPI PUSH2 0x365 PUSH2 0x1131 JUMP JUMPDEST PUSH0 PUSH1 0x1 DUP3 ADD PUSH2 0x1317 JUMPI PUSH2 0x1317 PUSH2 0x1131 JUMP JUMPDEST POP PUSH1 0x1 ADD SWAP1 JUMP JUMPDEST DUP2 DUP2 SUB DUP2 DUP2 GT ISZERO PUSH2 0x365 JUMPI PUSH2 0x365 PUSH2 0x1131 JUMP JUMPDEST PUSH0 PUSH1 0x20 DUP3 DUP5 SUB SLT ISZERO PUSH2 0x1341 JUMPI PUSH0 DUP1 REVERT JUMPDEST DUP2 CALLDATALOAD PUSH2 0xD03 DUP2 PUSH2 0x104F JUMP INVALID LOG2 PUSH5 0x6970667358 0x22 SLT KECCAK256 DUP9 STATICCALL PUSH28 0x2C96BF8FAAB9C13BB3941CFB1B363AE1376007AEBBC0A771A5BE5894 PUSH17 0x64736F6C63430008150033000000000000 "
		},
		"gasEstimates": {
			"creation": {
				"codeDepositCost": "170000",
				"executionCost": "infinite",
				"totalCost": "infinite"
			},
			"external": {
				"createNewDrop(address,bytes32,string)": "infinite",
				"implementation()": "2301"
			}
		},
		"methodIdentifiers": {
			"createNewDrop(address,bytes32,string)": "e8bead02",
			"implementation()": "5c60da1b"
		}
	},
	"abi": [
		{
			"anonymous": false,
			"inputs": [
				{
					"indexed": true,
					"internalType": "address",
					"name": "deployerAddress",
					"type": "address"
				},
				{
					"indexed": false,
					"internalType": "address",
					"name": "dropAddress",
					"type": "address"
				}
			],
			"name": "CreateNewDrop",
			"type": "event"
		},
		{
			"inputs": [
				{
					"internalType": "address",
					"name": "_airdropTokenAddress",
					"type": "address"
				},
				{
					"internalType": "bytes32",
					"name": "_merkleRoot",
					"type": "bytes32"
				},
				{
					"internalType": "string",
					"name": "_claimDataIpfs",
					"type": "string"
				}
			],
			"name": "createNewDrop",
			"outputs": [],
			"stateMutability": "nonpayable",
			"type": "function"
		},
		{
			"inputs": [],
			"name": "implementation",
			"outputs": [
				{
					"internalType": "address",
					"name": "",
					"type": "address"
				}
			],
			"stateMutability": "view",
			"type": "function"
		}
	]
}